{"abi":[{"type":"constructor","inputs":[],"stateMutability":"nonpayable"},{"type":"function","name":"paymentInfos","inputs":[{"name":"","type":"uint256","internalType":"uint256"}],"outputs":[{"name":"paymentToken","type":"address","internalType":"address"},{"name":"price","type":"uint256","internalType":"uint256"}],"stateMutability":"view"},{"type":"function","name":"processPayment","inputs":[{"name":"tokenId","type":"uint256","internalType":"uint256"},{"name":"buyer","type":"address","internalType":"address"},{"name":"recipient","type":"address","internalType":"address"}],"outputs":[],"stateMutability":"nonpayable"},{"type":"function","name":"setPaymentInfo","inputs":[{"name":"tokenId","type":"uint256","internalType":"uint256"},{"name":"paymentToken","type":"address","internalType":"address"},{"name":"price","type":"uint256","internalType":"uint256"}],"outputs":[],"stateMutability":"nonpayable"}],"bytecode":{"object":"0x6080604052348015600e575f80fd5b5061046d8061001c5f395ff3fe608060405234801561000f575f80fd5b506004361061003f575f3560e01c80630b74e623146100435780633406129314610098578063ce4dbce4146100ad575b5f80fd5b61007561005136600461035c565b5f60208190529081526040902080546001909101546001600160a01b039091169082565b604080516001600160a01b03909316835260208301919091520160405180910390f35b6100ab6100a636600461038e565b610101565b005b6100ab6100bb3660046103c7565b6040805180820182526001600160a01b03938416815260208082019384525f9586528590529320925183546001600160a01b031916921691909117825551600190910155565b5f83815260208181526040918290208251808401845281546001600160a01b0390811680835260019093015493820184905293516370a0823160e01b815293861660048501529290919082906370a0823190602401602060405180830381865afa158015610171573d5f803e3d5ffd5b505050506040513d601f19601f8201168201806040525081019061019591906103fa565b10156101df5760405162461bcd60e51b8152602060048201526014602482015273496e73756666696369656e742062616c616e636560601b60448201526064015b60405180910390fd5b6020820151604051636eb1769f60e11b81526001600160a01b03868116600483015230602483015283169063dd62ed3e90604401602060405180830381865afa15801561022e573d5f803e3d5ffd5b505050506040513d601f19601f8201168201806040525081019061025291906103fa565b10156102995760405162461bcd60e51b8152602060048201526016602482015275496e73756666696369656e7420616c6c6f77616e636560501b60448201526064016101d6565b60208201516040516323b872dd60e01b81526001600160a01b03868116600483015285811660248301526044820192909252908216906323b872dd906064016020604051808303815f875af11580156102f4573d5f803e3d5ffd5b505050506040513d601f19601f820116820180604052508101906103189190610411565b6103555760405162461bcd60e51b815260206004820152600e60248201526d14185e5b595b9d0819985a5b195960921b60448201526064016101d6565b5050505050565b5f6020828403121561036c575f80fd5b5035919050565b80356001600160a01b0381168114610389575f80fd5b919050565b5f805f606084860312156103a0575f80fd5b833592506103b060208501610373565b91506103be60408501610373565b90509250925092565b5f805f606084860312156103d9575f80fd5b833592506103e960208501610373565b929592945050506040919091013590565b5f6020828403121561040a575f80fd5b5051919050565b5f60208284031215610421575f80fd5b81518015158114610430575f80fd5b939250505056fea26469706673582212207a35b3c02f2b8cc7e68624a9af3379c258864cfacaa3d9e32675a3c87b96cced64736f6c634300081a0033","linkReferences":{}},"methodIdentifiers":{"paymentInfos(uint256)":"0b74e623","processPayment(uint256,address,address)":"34061293","setPaymentInfo(uint256,address,uint256)":"ce4dbce4"},"id":62}