{"abi":[{"type":"constructor","inputs":[],"stateMutability":"nonpayable"},{"type":"function","name":"paymentInfos","inputs":[{"name":"","type":"uint256","internalType":"uint256"}],"outputs":[{"name":"paymentToken","type":"address","internalType":"address"},{"name":"price","type":"uint256","internalType":"uint256"}],"stateMutability":"view"},{"type":"function","name":"processPayment","inputs":[{"name":"tokenId","type":"uint256","internalType":"uint256"},{"name":"buyer","type":"address","internalType":"address"},{"name":"recipient","type":"address","internalType":"address"}],"outputs":[],"stateMutability":"nonpayable"},{"type":"function","name":"setPaymentInfo","inputs":[{"name":"tokenId","type":"uint256","internalType":"uint256"},{"name":"paymentToken","type":"address","internalType":"address"},{"name":"price","type":"uint256","internalType":"uint256"}],"outputs":[],"stateMutability":"nonpayable"}],"bytecode":{"object":"0x6080604052348015600f57600080fd5b506104888061001f6000396000f3fe608060405234801561001057600080fd5b50600436106100415760003560e01c80630b74e62314610046578063340612931461009c578063ce4dbce4146100b1575b600080fd5b610079610054366004610369565b600060208190529081526040902080546001909101546001600160a01b039091169082565b604080516001600160a01b03909316835260208301919091520160405180910390f35b6100af6100aa36600461039e565b610106565b005b6100af6100bf3660046103da565b6040805180820182526001600160a01b039384168152602080820193845260009586528590529320925183546001600160a01b031916921691909117825551600190910155565b600083815260208181526040918290208251808401845281546001600160a01b0390811680835260019093015493820184905293516370a0823160e01b815293861660048501529290919082906370a0823190602401602060405180830381865afa158015610179573d6000803e3d6000fd5b505050506040513d601f19601f8201168201806040525081019061019d9190610410565b10156101e75760405162461bcd60e51b8152602060048201526014602482015273496e73756666696369656e742062616c616e636560601b60448201526064015b60405180910390fd5b6020820151604051636eb1769f60e11b81526001600160a01b03868116600483015230602483015283169063dd62ed3e90604401602060405180830381865afa158015610238573d6000803e3d6000fd5b505050506040513d601f19601f8201168201806040525081019061025c9190610410565b10156102a35760405162461bcd60e51b8152602060048201526016602482015275496e73756666696369656e7420616c6c6f77616e636560501b60448201526064016101de565b60208201516040516323b872dd60e01b81526001600160a01b03868116600483015285811660248301526044820192909252908216906323b872dd906064016020604051808303816000875af1158015610301573d6000803e3d6000fd5b505050506040513d601f19601f820116820180604052508101906103259190610429565b6103625760405162461bcd60e51b815260206004820152600e60248201526d14185e5b595b9d0819985a5b195960921b60448201526064016101de565b5050505050565b60006020828403121561037b57600080fd5b5035919050565b80356001600160a01b038116811461039957600080fd5b919050565b6000806000606084860312156103b357600080fd5b833592506103c360208501610382565b91506103d160408501610382565b90509250925092565b6000806000606084860312156103ef57600080fd5b833592506103ff60208501610382565b929592945050506040919091013590565b60006020828403121561042257600080fd5b5051919050565b60006020828403121561043b57600080fd5b8151801515811461044b57600080fd5b939250505056fea2646970667358221220f88a90ee5c82779add91dfcd17260b9a04783f7a74e1c90e25ae11fbb738b49564736f6c634300081a0033","linkReferences":{}},"methodIdentifiers":{"paymentInfos(uint256)":"0b74e623","processPayment(uint256,address,address)":"34061293","setPaymentInfo(uint256,address,uint256)":"ce4dbce4"},"id":49}