{"abi":[{"type":"constructor","inputs":[],"stateMutability":"nonpayable"},{"type":"function","name":"approve","inputs":[{"name":"to","type":"address","internalType":"address"},{"name":"tokenId","type":"uint256","internalType":"uint256"}],"outputs":[],"stateMutability":"nonpayable"},{"type":"function","name":"balanceOf","inputs":[{"name":"owner","type":"address","internalType":"address"}],"outputs":[{"name":"","type":"uint256","internalType":"uint256"}],"stateMutability":"view"},{"type":"function","name":"createNFT","inputs":[{"name":"tokenURI","type":"string","internalType":"string"}],"outputs":[{"name":"","type":"uint256","internalType":"uint256"}],"stateMutability":"nonpayable"},{"type":"function","name":"getApproved","inputs":[{"name":"tokenId","type":"uint256","internalType":"uint256"}],"outputs":[{"name":"","type":"address","internalType":"address"}],"stateMutability":"view"},{"type":"function","name":"isApprovedForAll","inputs":[{"name":"owner","type":"address","internalType":"address"},{"name":"operator","type":"address","internalType":"address"}],"outputs":[{"name":"","type":"bool","internalType":"bool"}],"stateMutability":"view"},{"type":"function","name":"name","inputs":[],"outputs":[{"name":"","type":"string","internalType":"string"}],"stateMutability":"view"},{"type":"function","name":"owner","inputs":[],"outputs":[{"name":"","type":"address","internalType":"address"}],"stateMutability":"view"},{"type":"function","name":"ownerOf","inputs":[{"name":"tokenId","type":"uint256","internalType":"uint256"}],"outputs":[{"name":"","type":"address","internalType":"address"}],"stateMutability":"view"},{"type":"function","name":"renounceOwnership","inputs":[],"outputs":[],"stateMutability":"nonpayable"},{"type":"function","name":"safeTransferFrom","inputs":[{"name":"from","type":"address","internalType":"address"},{"name":"to","type":"address","internalType":"address"},{"name":"tokenId","type":"uint256","internalType":"uint256"}],"outputs":[],"stateMutability":"nonpayable"},{"type":"function","name":"safeTransferFrom","inputs":[{"name":"from","type":"address","internalType":"address"},{"name":"to","type":"address","internalType":"address"},{"name":"tokenId","type":"uint256","internalType":"uint256"},{"name":"data","type":"bytes","internalType":"bytes"}],"outputs":[],"stateMutability":"nonpayable"},{"type":"function","name":"setApprovalForAll","inputs":[{"name":"operator","type":"address","internalType":"address"},{"name":"approved","type":"bool","internalType":"bool"}],"outputs":[],"stateMutability":"nonpayable"},{"type":"function","name":"supportsInterface","inputs":[{"name":"interfaceId","type":"bytes4","internalType":"bytes4"}],"outputs":[{"name":"","type":"bool","internalType":"bool"}],"stateMutability":"view"},{"type":"function","name":"symbol","inputs":[],"outputs":[{"name":"","type":"string","internalType":"string"}],"stateMutability":"view"},{"type":"function","name":"tokenURI","inputs":[{"name":"tokenId","type":"uint256","internalType":"uint256"}],"outputs":[{"name":"","type":"string","internalType":"string"}],"stateMutability":"view"},{"type":"function","name":"transferFrom","inputs":[{"name":"from","type":"address","internalType":"address"},{"name":"to","type":"address","internalType":"address"},{"name":"tokenId","type":"uint256","internalType":"uint256"}],"outputs":[],"stateMutability":"nonpayable"},{"type":"function","name":"transferOwnership","inputs":[{"name":"newOwner","type":"address","internalType":"address"}],"outputs":[],"stateMutability":"nonpayable"},{"type":"event","name":"Approval","inputs":[{"name":"owner","type":"address","indexed":true,"internalType":"address"},{"name":"approved","type":"address","indexed":true,"internalType":"address"},{"name":"tokenId","type":"uint256","indexed":true,"internalType":"uint256"}],"anonymous":false},{"type":"event","name":"ApprovalForAll","inputs":[{"name":"owner","type":"address","indexed":true,"internalType":"address"},{"name":"operator","type":"address","indexed":true,"internalType":"address"},{"name":"approved","type":"bool","indexed":false,"internalType":"bool"}],"anonymous":false},{"type":"event","name":"BatchMetadataUpdate","inputs":[{"name":"_fromTokenId","type":"uint256","indexed":false,"internalType":"uint256"},{"name":"_toTokenId","type":"uint256","indexed":false,"internalType":"uint256"}],"anonymous":false},{"type":"event","name":"MetadataUpdate","inputs":[{"name":"_tokenId","type":"uint256","indexed":false,"internalType":"uint256"}],"anonymous":false},{"type":"event","name":"OwnershipTransferred","inputs":[{"name":"previousOwner","type":"address","indexed":true,"internalType":"address"},{"name":"newOwner","type":"address","indexed":true,"internalType":"address"}],"anonymous":false},{"type":"event","name":"Transfer","inputs":[{"name":"from","type":"address","indexed":true,"internalType":"address"},{"name":"to","type":"address","indexed":true,"internalType":"address"},{"name":"tokenId","type":"uint256","indexed":true,"internalType":"uint256"}],"anonymous":false},{"type":"error","name":"ERC721IncorrectOwner","inputs":[{"name":"sender","type":"address","internalType":"address"},{"name":"tokenId","type":"uint256","internalType":"uint256"},{"name":"owner","type":"address","internalType":"address"}]},{"type":"error","name":"ERC721InsufficientApproval","inputs":[{"name":"operator","type":"address","internalType":"address"},{"name":"tokenId","type":"uint256","internalType":"uint256"}]},{"type":"error","name":"ERC721InvalidApprover","inputs":[{"name":"approver","type":"address","internalType":"address"}]},{"type":"error","name":"ERC721InvalidOperator","inputs":[{"name":"operator","type":"address","internalType":"address"}]},{"type":"error","name":"ERC721InvalidOwner","inputs":[{"name":"owner","type":"address","internalType":"address"}]},{"type":"error","name":"ERC721InvalidReceiver","inputs":[{"name":"receiver","type":"address","internalType":"address"}]},{"type":"error","name":"ERC721InvalidSender","inputs":[{"name":"sender","type":"address","internalType":"address"}]},{"type":"error","name":"ERC721NonexistentToken","inputs":[{"name":"tokenId","type":"uint256","internalType":"uint256"}]},{"type":"error","name":"OwnableInvalidOwner","inputs":[{"name":"owner","type":"address","internalType":"address"}]},{"type":"error","name":"OwnableUnauthorizedAccount","inputs":[{"name":"account","type":"address","internalType":"address"}]}],"bytecode":{"object":"0x608060405234801561001057600080fd5b50336040518060400160405280600e81526020016d4e46544d61726b6574706c61636560901b815250604051806040016040528060048152602001634e46544d60e01b815250816000908161006591906101a3565b50600161007282826101a3565b5050506001600160a01b0381166100a357604051631e4fbdf760e01b81526000600482015260240160405180910390fd5b6100ac816100b2565b50610261565b600780546001600160a01b038381166001600160a01b0319831681179093556040519116919082907f8be0079c531659141344cd1fd0a4f28419497f9722a3daafe3b4186f6b6457e090600090a35050565b634e487b7160e01b600052604160045260246000fd5b600181811c9082168061012e57607f821691505b60208210810361014e57634e487b7160e01b600052602260045260246000fd5b50919050565b601f82111561019e57806000526020600020601f840160051c8101602085101561017b5750805b601f840160051c820191505b8181101561019b5760008155600101610187565b50505b505050565b81516001600160401b038111156101bc576101bc610104565b6101d0816101ca845461011a565b84610154565b6020601f82116001811461020457600083156101ec5750848201515b600019600385901b1c1916600184901b17845561019b565b600084815260208120601f198516915b828110156102345787850151825560209485019460019092019101610214565b50848210156102525786840151600019600387901b60f8161c191681555b50505050600190811b01905550565b6113dd806102706000396000f3fe608060405234801561001057600080fd5b506004361061010b5760003560e01c8063715018a6116100a2578063b88d4fde11610071578063b88d4fde1461021b578063c87b56dd1461022e578063da2ed03e14610241578063e985e9c514610254578063f2fde38b1461026757600080fd5b8063715018a6146101e75780638da5cb5b146101ef57806395d89b4114610200578063a22cb4651461020857600080fd5b806323b872dd116100de57806323b872dd1461018d57806342842e0e146101a05780636352211e146101b357806370a08231146101c657600080fd5b806301ffc9a71461011057806306fdde0314610138578063081812fc1461014d578063095ea7b314610178575b600080fd5b61012361011e366004610ec7565b61027a565b60405190151581526020015b60405180910390f35b6101406102a5565b60405161012f9190610f34565b61016061015b366004610f47565b610337565b6040516001600160a01b03909116815260200161012f565b61018b610186366004610f77565b610360565b005b61018b61019b366004610fa1565b61036f565b61018b6101ae366004610fa1565b6103ff565b6101606101c1366004610f47565b61041f565b6101d96101d4366004610fde565b61042a565b60405190815260200161012f565b61018b610472565b6007546001600160a01b0316610160565b610140610486565b61018b610216366004610ff9565b610495565b61018b6102293660046110c5565b6104a0565b61014061023c366004610f47565b6104b8565b6101d961024f366004611141565b6105c9565b61012361026236600461118a565b61060b565b61018b610275366004610fde565b610639565b60006001600160e01b03198216632483248360e11b148061029f575061029f82610677565b92915050565b6060600080546102b4906111bd565b80601f01602080910402602001604051908101604052809291908181526020018280546102e0906111bd565b801561032d5780601f106103025761010080835404028352916020019161032d565b820191906000526020600020905b81548152906001019060200180831161031057829003601f168201915b5050505050905090565b6000610342826106c7565b506000828152600460205260409020546001600160a01b031661029f565b61036b828233610700565b5050565b6001600160a01b03821661039e57604051633250574960e11b8152600060048201526024015b60405180910390fd5b60006103ab83833361070d565b9050836001600160a01b0316816001600160a01b0316146103f9576040516364283d7b60e01b81526001600160a01b0380861660048301526024820184905282166044820152606401610395565b50505050565b61041a838383604051806020016040528060008152506104a0565b505050565b600061029f826106c7565b60006001600160a01b038216610456576040516322718ad960e21b815260006004820152602401610395565b506001600160a01b031660009081526003602052604090205490565b61047a610806565b6104846000610833565b565b6060600180546102b4906111bd565b61036b338383610885565b6104ab84848461036f565b6103f93385858585610924565b60606104c3826106c7565b50600082815260066020526040812080546104dd906111bd565b80601f0160208091040260200160405190810160405280929190818152602001828054610509906111bd565b80156105565780601f1061052b57610100808354040283529160200191610556565b820191906000526020600020905b81548152906001019060200180831161053957829003601f168201915b50505050509050600061057460408051602081019091526000815290565b90508051600003610586575092915050565b8151156105b85780826040516020016105a09291906111f7565b60405160208183030381529060405292505050919050565b6105c184610a4f565b949350505050565b60006105d3610806565b6008546105e03382610ac4565b6105ea8184610b29565b6001600860008282546105fd9190611226565b90915550909150505b919050565b6001600160a01b03918216600090815260056020908152604080832093909416825291909152205460ff1690565b610641610806565b6001600160a01b03811661066b57604051631e4fbdf760e01b815260006004820152602401610395565b61067481610833565b50565b60006001600160e01b031982166380ac58cd60e01b14806106a857506001600160e01b03198216635b5e139f60e01b145b8061029f57506301ffc9a760e01b6001600160e01b031983161461029f565b6000818152600260205260408120546001600160a01b03168061029f57604051637e27328960e01b815260048101849052602401610395565b61041a8383836001610b79565b6000828152600260205260408120546001600160a01b039081169083161561073a5761073a818486610c7f565b6001600160a01b0381161561077857610757600085600080610b79565b6001600160a01b038116600090815260036020526040902080546000190190555b6001600160a01b038516156107a7576001600160a01b0385166000908152600360205260409020805460010190555b60008481526002602052604080822080546001600160a01b0319166001600160a01b0389811691821790925591518793918516917fddf252ad1be2c89b69c2b068fc378daa952ba7f163c4a11628f55a4df523b3ef91a4949350505050565b6007546001600160a01b031633146104845760405163118cdaa760e01b8152336004820152602401610395565b600780546001600160a01b038381166001600160a01b0319831681179093556040519116919082907f8be0079c531659141344cd1fd0a4f28419497f9722a3daafe3b4186f6b6457e090600090a35050565b6001600160a01b0382166108b757604051630b61174360e31b81526001600160a01b0383166004820152602401610395565b6001600160a01b03838116600081815260056020908152604080832094871680845294825291829020805460ff191686151590811790915591519182527f17307eab39ab6107e8899845ad3d59bd9653f200f220920489ca2b5937696c31910160405180910390a3505050565b6001600160a01b0383163b15610a4857604051630a85bd0160e11b81526001600160a01b0384169063150b7a0290610966908890889087908790600401611247565b6020604051808303816000875af19250505080156109a1575060408051601f3d908101601f1916820190925261099e91810190611284565b60015b610a0a573d8080156109cf576040519150601f19603f3d011682016040523d82523d6000602084013e6109d4565b606091505b508051600003610a0257604051633250574960e11b81526001600160a01b0385166004820152602401610395565b805181602001fd5b6001600160e01b03198116630a85bd0160e11b14610a4657604051633250574960e11b81526001600160a01b0385166004820152602401610395565b505b5050505050565b6060610a5a826106c7565b506000610a7260408051602081019091526000815290565b90506000815111610a925760405180602001604052806000815250610abd565b80610a9c84610ce3565b604051602001610aad9291906111f7565b6040516020818303038152906040525b9392505050565b6001600160a01b038216610aee57604051633250574960e11b815260006004820152602401610395565b6000610afc8383600061070d565b90506001600160a01b0381161561041a576040516339e3563760e11b815260006004820152602401610395565b6000828152600660205260409020610b4182826112e8565b506040518281527ff8e1a15aba9398e019f0b49df1a4fde98ee17ae345cb5f6b5e2c27f5033e8ce79060200160405180910390a15050565b8080610b8d57506001600160a01b03821615155b15610c4f576000610b9d846106c7565b90506001600160a01b03831615801590610bc95750826001600160a01b0316816001600160a01b031614155b8015610bdc5750610bda818461060b565b155b15610c055760405163a9fbf51f60e01b81526001600160a01b0384166004820152602401610395565b8115610c4d5783856001600160a01b0316826001600160a01b03167f8c5be1e5ebec7d5bd14f71427d1e84f3dd0314c0f7b2291e5b200ac8c7c3b92560405160405180910390a45b505b5050600090815260046020526040902080546001600160a01b0319166001600160a01b0392909216919091179055565b610c8a838383610d76565b61041a576001600160a01b038316610cb857604051637e27328960e01b815260048101829052602401610395565b60405163177e802f60e01b81526001600160a01b038316600482015260248101829052604401610395565b60606000610cf083610dd9565b600101905060008167ffffffffffffffff811115610d1057610d10611035565b6040519080825280601f01601f191660200182016040528015610d3a576020820181803683370190505b5090508181016020015b600019016f181899199a1a9b1b9c1cb0b131b232b360811b600a86061a8153600a8504945084610d4457509392505050565b60006001600160a01b038316158015906105c15750826001600160a01b0316846001600160a01b03161480610db05750610db0848461060b565b806105c15750506000908152600460205260409020546001600160a01b03908116911614919050565b60008072184f03e93ff9f4daa797ed6e38ed64bf6a1f0160401b8310610e185772184f03e93ff9f4daa797ed6e38ed64bf6a1f0160401b830492506040015b6d04ee2d6d415b85acef81000000008310610e44576d04ee2d6d415b85acef8100000000830492506020015b662386f26fc100008310610e6257662386f26fc10000830492506010015b6305f5e1008310610e7a576305f5e100830492506008015b6127108310610e8e57612710830492506004015b60648310610ea0576064830492506002015b600a831061029f5760010192915050565b6001600160e01b03198116811461067457600080fd5b600060208284031215610ed957600080fd5b8135610abd81610eb1565b60005b83811015610eff578181015183820152602001610ee7565b50506000910152565b60008151808452610f20816020860160208601610ee4565b601f01601f19169290920160200192915050565b602081526000610abd6020830184610f08565b600060208284031215610f5957600080fd5b5035919050565b80356001600160a01b038116811461060657600080fd5b60008060408385031215610f8a57600080fd5b610f9383610f60565b946020939093013593505050565b600080600060608486031215610fb657600080fd5b610fbf84610f60565b9250610fcd60208501610f60565b929592945050506040919091013590565b600060208284031215610ff057600080fd5b610abd82610f60565b6000806040838503121561100c57600080fd5b61101583610f60565b91506020830135801515811461102a57600080fd5b809150509250929050565b634e487b7160e01b600052604160045260246000fd5b60008067ffffffffffffffff84111561106657611066611035565b50604051601f19601f85018116603f0116810181811067ffffffffffffffff8211171561109557611095611035565b6040528381529050808284018510156110ad57600080fd5b83836020830137600060208583010152509392505050565b600080600080608085870312156110db57600080fd5b6110e485610f60565b93506110f260208601610f60565b925060408501359150606085013567ffffffffffffffff81111561111557600080fd5b8501601f8101871361112657600080fd5b6111358782356020840161104b565b91505092959194509250565b60006020828403121561115357600080fd5b813567ffffffffffffffff81111561116a57600080fd5b8201601f8101841361117b57600080fd5b6105c18482356020840161104b565b6000806040838503121561119d57600080fd5b6111a683610f60565b91506111b460208401610f60565b90509250929050565b600181811c908216806111d157607f821691505b6020821081036111f157634e487b7160e01b600052602260045260246000fd5b50919050565b60008351611209818460208801610ee4565b83519083019061121d818360208801610ee4565b01949350505050565b8082018082111561029f57634e487b7160e01b600052601160045260246000fd5b6001600160a01b038581168252841660208201526040810183905260806060820181905260009061127a90830184610f08565b9695505050505050565b60006020828403121561129657600080fd5b8151610abd81610eb1565b601f82111561041a57806000526020600020601f840160051c810160208510156112c85750805b601f840160051c820191505b81811015610a4857600081556001016112d4565b815167ffffffffffffffff81111561130257611302611035565b6113168161131084546111bd565b846112a1565b6020601f82116001811461134a57600083156113325750848201515b600019600385901b1c1916600184901b178455610a48565b600084815260208120601f198516915b8281101561137a578785015182556020948501946001909201910161135a565b50848210156113985786840151600019600387901b60f8161c191681555b50505050600190811b0190555056fea2646970667358221220b022205592ec670633a236166438857ac2a997f0c7a3a858ba052d28f036a32a64736f6c634300081a0033","linkReferences":{}},"methodIdentifiers":{"approve(address,uint256)":"095ea7b3","balanceOf(address)":"70a08231","createNFT(string)":"da2ed03e","getApproved(uint256)":"081812fc","isApprovedForAll(address,address)":"e985e9c5","name()":"06fdde03","owner()":"8da5cb5b","ownerOf(uint256)":"6352211e","renounceOwnership()":"715018a6","safeTransferFrom(address,address,uint256)":"42842e0e","safeTransferFrom(address,address,uint256,bytes)":"b88d4fde","setApprovalForAll(address,bool)":"a22cb465","supportsInterface(bytes4)":"01ffc9a7","symbol()":"95d89b41","tokenURI(uint256)":"c87b56dd","transferFrom(address,address,uint256)":"23b872dd","transferOwnership(address)":"f2fde38b"},"id":45}