{"abi":[{"type":"constructor","inputs":[],"stateMutability":"nonpayable"},{"type":"function","name":"createCollection","inputs":[{"name":"name","type":"string","internalType":"string"},{"name":"symbol","type":"string","internalType":"string"},{"name":"paymentHandlerAddress","type":"address","internalType":"address"}],"outputs":[],"stateMutability":"nonpayable"},{"type":"function","name":"getCollections","inputs":[],"outputs":[{"name":"","type":"address[]","internalType":"address[]"}],"stateMutability":"view"},{"type":"function","name":"nftCollections","inputs":[{"name":"","type":"uint256","internalType":"uint256"}],"outputs":[{"name":"","type":"address","internalType":"address"}],"stateMutability":"view"},{"type":"function","name":"owner","inputs":[],"outputs":[{"name":"","type":"address","internalType":"address"}],"stateMutability":"view"},{"type":"function","name":"renounceOwnership","inputs":[],"outputs":[],"stateMutability":"nonpayable"},{"type":"function","name":"transferOwnership","inputs":[{"name":"newOwner","type":"address","internalType":"address"}],"outputs":[],"stateMutability":"nonpayable"},{"type":"event","name":"CollectionCreated","inputs":[{"name":"owner","type":"address","indexed":true,"internalType":"address"},{"name":"collection","type":"address","indexed":false,"internalType":"address"}],"anonymous":false},{"type":"event","name":"OwnershipTransferred","inputs":[{"name":"previousOwner","type":"address","indexed":true,"internalType":"address"},{"name":"newOwner","type":"address","indexed":true,"internalType":"address"}],"anonymous":false},{"type":"error","name":"OwnableInvalidOwner","inputs":[{"name":"owner","type":"address","internalType":"address"}]},{"type":"error","name":"OwnableUnauthorizedAccount","inputs":[{"name":"account","type":"address","internalType":"address"}]}],"bytecode":{"object":"0x6080604052348015600e575f80fd5b503380603357604051631e4fbdf760e01b81525f600482015260240160405180910390fd5b603a81603f565b50608e565b5f80546001600160a01b038381166001600160a01b0319831681178455604051919092169283917f8be0079c531659141344cd1fd0a4f28419497f9722a3daafe3b4186f6b6457e09190a35050565b612dd98061009b5f395ff3fe608060405234801561000f575f80fd5b5060043610610060575f3560e01c806346e6358614610064578063715018a6146100825780638da5cb5b1461008c578063bfca66c9146100b0578063d0ae65db146100c3578063f2fde38b146100d6575b5f80fd5b61006c6100e9565b6040516100799190610318565b60405180910390f35b61008a610149565b005b5f546001600160a01b03165b6040516001600160a01b039091168152602001610079565b6100986100be366004610363565b61015c565b61008a6100d1366004610434565b610184565b61008a6100e43660046104a8565b61024e565b6060600180548060200260200160405190810160405280929190818152602001828054801561013f57602002820191905f5260205f20905b81546001600160a01b03168152600190910190602001808311610121575b5050505050905090565b610151610290565b61015a5f6102bc565b565b6001818154811061016b575f80fd5b5f918252602090912001546001600160a01b0316905081565b61018c610290565b5f8383338460405161019d9061030b565b6101aa94939291906104f6565b604051809103905ff0801580156101c3573d5f803e3d5ffd5b506001805480820182555f919091527fb10e2d527612073b26eecdfd717e6a320cf44b4afac2b0732d9fcbe2b7fa0cf60180546001600160a01b0319166001600160a01b03831690811790915560405190815290915033907f5d0de243db1669e3a7056744cd715c625f0c1c348736c2c2d53d0ddebff1a6c79060200160405180910390a250505050565b610256610290565b6001600160a01b03811661028457604051631e4fbdf760e01b81525f60048201526024015b60405180910390fd5b61028d816102bc565b50565b5f546001600160a01b0316331461015a5760405163118cdaa760e01b815233600482015260240161027b565b5f80546001600160a01b038381166001600160a01b0319831681178455604051919092169283917f8be0079c531659141344cd1fd0a4f28419497f9722a3daafe3b4186f6b6457e09190a35050565b6128648061054083390190565b602080825282518282018190525f918401906040840190835b818110156103585783516001600160a01b0316835260209384019390920191600101610331565b509095945050505050565b5f60208284031215610373575f80fd5b5035919050565b634e487b7160e01b5f52604160045260245ffd5b5f82601f83011261039d575f80fd5b813567ffffffffffffffff8111156103b7576103b761037a565b604051601f8201601f19908116603f0116810167ffffffffffffffff811182821017156103e6576103e661037a565b6040528181528382016020018510156103fd575f80fd5b816020850160208301375f918101602001919091529392505050565b80356001600160a01b038116811461042f575f80fd5b919050565b5f805f60608486031215610446575f80fd5b833567ffffffffffffffff81111561045c575f80fd5b6104688682870161038e565b935050602084013567ffffffffffffffff811115610484575f80fd5b6104908682870161038e565b92505061049f60408501610419565b90509250925092565b5f602082840312156104b8575f80fd5b6104c182610419565b9392505050565b5f81518084528060208401602086015e5f602082860101526020601f19601f83011685010191505092915050565b608081525f61050860808301876104c8565b828103602084015261051a81876104c8565b6001600160a01b0395861660408501529390941660609092019190915250939250505056fe608060405234801561000f575f80fd5b5060405161286438038061286483398101604081905261002e916101b9565b8184845f61003c83826102c2565b50600161004982826102c2565b5050506001600160a01b03811661007957604051631e4fbdf760e01b81525f600482015260240160405180910390fd5b610082816100b0565b505f600855600980546001600160a01b0319166001600160a01b03929092169190911790555061037c915050565b600780546001600160a01b038381166001600160a01b0319831681179093556040519116919082907f8be0079c531659141344cd1fd0a4f28419497f9722a3daafe3b4186f6b6457e0905f90a35050565b634e487b7160e01b5f52604160045260245ffd5b5f82601f830112610124575f80fd5b81516001600160401b0381111561013d5761013d610101565b604051601f8201601f19908116603f011681016001600160401b038111828210171561016b5761016b610101565b604052818152838201602001851015610182575f80fd5b8160208501602083015e5f918101602001919091529392505050565b80516001600160a01b03811681146101b4575f80fd5b919050565b5f805f80608085870312156101cc575f80fd5b84516001600160401b038111156101e1575f80fd5b6101ed87828801610115565b602087015190955090506001600160401b0381111561020a575f80fd5b61021687828801610115565b9350506102256040860161019e565b91506102336060860161019e565b905092959194509250565b600181811c9082168061025257607f821691505b60208210810361027057634e487b7160e01b5f52602260045260245ffd5b50919050565b601f8211156102bd57805f5260205f20601f840160051c8101602085101561029b5750805b601f840160051c820191505b818110156102ba575f81556001016102a7565b50505b505050565b81516001600160401b038111156102db576102db610101565b6102ef816102e9845461023e565b84610276565b6020601f821160018114610321575f831561030a5750848201515b5f19600385901b1c1916600184901b1784556102ba565b5f84815260208120601f198516915b828110156103505787850151825560209485019460019092019101610330565b508482101561036d57868401515f19600387901b60f8161c191681555b50505050600190811b01905550565b6124db806103895f395ff3fe60806040526004361061017a575f3560e01c80638da5cb5b116100cd578063c92081bb11610087578063df47037911610062578063df470379146104c2578063e8d9b52f146104d5578063e985e9c5146104f4578063f2fde38b14610513575f80fd5b8063c92081bb1461046f578063cdd5bd211461048e578063d082e381146104ad575f80fd5b80638da5cb5b146103c257806395d89b41146103df578063a22cb465146103f3578063b6f70e7614610412578063b88d4fde14610431578063c87b56dd14610450575f80fd5b806323b872dd11610138578063628213961161011357806362821396146103325780636352211e1461036257806370a0823114610381578063715018a6146103ae575f80fd5b806323b872dd146102d25780633f0e317b146102f157806342842e0e14610313575f80fd5b806216fdb61461017e57806301ffc9a71461020b57806306fdde031461023a578063081812fc1461025b578063095ea7b314610292578063150bde03146102b3575b5f80fd5b348015610189575f80fd5b506101d2610198366004611ddb565b600b6020525f90815260409020805460018201546002830154600384015460049094015492936001600160a01b0392831693929091169185565b604080519586526001600160a01b03948516602087015292909316918401919091526060830152608082015260a0015b60405180910390f35b348015610216575f80fd5b5061022a610225366004611e07565b610532565b6040519015158152602001610202565b348015610245575f80fd5b5061024e61055c565b6040516102029190611e50565b348015610266575f80fd5b5061027a610275366004611ddb565b6105eb565b6040516001600160a01b039091168152602001610202565b34801561029d575f80fd5b506102b16102ac366004611e7d565b610612565b005b3480156102be575f80fd5b506102b16102cd366004611ddb565b610621565b3480156102dd575f80fd5b506102b16102ec366004611ea5565b6108b5565b3480156102fc575f80fd5b5061030561093e565b604051610202929190611f54565b34801561031e575f80fd5b506102b161032d366004611ea5565b610c33565b34801561033d575f80fd5b5061035161034c366004611ddb565b610c52565b604051610202959493929190612010565b34801561036d575f80fd5b5061027a61037c366004611ddb565b610d1a565b34801561038c575f80fd5b506103a061039b366004612056565b610d24565b604051908152602001610202565b3480156103b9575f80fd5b506102b1610d69565b3480156103cd575f80fd5b506007546001600160a01b031661027a565b3480156103ea575f80fd5b5061024e610d7c565b3480156103fe575f80fd5b506102b161040d36600461206f565b610d8b565b34801561041d575f80fd5b506103a061042c366004611ddb565b610d96565b34801561043c575f80fd5b506102b161044b366004612133565b610db5565b34801561045b575f80fd5b5061024e61046a366004611ddb565b610dcd565b34801561047a575f80fd5b506103a06104893660046121aa565b610ed8565b348015610499575f80fd5b5060095461027a906001600160a01b031681565b3480156104b8575f80fd5b506103a060085481565b6102b16104d0366004612200565b61101b565b3480156104e0575f80fd5b506102b16104ef366004612220565b61131d565b3480156104ff575f80fd5b5061022a61050e366004612256565b611479565b34801561051e575f80fd5b506102b161052d366004612056565b6114a6565b5f6001600160e01b03198216632483248360e11b14806105565750610556826114e3565b92915050565b60605f805461056a90612287565b80601f016020809104026020016040519081016040528092919081815260200182805461059690612287565b80156105e15780601f106105b8576101008083540402835291602001916105e1565b820191905f5260205f20905b8154815290600101906020018083116105c457829003601f168201915b5050505050905090565b5f6105f582611532565b505f828152600460205260409020546001600160a01b0316610556565b61061d82823361156a565b5050565b5f818152600a60209081526040808320815160a0810183528154815260018201546001600160a01b031693810193909352600281018054919284019161066690612287565b80601f016020809104026020016040519081016040528092919081815260200182805461069290612287565b80156106dd5780601f106106b4576101008083540402835291602001916106dd565b820191905f5260205f20905b8154815290600101906020018083116106c057829003601f168201915b505050918352505060038201546001600160a01b0390811660208084019190915260049093015460409092019190915290820151919250339116036107755760405162461bcd60e51b815260206004820152602360248201527f4f776e65722063616e6e6f74207075726368617365207468656972206f776e2060448201526213919560ea1b60648201526084015b60405180910390fd5b6009546020820151604051633406129360e01b8152600481018590523360248201526001600160a01b0391821660448201529116906334061293906064015f604051808303815f87803b1580156107ca575f80fd5b505af11580156107dc573d5f803e3d5ffd5b505050506107ef81602001513384611577565b3360208281019182525f848152600a9091526040908190208351815591516001830180546001600160a01b0319166001600160a01b0390921691909117905582015182919060028201906108439082612303565b5060608201516003820180546001600160a01b0319166001600160a01b03909216919091179055608090910151600490910155604080513381526001602082015283917fad546cba5af920bc2c64678bbd69f3d8965ac26d1b82f7ebf6f098aaa8335282910160405180910390a25050565b6001600160a01b0382166108de57604051633250574960e11b81525f600482015260240161076c565b5f6108ea838333611624565b9050836001600160a01b0316816001600160a01b031614610938576040516364283d7b60e01b81526001600160a01b038086166004830152602482018490528216604482015260640161076c565b50505050565b6060805f60085467ffffffffffffffff81111561095d5761095d6120a8565b6040519080825280602002602001820160405280156109ce57816020015b6109bb6040518060a001604052805f81526020015f6001600160a01b03168152602001606081526020015f6001600160a01b031681526020015f81525090565b81526020019060019003908161097b5790505b5090505f5b600854811015610aeb575f818152600a6020908152604091829020825160a0810184528154815260018201546001600160a01b0316928101929092526002810180549293919291840191610a2690612287565b80601f0160208091040260200160405190810160405280929190818152602001828054610a5290612287565b8015610a9d5780601f10610a7457610100808354040283529160200191610a9d565b820191905f5260205f20905b815481529060010190602001808311610a8057829003601f168201915b505050918352505060038201546001600160a01b031660208201526004909101546040909101528251839083908110610ad857610ad86123be565b60209081029190910101526001016109d3565b50600c545f9067ffffffffffffffff811115610b0957610b096120a8565b604051908082528060200260200182016040528015610b7957816020015b610b666040518060a001604052805f81526020015f6001600160a01b031681526020015f6001600160a01b031681526020015f81526020015f81525090565b815260200190600190039081610b275790505b5090505f5b600c54811015610c29575f600c8281548110610b9c57610b9c6123be565b5f918252602080832090910154808352600b8252604092839020835160a0810185528154815260018201546001600160a01b0390811694820194909452600282015490931693830193909352600383015460608301526004909201546080820152845191925090849084908110610c1557610c156123be565b602090810291909101015250600101610b7e565b5090939092509050565b610c4d83838360405180602001604052805f815250610db5565b505050565b600a6020525f908152604090208054600182015460028301805492936001600160a01b0390921692610c8390612287565b80601f0160208091040260200160405190810160405280929190818152602001828054610caf90612287565b8015610cfa5780601f10610cd157610100808354040283529160200191610cfa565b820191905f5260205f20905b815481529060010190602001808311610cdd57829003601f168201915b50505050600383015460049093015491926001600160a01b031691905085565b5f61055682611532565b5f6001600160a01b038216610d4e576040516322718ad960e21b81525f600482015260240161076c565b506001600160a01b03165f9081526003602052604090205490565b610d71611716565b610d7a5f611743565b565b60606001805461056a90612287565b61061d338383611794565b600c8181548110610da5575f80fd5b5f91825260209091200154905081565b610dc08484846108b5565b6109383385858585611832565b6060610dd882611532565b505f8281526006602052604081208054610df190612287565b80601f0160208091040260200160405190810160405280929190818152602001828054610e1d90612287565b8015610e685780601f10610e3f57610100808354040283529160200191610e68565b820191905f5260205f20905b815481529060010190602001808311610e4b57829003601f168201915b505050505090505f610e8460408051602081019091525f815290565b905080515f03610e95575092915050565b815115610ec7578082604051602001610eaf9291906123e9565b60405160208183030381529060405292505050919050565b610ed08461195a565b949350505050565b5f610ee1611716565b600854610eee33826119cb565b610ef881866119e4565b6040805160a0810182528281523360208083019182528284018981526001600160a01b038981166060860152608085018990525f878152600a909352949091208351815591516001830180546001600160a01b03191691909516179093559151909182916002820190610f6b9082612303565b5060608201516003820180546001600160a01b0319166001600160a01b039283161790556080909201516004918201556009546040516333936f3960e21b81529182018590528783166024830152604482018790529091169063ce4dbce4906064015f604051808303815f87803b158015610fe4575f80fd5b505af1158015610ff6573d5f803e3d5ffd5b50505050600160085f82825461100c9190612411565b90915550919695505050505050565b5f828152600b6020908152604091829020825160a0810184528154815260018201546001600160a01b0390811693820184905260028301541693810193909352600381015460608401526004015460808301526110b05760405162461bcd60e51b8152602060048201526013602482015272125d195b48191bd95cc81b9bdd08195e1a5cdd606a1b604482015260640161076c565b5f821180156110c3575080606001518211155b6111005760405162461bcd60e51b815260206004820152600e60248201526d125b9d985b1a5908185b5bdd5b9d60921b604482015260640161076c565b5f8282608001516111119190612424565b90508034101561115b5760405162461bcd60e51b8152602060048201526015602482015274125b9cdd59999a58da595b9d08115512081cd95b9d605a1b604482015260640161076c565b60408083015160208401519151637921219560e11b81526001600160a01b039283166004820152336024820152604481018790526064810186905260a060848201525f60a482015291169063f242432a9060c4015f604051808303815f87803b1580156111c6575f80fd5b505af11580156111d8573d5f803e3d5ffd5b505050508034111561121957336108fc6111f2833461243b565b6040518115909202915f818181858888f19350505050158015611217573d5f803e3d5ffd5b505b828260600181815161122b919061243b565b90525060608201515f03611279575f848152600b602052604081208181556001810180546001600160a01b0319908116909155600282018054909116905560038101829055600401556112dc565b5f848152600b602090815260409182902084518155908401516001820180546001600160a01b03199081166001600160a01b0393841617909155928501516002830180549094169116179091556060830151600382015560808301516004909101555b604080513381526020810185905285917fe803398184505dd9c9e1196566fca5fb48818e4d71e7fbaecfe68b4d2b2256d7910160405180910390a250505050565b611325611716565b6001600160a01b0384166113735760405162461bcd60e51b8152602060048201526015602482015274496e76616c696420746f6b656e206164647265737360581b604482015260640161076c565b5f82116113c25760405162461bcd60e51b815260206004820181905260248201527f416d6f756e74206d7573742062652067726561746572207468616e207a65726f604482015260640161076c565b6040805160a0810182528481523360208083019182526001600160a01b0397881683850190815260608401968752608084019586525f888152600b90925293812092518355905160018084018054928a166001600160a01b0319938416179055935160028401805491909916911617909655925160038401559051600490920191909155600c805491820181559092527fdf6966c971051c3d54ec59162606531493a51404a002842f56009d7e5cf4a8c790910155565b6001600160a01b039182165f90815260056020908152604080832093909416825291909152205460ff1690565b6114ae611716565b6001600160a01b0381166114d757604051631e4fbdf760e01b81525f600482015260240161076c565b6114e081611743565b50565b5f6001600160e01b031982166380ac58cd60e01b148061151357506001600160e01b03198216635b5e139f60e01b145b8061055657506301ffc9a760e01b6001600160e01b0319831614610556565b5f818152600260205260408120546001600160a01b03168061055657604051637e27328960e01b81526004810184905260240161076c565b610c4d8383836001611a33565b6001600160a01b0382166115a057604051633250574960e11b81525f600482015260240161076c565b5f6115ac83835f611624565b90506001600160a01b0381166115d857604051637e27328960e01b81526004810183905260240161076c565b836001600160a01b0316816001600160a01b031614610938576040516364283d7b60e01b81526001600160a01b038086166004830152602482018490528216604482015260640161076c565b5f828152600260205260408120546001600160a01b039081169083161561165057611650818486611b37565b6001600160a01b0381161561168a5761166b5f855f80611a33565b6001600160a01b0381165f90815260036020526040902080545f190190555b6001600160a01b038516156116b8576001600160a01b0385165f908152600360205260409020805460010190555b5f8481526002602052604080822080546001600160a01b0319166001600160a01b0389811691821790925591518793918516917fddf252ad1be2c89b69c2b068fc378daa952ba7f163c4a11628f55a4df523b3ef91a4949350505050565b6007546001600160a01b03163314610d7a5760405163118cdaa760e01b815233600482015260240161076c565b600780546001600160a01b038381166001600160a01b0319831681179093556040519116919082907f8be0079c531659141344cd1fd0a4f28419497f9722a3daafe3b4186f6b6457e0905f90a35050565b6001600160a01b0382166117c657604051630b61174360e31b81526001600160a01b038316600482015260240161076c565b6001600160a01b038381165f81815260056020908152604080832094871680845294825291829020805460ff191686151590811790915591519182527f17307eab39ab6107e8899845ad3d59bd9653f200f220920489ca2b5937696c31910160405180910390a3505050565b6001600160a01b0383163b1561195357604051630a85bd0160e11b81526001600160a01b0384169063150b7a029061187490889088908790879060040161244e565b6020604051808303815f875af19250505080156118ae575060408051601f3d908101601f191682019092526118ab9181019061248a565b60015b611915573d8080156118db576040519150601f19603f3d011682016040523d82523d5f602084013e6118e0565b606091505b5080515f0361190d57604051633250574960e11b81526001600160a01b038516600482015260240161076c565b805181602001fd5b6001600160e01b03198116630a85bd0160e11b1461195157604051633250574960e11b81526001600160a01b038516600482015260240161076c565b505b5050505050565b606061196582611532565b505f61197b60408051602081019091525f815290565b90505f8151116119995760405180602001604052805f8152506119c4565b806119a384611b9b565b6040516020016119b49291906123e9565b6040516020818303038152906040525b9392505050565b61061d828260405180602001604052805f815250611c2b565b5f8281526006602052604090206119fb8282612303565b506040518281527ff8e1a15aba9398e019f0b49df1a4fde98ee17ae345cb5f6b5e2c27f5033e8ce79060200160405180910390a15050565b8080611a4757506001600160a01b03821615155b15611b08575f611a5684611532565b90506001600160a01b03831615801590611a825750826001600160a01b0316816001600160a01b031614155b8015611a955750611a938184611479565b155b15611abe5760405163a9fbf51f60e01b81526001600160a01b038416600482015260240161076c565b8115611b065783856001600160a01b0316826001600160a01b03167f8c5be1e5ebec7d5bd14f71427d1e84f3dd0314c0f7b2291e5b200ac8c7c3b92560405160405180910390a45b505b50505f90815260046020526040902080546001600160a01b0319166001600160a01b0392909216919091179055565b611b42838383611c42565b610c4d576001600160a01b038316611b7057604051637e27328960e01b81526004810182905260240161076c565b60405163177e802f60e01b81526001600160a01b03831660048201526024810182905260440161076c565b60605f611ba783611ca3565b60010190505f8167ffffffffffffffff811115611bc657611bc66120a8565b6040519080825280601f01601f191660200182016040528015611bf0576020820181803683370190505b5090508181016020015b5f19016f181899199a1a9b1b9c1cb0b131b232b360811b600a86061a8153600a8504945084611bfa57509392505050565b611c358383611d7a565b610c4d335f858585611832565b5f6001600160a01b03831615801590610ed05750826001600160a01b0316846001600160a01b03161480611c7b5750611c7b8484611479565b80610ed05750505f908152600460205260409020546001600160a01b03908116911614919050565b5f8072184f03e93ff9f4daa797ed6e38ed64bf6a1f0160401b8310611ce15772184f03e93ff9f4daa797ed6e38ed64bf6a1f0160401b830492506040015b6d04ee2d6d415b85acef81000000008310611d0d576d04ee2d6d415b85acef8100000000830492506020015b662386f26fc100008310611d2b57662386f26fc10000830492506010015b6305f5e1008310611d43576305f5e100830492506008015b6127108310611d5757612710830492506004015b60648310611d69576064830492506002015b600a83106105565760010192915050565b6001600160a01b038216611da357604051633250574960e11b81525f600482015260240161076c565b5f611daf83835f611624565b90506001600160a01b03811615610c4d576040516339e3563760e11b81525f600482015260240161076c565b5f60208284031215611deb575f80fd5b5035919050565b6001600160e01b0319811681146114e0575f80fd5b5f60208284031215611e17575f80fd5b81356119c481611df2565b5f81518084528060208401602086015e5f602082860101526020601f19601f83011685010191505092915050565b602081525f6119c46020830184611e22565b80356001600160a01b0381168114611e78575f80fd5b919050565b5f8060408385031215611e8e575f80fd5b611e9783611e62565b946020939093013593505050565b5f805f60608486031215611eb7575f80fd5b611ec084611e62565b9250611ece60208501611e62565b929592945050506040919091013590565b5f8151808452602084019350602083015f5b82811015611f4a578151805187526020808201516001600160a01b03908116828a015260408084015190911690890152606080830151908901526080918201519188019190915260a09096019590910190600101611ef1565b5093949350505050565b5f604082016040835280855180835260608501915060608160051b8601019250602087015f5b82811015611ff157605f1987860301845281518051865260018060a01b036020820151166020870152604081015160a06040880152611fbc60a0880182611e22565b6060838101516001600160a01b0316908901526080928301519290970191909152506020938401939190910190600101611f7a565b5050505082810360208401526120078185611edf565b95945050505050565b8581526001600160a01b038516602082015260a0604082018190525f9061203990830186611e22565b6001600160a01b0394909416606083015250608001529392505050565b5f60208284031215612066575f80fd5b6119c482611e62565b5f8060408385031215612080575f80fd5b61208983611e62565b91506020830135801515811461209d575f80fd5b809150509250929050565b634e487b7160e01b5f52604160045260245ffd5b5f8067ffffffffffffffff8411156120d6576120d66120a8565b50604051601f19601f85018116603f0116810181811067ffffffffffffffff82111715612105576121056120a8565b60405283815290508082840185101561211c575f80fd5b838360208301375f60208583010152509392505050565b5f805f8060808587031215612146575f80fd5b61214f85611e62565b935061215d60208601611e62565b925060408501359150606085013567ffffffffffffffff81111561217f575f80fd5b8501601f8101871361218f575f80fd5b61219e878235602084016120bc565b91505092959194509250565b5f805f606084860312156121bc575f80fd5b833567ffffffffffffffff8111156121d2575f80fd5b8401601f810186136121e2575f80fd5b6121f1868235602084016120bc565b935050611ece60208501611e62565b5f8060408385031215612211575f80fd5b50508035926020909101359150565b5f805f8060808587031215612233575f80fd5b61223c85611e62565b966020860135965060408601359560600135945092505050565b5f8060408385031215612267575f80fd5b61227083611e62565b915061227e60208401611e62565b90509250929050565b600181811c9082168061229b57607f821691505b6020821081036122b957634e487b7160e01b5f52602260045260245ffd5b50919050565b601f821115610c4d57805f5260205f20601f840160051c810160208510156122e45750805b601f840160051c820191505b81811015611953575f81556001016122f0565b815167ffffffffffffffff81111561231d5761231d6120a8565b6123318161232b8454612287565b846122bf565b6020601f821160018114612363575f831561234c5750848201515b5f19600385901b1c1916600184901b178455611953565b5f84815260208120601f198516915b828110156123925787850151825560209485019460019092019101612372565b50848210156123af57868401515f19600387901b60f8161c191681555b50505050600190811b01905550565b634e487b7160e01b5f52603260045260245ffd5b5f81518060208401855e5f93019283525090919050565b5f610ed06123f783866123d2565b846123d2565b634e487b7160e01b5f52601160045260245ffd5b80820180821115610556576105566123fd565b8082028115828204841417610556576105566123fd565b81810381811115610556576105566123fd565b6001600160a01b03858116825284166020820152604081018390526080606082018190525f9061248090830184611e22565b9695505050505050565b5f6020828403121561249a575f80fd5b81516119c481611df256fea2646970667358221220005898ca9154b788312015f872b66b67b2d04dc72bebbf654210d364df553e3964736f6c634300081a0033a2646970667358221220b98c30bf08ded2a57debb6654d4ce94497df26cdabfb0321c1dbc41bb5caca5964736f6c634300081a0033","linkReferences":{}},"methodIdentifiers":{"createCollection(string,string,address)":"d0ae65db","getCollections()":"46e63586","nftCollections(uint256)":"bfca66c9","owner()":"8da5cb5b","renounceOwnership()":"715018a6","transferOwnership(address)":"f2fde38b"},"id":51}