{"abi":[{"type":"constructor","inputs":[{"name":"uri","type":"string","internalType":"string"},{"name":"initialOwner","type":"address","internalType":"address"},{"name":"initialTokenId","type":"uint256","internalType":"uint256"},{"name":"initialAmount","type":"uint256","internalType":"uint256"}],"stateMutability":"nonpayable"},{"type":"function","name":"balanceOf","inputs":[{"name":"account","type":"address","internalType":"address"},{"name":"id","type":"uint256","internalType":"uint256"}],"outputs":[{"name":"","type":"uint256","internalType":"uint256"}],"stateMutability":"view"},{"type":"function","name":"balanceOfBatch","inputs":[{"name":"accounts","type":"address[]","internalType":"address[]"},{"name":"ids","type":"uint256[]","internalType":"uint256[]"}],"outputs":[{"name":"","type":"uint256[]","internalType":"uint256[]"}],"stateMutability":"view"},{"type":"function","name":"isApprovedForAll","inputs":[{"name":"account","type":"address","internalType":"address"},{"name":"operator","type":"address","internalType":"address"}],"outputs":[{"name":"","type":"bool","internalType":"bool"}],"stateMutability":"view"},{"type":"function","name":"mint","inputs":[{"name":"to","type":"address","internalType":"address"},{"name":"id","type":"uint256","internalType":"uint256"},{"name":"amount","type":"uint256","internalType":"uint256"}],"outputs":[],"stateMutability":"nonpayable"},{"type":"function","name":"owner","inputs":[],"outputs":[{"name":"","type":"address","internalType":"address"}],"stateMutability":"view"},{"type":"function","name":"renounceOwnership","inputs":[],"outputs":[],"stateMutability":"nonpayable"},{"type":"function","name":"safeBatchTransferFrom","inputs":[{"name":"from","type":"address","internalType":"address"},{"name":"to","type":"address","internalType":"address"},{"name":"ids","type":"uint256[]","internalType":"uint256[]"},{"name":"values","type":"uint256[]","internalType":"uint256[]"},{"name":"data","type":"bytes","internalType":"bytes"}],"outputs":[],"stateMutability":"nonpayable"},{"type":"function","name":"safeTransferFrom","inputs":[{"name":"from","type":"address","internalType":"address"},{"name":"to","type":"address","internalType":"address"},{"name":"id","type":"uint256","internalType":"uint256"},{"name":"value","type":"uint256","internalType":"uint256"},{"name":"data","type":"bytes","internalType":"bytes"}],"outputs":[],"stateMutability":"nonpayable"},{"type":"function","name":"setApprovalForAll","inputs":[{"name":"operator","type":"address","internalType":"address"},{"name":"approved","type":"bool","internalType":"bool"}],"outputs":[],"stateMutability":"nonpayable"},{"type":"function","name":"supportsInterface","inputs":[{"name":"interfaceId","type":"bytes4","internalType":"bytes4"}],"outputs":[{"name":"","type":"bool","internalType":"bool"}],"stateMutability":"view"},{"type":"function","name":"transferOwnership","inputs":[{"name":"newOwner","type":"address","internalType":"address"}],"outputs":[],"stateMutability":"nonpayable"},{"type":"function","name":"uri","inputs":[{"name":"","type":"uint256","internalType":"uint256"}],"outputs":[{"name":"","type":"string","internalType":"string"}],"stateMutability":"view"},{"type":"event","name":"ApprovalForAll","inputs":[{"name":"account","type":"address","indexed":true,"internalType":"address"},{"name":"operator","type":"address","indexed":true,"internalType":"address"},{"name":"approved","type":"bool","indexed":false,"internalType":"bool"}],"anonymous":false},{"type":"event","name":"OwnershipTransferred","inputs":[{"name":"previousOwner","type":"address","indexed":true,"internalType":"address"},{"name":"newOwner","type":"address","indexed":true,"internalType":"address"}],"anonymous":false},{"type":"event","name":"TransferBatch","inputs":[{"name":"operator","type":"address","indexed":true,"internalType":"address"},{"name":"from","type":"address","indexed":true,"internalType":"address"},{"name":"to","type":"address","indexed":true,"internalType":"address"},{"name":"ids","type":"uint256[]","indexed":false,"internalType":"uint256[]"},{"name":"values","type":"uint256[]","indexed":false,"internalType":"uint256[]"}],"anonymous":false},{"type":"event","name":"TransferSingle","inputs":[{"name":"operator","type":"address","indexed":true,"internalType":"address"},{"name":"from","type":"address","indexed":true,"internalType":"address"},{"name":"to","type":"address","indexed":true,"internalType":"address"},{"name":"id","type":"uint256","indexed":false,"internalType":"uint256"},{"name":"value","type":"uint256","indexed":false,"internalType":"uint256"}],"anonymous":false},{"type":"event","name":"URI","inputs":[{"name":"value","type":"string","indexed":false,"internalType":"string"},{"name":"id","type":"uint256","indexed":true,"internalType":"uint256"}],"anonymous":false},{"type":"error","name":"ERC1155InsufficientBalance","inputs":[{"name":"sender","type":"address","internalType":"address"},{"name":"balance","type":"uint256","internalType":"uint256"},{"name":"needed","type":"uint256","internalType":"uint256"},{"name":"tokenId","type":"uint256","internalType":"uint256"}]},{"type":"error","name":"ERC1155InvalidApprover","inputs":[{"name":"approver","type":"address","internalType":"address"}]},{"type":"error","name":"ERC1155InvalidArrayLength","inputs":[{"name":"idsLength","type":"uint256","internalType":"uint256"},{"name":"valuesLength","type":"uint256","internalType":"uint256"}]},{"type":"error","name":"ERC1155InvalidOperator","inputs":[{"name":"operator","type":"address","internalType":"address"}]},{"type":"error","name":"ERC1155InvalidReceiver","inputs":[{"name":"receiver","type":"address","internalType":"address"}]},{"type":"error","name":"ERC1155InvalidSender","inputs":[{"name":"sender","type":"address","internalType":"address"}]},{"type":"error","name":"ERC1155MissingApprovalForAll","inputs":[{"name":"operator","type":"address","internalType":"address"},{"name":"owner","type":"address","internalType":"address"}]},{"type":"error","name":"OwnableInvalidOwner","inputs":[{"name":"owner","type":"address","internalType":"address"}]},{"type":"error","name":"OwnableUnauthorizedAccount","inputs":[{"name":"account","type":"address","internalType":"address"}]}],"bytecode":{"object":"0x608060405234801561000f575f80fd5b50604051611bf4380380611bf483398101604081905261002e91610608565b33846100398161009b565b506001600160a01b03811661006857604051631e4fbdf760e01b81525f60048201526024015b60405180910390fd5b610071816100ab565b5061009283838360405180602001604052805f8152506100fc60201b60201c565b5050505061099c565b60026100a78282610759565b5050565b600380546001600160a01b038381166001600160a01b0319831681179093556040519116919082907f8be0079c531659141344cd1fd0a4f28419497f9722a3daafe3b4186f6b6457e0905f90a35050565b6001600160a01b03841661012557604051632bfa23e760e11b81525f600482015260240161005f565b604080516001808252602082018690528183019081526060820185905260808201909252906101575f8784848761015f565b505050505050565b61016b858585856101b9565b6001600160a01b038416156101b257825133906001036101a4576020848101519084015161019d8389898585896103c8565b5050610157565b6101578187878787876104f2565b5050505050565b80518251146101e85781518151604051635b05999160e01b81526004810192909252602482015260440161005f565b335f5b83518110156102ea576020818102858101820151908501909101516001600160a01b0388161561029c575f828152602081815260408083206001600160a01b038c16845290915290205481811015610276576040516303dee4c560e01b81526001600160a01b038a16600482015260248101829052604481018390526064810184905260840161005f565b5f838152602081815260408083206001600160a01b038d16845290915290209082900390555b6001600160a01b038716156102e0575f828152602081815260408083206001600160a01b038b168452909152812080548392906102da908490610813565b90915550505b50506001016101eb565b50825160010361036a5760208301515f906020840151909150856001600160a01b0316876001600160a01b0316846001600160a01b03167fc3d58168c5ae7397731d063d5bbf3d657854427343f4c083240f7aacaa2d0f62858560405161035b929190918252602082015260400190565b60405180910390a450506101b2565b836001600160a01b0316856001600160a01b0316826001600160a01b03167f4a39dc06d4c0dbc64b70af90fd698a233a518aa5d07e595d983b8c0526c8f7fb86866040516103b9929190610872565b60405180910390a45050505050565b6001600160a01b0384163b156101575760405163f23a6e6160e01b81526001600160a01b0385169063f23a6e619061040c90899089908890889088906004016108cd565b6020604051808303815f875af1925050508015610446575060408051601f3d908101601f1916820190925261044391810190610911565b60015b6104ad573d808015610473576040519150601f19603f3d011682016040523d82523d5f602084013e610478565b606091505b5080515f036104a557604051632bfa23e760e11b81526001600160a01b038616600482015260240161005f565b805181602001fd5b6001600160e01b0319811663f23a6e6160e01b146104e957604051632bfa23e760e11b81526001600160a01b038616600482015260240161005f565b50505050505050565b6001600160a01b0384163b156101575760405163bc197c8160e01b81526001600160a01b0385169063bc197c8190610536908990899088908890889060040161093f565b6020604051808303815f875af1925050508015610570575060408051601f3d908101601f1916820190925261056d91810190610911565b60015b61059d573d808015610473576040519150601f19603f3d011682016040523d82523d5f602084013e610478565b6001600160e01b0319811663bc197c8160e01b146104e957604051632bfa23e760e11b81526001600160a01b038616600482015260240161005f565b634e487b7160e01b5f52604160045260245ffd5b80516001600160a01b0381168114610603575f80fd5b919050565b5f805f806080858703121561061b575f80fd5b84516001600160401b03811115610630575f80fd5b8501601f81018713610640575f80fd5b80516001600160401b03811115610659576106596105d9565b604051601f8201601f19908116603f011681016001600160401b0381118282101715610687576106876105d9565b60405281815282820160200189101561069e575f80fd5b8160208401602083015e5f602083830101528096505050506106c2602086016105ed565b6040860151606090960151949790965092505050565b600181811c908216806106ec57607f821691505b60208210810361070a57634e487b7160e01b5f52602260045260245ffd5b50919050565b601f82111561075457805f5260205f20601f840160051c810160208510156107355750805b601f840160051c820191505b818110156101b2575f8155600101610741565b505050565b81516001600160401b03811115610772576107726105d9565b6107868161078084546106d8565b84610710565b6020601f8211600181146107b8575f83156107a15750848201515b5f19600385901b1c1916600184901b1784556101b2565b5f84815260208120601f198516915b828110156107e757878501518255602094850194600190920191016107c7565b508482101561080457868401515f19600387901b60f8161c191681555b50505050600190811b01905550565b8082018082111561083257634e487b7160e01b5f52601160045260245ffd5b92915050565b5f8151808452602084019350602083015f5b8281101561086857815186526020958601959091019060010161084a565b5093949350505050565b604081525f6108846040830185610838565b82810360208401526108968185610838565b95945050505050565b5f81518084528060208401602086015e5f602082860101526020601f19601f83011685010191505092915050565b6001600160a01b03868116825285166020820152604081018490526060810183905260a0608082018190525f906109069083018461089f565b979650505050505050565b5f60208284031215610921575f80fd5b81516001600160e01b031981168114610938575f80fd5b9392505050565b6001600160a01b0386811682528516602082015260a0604082018190525f9061096a90830186610838565b828103606084015261097c8186610838565b90508281036080840152610990818561089f565b98975050505050505050565b61124b806109a95f395ff3fe608060405234801561000f575f80fd5b50600436106100b0575f3560e01c8063715018a61161006e578063715018a6146101655780638da5cb5b1461016d578063a22cb46514610188578063e985e9c51461019b578063f242432a146101ae578063f2fde38b146101c1575f80fd5b8062fdd58e146100b457806301ffc9a7146100da5780630e89341c146100fd578063156e29f61461011d5780632eb2c2d6146101325780634e1273f414610145575b5f80fd5b6100c76100c2366004610c08565b6101d4565b6040519081526020015b60405180910390f35b6100ed6100e8366004610c45565b6101fb565b60405190151581526020016100d1565b61011061010b366004610c67565b61024a565b6040516100d19190610cac565b61013061012b366004610cbe565b6102dc565b005b610130610140366004610e2c565b610303565b610158610153366004610edb565b61036f565b6040516100d19190610fd8565b61013061043a565b6003546040516001600160a01b0390911681526020016100d1565b610130610196366004610fea565b61044d565b6100ed6101a9366004611023565b61045c565b6101306101bc366004611054565b610489565b6101306101cf3660046110a8565b6104e8565b5f818152602081815260408083206001600160a01b03861684529091529020545b92915050565b5f6001600160e01b03198216636cdb3d1360e11b148061022b57506001600160e01b031982166303a24d0760e21b145b806101f557506301ffc9a760e01b6001600160e01b03198316146101f5565b606060028054610259906110c1565b80601f0160208091040260200160405190810160405280929190818152602001828054610285906110c1565b80156102d05780601f106102a7576101008083540402835291602001916102d0565b820191905f5260205f20905b8154815290600101906020018083116102b357829003601f168201915b50505050509050919050565b6102e4610525565b6102fe83838360405180602001604052805f815250610552565b505050565b336001600160a01b03861681148015906103245750610322868261045c565b155b1561035a5760405163711bec9160e11b81526001600160a01b038083166004830152871660248201526044015b60405180910390fd5b61036786868686866105ad565b505050505050565b606081518351146103a05781518351604051635b05999160e01b815260048101929092526024820152604401610351565b5f835167ffffffffffffffff8111156103bb576103bb610cee565b6040519080825280602002602001820160405280156103e4578160200160208202803683370190505b5090505f5b84518110156104325760208082028601015161040d906020808402870101516101d4565b82828151811061041f5761041f6110f9565b60209081029190910101526001016103e9565b509392505050565b610442610525565b61044b5f610612565b565b610458338383610663565b5050565b6001600160a01b039182165f90815260016020908152604080832093909416825291909152205460ff1690565b336001600160a01b03861681148015906104aa57506104a8868261045c565b155b156104db5760405163711bec9160e11b81526001600160a01b03808316600483015287166024820152604401610351565b61036786868686866106f7565b6104f0610525565b6001600160a01b03811661051957604051631e4fbdf760e01b81525f6004820152602401610351565b61052281610612565b50565b6003546001600160a01b0316331461044b5760405163118cdaa760e01b8152336004820152602401610351565b6001600160a01b03841661057b57604051632bfa23e760e11b81525f6004820152602401610351565b604080516001808252602082018690528183019081526060820185905260808201909252906103675f87848487610783565b6001600160a01b0384166105d657604051632bfa23e760e11b81525f6004820152602401610351565b6001600160a01b0385166105fe57604051626a0d4560e21b81525f6004820152602401610351565b61060b8585858585610783565b5050505050565b600380546001600160a01b038381166001600160a01b0319831681179093556040519116919082907f8be0079c531659141344cd1fd0a4f28419497f9722a3daafe3b4186f6b6457e0905f90a35050565b6001600160a01b03821661068b5760405162ced3e160e81b81525f6004820152602401610351565b6001600160a01b038381165f81815260016020908152604080832094871680845294825291829020805460ff191686151590811790915591519182527f17307eab39ab6107e8899845ad3d59bd9653f200f220920489ca2b5937696c31910160405180910390a3505050565b6001600160a01b03841661072057604051632bfa23e760e11b81525f6004820152602401610351565b6001600160a01b03851661074857604051626a0d4560e21b81525f6004820152602401610351565b6040805160018082526020820186905281830190815260608201859052608082019092529061077a8787848487610783565b50505050505050565b61078f858585856107d6565b6001600160a01b0384161561060b57825133906001036107c857602084810151908401516107c18389898585896109e5565b5050610367565b610367818787878787610b06565b80518251146108055781518151604051635b05999160e01b815260048101929092526024820152604401610351565b335f5b8351811015610907576020818102858101820151908501909101516001600160a01b038816156108b9575f828152602081815260408083206001600160a01b038c16845290915290205481811015610893576040516303dee4c560e01b81526001600160a01b038a166004820152602481018290526044810183905260648101849052608401610351565b5f838152602081815260408083206001600160a01b038d16845290915290209082900390555b6001600160a01b038716156108fd575f828152602081815260408083206001600160a01b038b168452909152812080548392906108f790849061110d565b90915550505b5050600101610808565b5082516001036109875760208301515f906020840151909150856001600160a01b0316876001600160a01b0316846001600160a01b03167fc3d58168c5ae7397731d063d5bbf3d657854427343f4c083240f7aacaa2d0f628585604051610978929190918252602082015260400190565b60405180910390a4505061060b565b836001600160a01b0316856001600160a01b0316826001600160a01b03167f4a39dc06d4c0dbc64b70af90fd698a233a518aa5d07e595d983b8c0526c8f7fb86866040516109d692919061112c565b60405180910390a45050505050565b6001600160a01b0384163b156103675760405163f23a6e6160e01b81526001600160a01b0385169063f23a6e6190610a299089908990889088908890600401611159565b6020604051808303815f875af1925050508015610a63575060408051601f3d908101601f19168201909252610a609181019061119d565b60015b610aca573d808015610a90576040519150601f19603f3d011682016040523d82523d5f602084013e610a95565b606091505b5080515f03610ac257604051632bfa23e760e11b81526001600160a01b0386166004820152602401610351565b805181602001fd5b6001600160e01b0319811663f23a6e6160e01b1461077a57604051632bfa23e760e11b81526001600160a01b0386166004820152602401610351565b6001600160a01b0384163b156103675760405163bc197c8160e01b81526001600160a01b0385169063bc197c8190610b4a90899089908890889088906004016111b8565b6020604051808303815f875af1925050508015610b84575060408051601f3d908101601f19168201909252610b819181019061119d565b60015b610bb1573d808015610a90576040519150601f19603f3d011682016040523d82523d5f602084013e610a95565b6001600160e01b0319811663bc197c8160e01b1461077a57604051632bfa23e760e11b81526001600160a01b0386166004820152602401610351565b80356001600160a01b0381168114610c03575f80fd5b919050565b5f8060408385031215610c19575f80fd5b610c2283610bed565b946020939093013593505050565b6001600160e01b031981168114610522575f80fd5b5f60208284031215610c55575f80fd5b8135610c6081610c30565b9392505050565b5f60208284031215610c77575f80fd5b5035919050565b5f81518084528060208401602086015e5f602082860101526020601f19601f83011685010191505092915050565b602081525f610c606020830184610c7e565b5f805f60608486031215610cd0575f80fd5b610cd984610bed565b95602085013595506040909401359392505050565b634e487b7160e01b5f52604160045260245ffd5b604051601f8201601f1916810167ffffffffffffffff81118282101715610d2b57610d2b610cee565b604052919050565b5f67ffffffffffffffff821115610d4c57610d4c610cee565b5060051b60200190565b5f82601f830112610d65575f80fd5b8135610d78610d7382610d33565b610d02565b8082825260208201915060208360051b860101925085831115610d99575f80fd5b602085015b83811015610db6578035835260209283019201610d9e565b5095945050505050565b5f82601f830112610dcf575f80fd5b813567ffffffffffffffff811115610de957610de9610cee565b610dfc601f8201601f1916602001610d02565b818152846020838601011115610e10575f80fd5b816020850160208301375f918101602001919091529392505050565b5f805f805f60a08688031215610e40575f80fd5b610e4986610bed565b9450610e5760208701610bed565b9350604086013567ffffffffffffffff811115610e72575f80fd5b610e7e88828901610d56565b935050606086013567ffffffffffffffff811115610e9a575f80fd5b610ea688828901610d56565b925050608086013567ffffffffffffffff811115610ec2575f80fd5b610ece88828901610dc0565b9150509295509295909350565b5f8060408385031215610eec575f80fd5b823567ffffffffffffffff811115610f02575f80fd5b8301601f81018513610f12575f80fd5b8035610f20610d7382610d33565b8082825260208201915060208360051b850101925087831115610f41575f80fd5b6020840193505b82841015610f6a57610f5984610bed565b825260209384019390910190610f48565b9450505050602083013567ffffffffffffffff811115610f88575f80fd5b610f9485828601610d56565b9150509250929050565b5f8151808452602084019350602083015f5b82811015610fce578151865260209586019590910190600101610fb0565b5093949350505050565b602081525f610c606020830184610f9e565b5f8060408385031215610ffb575f80fd5b61100483610bed565b915060208301358015158114611018575f80fd5b809150509250929050565b5f8060408385031215611034575f80fd5b61103d83610bed565b915061104b60208401610bed565b90509250929050565b5f805f805f60a08688031215611068575f80fd5b61107186610bed565b945061107f60208701610bed565b93506040860135925060608601359150608086013567ffffffffffffffff811115610ec2575f80fd5b5f602082840312156110b8575f80fd5b610c6082610bed565b600181811c908216806110d557607f821691505b6020821081036110f357634e487b7160e01b5f52602260045260245ffd5b50919050565b634e487b7160e01b5f52603260045260245ffd5b808201808211156101f557634e487b7160e01b5f52601160045260245ffd5b604081525f61113e6040830185610f9e565b82810360208401526111508185610f9e565b95945050505050565b6001600160a01b03868116825285166020820152604081018490526060810183905260a0608082018190525f9061119290830184610c7e565b979650505050505050565b5f602082840312156111ad575f80fd5b8151610c6081610c30565b6001600160a01b0386811682528516602082015260a0604082018190525f906111e390830186610f9e565b82810360608401526111f58186610f9e565b905082810360808401526112098185610c7e565b9897505050505050505056fea264697066735822122065972b1e03ea9f62c956881dcc67ea0108e3a97219d2a755f1c743669ed5bf2064736f6c634300081a0033","linkReferences":{}},"methodIdentifiers":{"balanceOf(address,uint256)":"00fdd58e","balanceOfBatch(address[],uint256[])":"4e1273f4","isApprovedForAll(address,address)":"e985e9c5","mint(address,uint256,uint256)":"156e29f6","owner()":"8da5cb5b","renounceOwnership()":"715018a6","safeBatchTransferFrom(address,address,uint256[],uint256[],bytes)":"2eb2c2d6","safeTransferFrom(address,address,uint256,uint256,bytes)":"f242432a","setApprovalForAll(address,bool)":"a22cb465","supportsInterface(bytes4)":"01ffc9a7","transferOwnership(address)":"f2fde38b","uri(uint256)":"0e89341c"},"id":50}