{"abi":[{"type":"constructor","inputs":[{"name":"name","type":"string","internalType":"string"},{"name":"symbol","type":"string","internalType":"string"},{"name":"owner","type":"address","internalType":"address"},{"name":"paymentHandlerAddress","type":"address","internalType":"address"}],"stateMutability":"nonpayable"},{"type":"function","name":"approve","inputs":[{"name":"to","type":"address","internalType":"address"},{"name":"tokenId","type":"uint256","internalType":"uint256"}],"outputs":[],"stateMutability":"nonpayable"},{"type":"function","name":"balanceOf","inputs":[{"name":"owner","type":"address","internalType":"address"}],"outputs":[{"name":"","type":"uint256","internalType":"uint256"}],"stateMutability":"view"},{"type":"function","name":"createNFT","inputs":[{"name":"tokenURI","type":"string","internalType":"string"},{"name":"paymentToken","type":"address","internalType":"address"},{"name":"price","type":"uint256","internalType":"uint256"}],"outputs":[{"name":"","type":"uint256","internalType":"uint256"}],"stateMutability":"nonpayable"},{"type":"function","name":"erc1155Items","inputs":[{"name":"","type":"uint256","internalType":"uint256"}],"outputs":[{"name":"tokenId","type":"uint256","internalType":"uint256"},{"name":"owner","type":"address","internalType":"address"},{"name":"tokenAddress","type":"address","internalType":"address"},{"name":"amount","type":"uint256","internalType":"uint256"},{"name":"price","type":"uint256","internalType":"uint256"}],"stateMutability":"view"},{"type":"function","name":"erc1155TokenIds","inputs":[{"name":"","type":"uint256","internalType":"uint256"}],"outputs":[{"name":"","type":"uint256","internalType":"uint256"}],"stateMutability":"view"},{"type":"function","name":"fetchAllNFTs","inputs":[],"outputs":[{"name":"","type":"tuple[]","internalType":"struct NFTMarketplace.NFTItem[]","components":[{"name":"tokenId","type":"uint256","internalType":"uint256"},{"name":"owner","type":"address","internalType":"address"},{"name":"tokenURI","type":"string","internalType":"string"},{"name":"paymentToken","type":"address","internalType":"address"},{"name":"price","type":"uint256","internalType":"uint256"},{"name":"signature","type":"bytes","internalType":"bytes"}]},{"name":"","type":"tuple[]","internalType":"struct NFTMarketplace.ERC1155Item[]","components":[{"name":"tokenId","type":"uint256","internalType":"uint256"},{"name":"owner","type":"address","internalType":"address"},{"name":"tokenAddress","type":"address","internalType":"address"},{"name":"amount","type":"uint256","internalType":"uint256"},{"name":"price","type":"uint256","internalType":"uint256"}]}],"stateMutability":"view"},{"type":"function","name":"getApproved","inputs":[{"name":"tokenId","type":"uint256","internalType":"uint256"}],"outputs":[{"name":"","type":"address","internalType":"address"}],"stateMutability":"view"},{"type":"function","name":"isApprovedForAll","inputs":[{"name":"owner","type":"address","internalType":"address"},{"name":"operator","type":"address","internalType":"address"}],"outputs":[{"name":"","type":"bool","internalType":"bool"}],"stateMutability":"view"},{"type":"function","name":"listERC1155","inputs":[{"name":"tokenAddress","type":"address","internalType":"address"},{"name":"tokenId","type":"uint256","internalType":"uint256"},{"name":"amount","type":"uint256","internalType":"uint256"},{"name":"price","type":"uint256","internalType":"uint256"}],"outputs":[],"stateMutability":"nonpayable"},{"type":"function","name":"listNFTSignature","inputs":[{"name":"tokenURI","type":"string","internalType":"string"},{"name":"paymentToken","type":"address","internalType":"address"},{"name":"price","type":"uint256","internalType":"uint256"},{"name":"signature","type":"bytes","internalType":"bytes"}],"outputs":[{"name":"","type":"uint256","internalType":"uint256"}],"stateMutability":"nonpayable"},{"type":"function","name":"name","inputs":[],"outputs":[{"name":"","type":"string","internalType":"string"}],"stateMutability":"view"},{"type":"function","name":"nftItems","inputs":[{"name":"","type":"uint256","internalType":"uint256"}],"outputs":[{"name":"tokenId","type":"uint256","internalType":"uint256"},{"name":"owner","type":"address","internalType":"address"},{"name":"tokenURI","type":"string","internalType":"string"},{"name":"paymentToken","type":"address","internalType":"address"},{"name":"price","type":"uint256","internalType":"uint256"},{"name":"signature","type":"bytes","internalType":"bytes"}],"stateMutability":"view"},{"type":"function","name":"owner","inputs":[],"outputs":[{"name":"","type":"address","internalType":"address"}],"stateMutability":"view"},{"type":"function","name":"ownerOf","inputs":[{"name":"tokenId","type":"uint256","internalType":"uint256"}],"outputs":[{"name":"","type":"address","internalType":"address"}],"stateMutability":"view"},{"type":"function","name":"paymentHandler","inputs":[],"outputs":[{"name":"","type":"address","internalType":"contract PaymentHandler"}],"stateMutability":"view"},{"type":"function","name":"purchaseERC1155","inputs":[{"name":"tokenId","type":"uint256","internalType":"uint256"},{"name":"amount","type":"uint256","internalType":"uint256"}],"outputs":[],"stateMutability":"payable"},{"type":"function","name":"purchaseNFT","inputs":[{"name":"tokenId","type":"uint256","internalType":"uint256"}],"outputs":[],"stateMutability":"nonpayable"},{"type":"function","name":"purchaseNFTWithSignature","inputs":[{"name":"tokenId","type":"uint256","internalType":"uint256"},{"name":"price","type":"uint256","internalType":"uint256"},{"name":"buyer","type":"address","internalType":"address"},{"name":"signature","type":"bytes","internalType":"bytes"}],"outputs":[],"stateMutability":"nonpayable"},{"type":"function","name":"renounceOwnership","inputs":[],"outputs":[],"stateMutability":"nonpayable"},{"type":"function","name":"safeTransferFrom","inputs":[{"name":"from","type":"address","internalType":"address"},{"name":"to","type":"address","internalType":"address"},{"name":"tokenId","type":"uint256","internalType":"uint256"}],"outputs":[],"stateMutability":"nonpayable"},{"type":"function","name":"safeTransferFrom","inputs":[{"name":"from","type":"address","internalType":"address"},{"name":"to","type":"address","internalType":"address"},{"name":"tokenId","type":"uint256","internalType":"uint256"},{"name":"data","type":"bytes","internalType":"bytes"}],"outputs":[],"stateMutability":"nonpayable"},{"type":"function","name":"setApprovalForAll","inputs":[{"name":"operator","type":"address","internalType":"address"},{"name":"approved","type":"bool","internalType":"bool"}],"outputs":[],"stateMutability":"nonpayable"},{"type":"function","name":"supportsInterface","inputs":[{"name":"interfaceId","type":"bytes4","internalType":"bytes4"}],"outputs":[{"name":"","type":"bool","internalType":"bool"}],"stateMutability":"view"},{"type":"function","name":"symbol","inputs":[],"outputs":[{"name":"","type":"string","internalType":"string"}],"stateMutability":"view"},{"type":"function","name":"tokenCounter","inputs":[],"outputs":[{"name":"","type":"uint256","internalType":"uint256"}],"stateMutability":"view"},{"type":"function","name":"tokenURI","inputs":[{"name":"tokenId","type":"uint256","internalType":"uint256"}],"outputs":[{"name":"","type":"string","internalType":"string"}],"stateMutability":"view"},{"type":"function","name":"transferFrom","inputs":[{"name":"from","type":"address","internalType":"address"},{"name":"to","type":"address","internalType":"address"},{"name":"tokenId","type":"uint256","internalType":"uint256"}],"outputs":[],"stateMutability":"nonpayable"},{"type":"function","name":"transferOwnership","inputs":[{"name":"newOwner","type":"address","internalType":"address"}],"outputs":[],"stateMutability":"nonpayable"},{"type":"event","name":"Approval","inputs":[{"name":"owner","type":"address","indexed":true,"internalType":"address"},{"name":"approved","type":"address","indexed":true,"internalType":"address"},{"name":"tokenId","type":"uint256","indexed":true,"internalType":"uint256"}],"anonymous":false},{"type":"event","name":"ApprovalForAll","inputs":[{"name":"owner","type":"address","indexed":true,"internalType":"address"},{"name":"operator","type":"address","indexed":true,"internalType":"address"},{"name":"approved","type":"bool","indexed":false,"internalType":"bool"}],"anonymous":false},{"type":"event","name":"BatchMetadataUpdate","inputs":[{"name":"_fromTokenId","type":"uint256","indexed":false,"internalType":"uint256"},{"name":"_toTokenId","type":"uint256","indexed":false,"internalType":"uint256"}],"anonymous":false},{"type":"event","name":"ERC1155Purchased","inputs":[{"name":"tokenId","type":"uint256","indexed":true,"internalType":"uint256"},{"name":"buyer","type":"address","indexed":false,"internalType":"address"},{"name":"amount","type":"uint256","indexed":false,"internalType":"uint256"}],"anonymous":false},{"type":"event","name":"MetadataUpdate","inputs":[{"name":"_tokenId","type":"uint256","indexed":false,"internalType":"uint256"}],"anonymous":false},{"type":"event","name":"NFTPurchased","inputs":[{"name":"tokenId","type":"uint256","indexed":true,"internalType":"uint256"},{"name":"buyer","type":"address","indexed":false,"internalType":"address"},{"name":"amount","type":"uint256","indexed":false,"internalType":"uint256"}],"anonymous":false},{"type":"event","name":"OwnershipTransferred","inputs":[{"name":"previousOwner","type":"address","indexed":true,"internalType":"address"},{"name":"newOwner","type":"address","indexed":true,"internalType":"address"}],"anonymous":false},{"type":"event","name":"Transfer","inputs":[{"name":"from","type":"address","indexed":true,"internalType":"address"},{"name":"to","type":"address","indexed":true,"internalType":"address"},{"name":"tokenId","type":"uint256","indexed":true,"internalType":"uint256"}],"anonymous":false},{"type":"error","name":"ECDSAInvalidSignature","inputs":[]},{"type":"error","name":"ECDSAInvalidSignatureLength","inputs":[{"name":"length","type":"uint256","internalType":"uint256"}]},{"type":"error","name":"ECDSAInvalidSignatureS","inputs":[{"name":"s","type":"bytes32","internalType":"bytes32"}]},{"type":"error","name":"ERC721IncorrectOwner","inputs":[{"name":"sender","type":"address","internalType":"address"},{"name":"tokenId","type":"uint256","internalType":"uint256"},{"name":"owner","type":"address","internalType":"address"}]},{"type":"error","name":"ERC721InsufficientApproval","inputs":[{"name":"operator","type":"address","internalType":"address"},{"name":"tokenId","type":"uint256","internalType":"uint256"}]},{"type":"error","name":"ERC721InvalidApprover","inputs":[{"name":"approver","type":"address","internalType":"address"}]},{"type":"error","name":"ERC721InvalidOperator","inputs":[{"name":"operator","type":"address","internalType":"address"}]},{"type":"error","name":"ERC721InvalidOwner","inputs":[{"name":"owner","type":"address","internalType":"address"}]},{"type":"error","name":"ERC721InvalidReceiver","inputs":[{"name":"receiver","type":"address","internalType":"address"}]},{"type":"error","name":"ERC721InvalidSender","inputs":[{"name":"sender","type":"address","internalType":"address"}]},{"type":"error","name":"ERC721NonexistentToken","inputs":[{"name":"tokenId","type":"uint256","internalType":"uint256"}]},{"type":"error","name":"OwnableInvalidOwner","inputs":[{"name":"owner","type":"address","internalType":"address"}]},{"type":"error","name":"OwnableUnauthorizedAccount","inputs":[{"name":"account","type":"address","internalType":"address"}]}],"bytecode":{"object":"0x608060405234801561000f575f80fd5b506040516132b63803806132b683398101604081905261002e916101b9565b8184845f61003c83826102c2565b50600161004982826102c2565b5050506001600160a01b03811661007957604051631e4fbdf760e01b81525f600482015260240160405180910390fd5b610082816100b0565b505f600855600980546001600160a01b0319166001600160a01b03929092169190911790555061037c915050565b600780546001600160a01b038381166001600160a01b0319831681179093556040519116919082907f8be0079c531659141344cd1fd0a4f28419497f9722a3daafe3b4186f6b6457e0905f90a35050565b634e487b7160e01b5f52604160045260245ffd5b5f82601f830112610124575f80fd5b81516001600160401b0381111561013d5761013d610101565b604051601f8201601f19908116603f011681016001600160401b038111828210171561016b5761016b610101565b604052818152838201602001851015610182575f80fd5b8160208501602083015e5f918101602001919091529392505050565b80516001600160a01b03811681146101b4575f80fd5b919050565b5f805f80608085870312156101cc575f80fd5b84516001600160401b038111156101e1575f80fd5b6101ed87828801610115565b602087015190955090506001600160401b0381111561020a575f80fd5b61021687828801610115565b9350506102256040860161019e565b91506102336060860161019e565b905092959194509250565b600181811c9082168061025257607f821691505b60208210810361027057634e487b7160e01b5f52602260045260245ffd5b50919050565b601f8211156102bd57805f5260205f20601f840160051c8101602085101561029b5750805b601f840160051c820191505b818110156102ba575f81556001016102a7565b50505b505050565b81516001600160401b038111156102db576102db610101565b6102ef816102e9845461023e565b84610276565b6020601f821160018114610321575f831561030a5750848201515b5f19600385901b1c1916600184901b1784556102ba565b5f84815260208120601f198516915b828110156103505787850151825560209485019460019092019101610330565b508482101561036d57868401515f19600387901b60f8161c191681555b50505050600190811b01905550565b612f2d806103895f395ff3fe6080604052600436106101ae575f3560e01c80638d56f3d1116100e7578063c92081bb11610087578063df47037911610062578063df47037914610535578063e8d9b52f14610548578063e985e9c514610567578063f2fde38b14610586575f80fd5b8063c92081bb146104e2578063cdd5bd2114610501578063d082e38114610520575f80fd5b8063a22cb465116100c2578063a22cb46514610466578063b6f70e7614610485578063b88d4fde146104a4578063c87b56dd146104c3575f80fd5b80638d56f3d1146104165780638da5cb5b1461043557806395d89b4114610452575f80fd5b806323b872dd11610152578063628213961161012d57806362821396146103935780636352211e146103c457806370a08231146103e3578063715018a614610402575f80fd5b806323b872dd146103335780633f0e317b1461035257806342842e0e14610374575f80fd5b8063081812fc1161018d578063081812fc1461028f578063095ea7b3146102c657806309b8e5a1146102e7578063150bde0314610314575f80fd5b806216fdb6146101b257806301ffc9a71461023f57806306fdde031461026e575b5f80fd5b3480156101bd575f80fd5b506102066101cc36600461276b565b600b6020525f90815260409020805460018201546002830154600384015460049094015492936001600160a01b0392831693929091169185565b604080519586526001600160a01b03948516602087015292909316918401919091526060830152608082015260a0015b60405180910390f35b34801561024a575f80fd5b5061025e610259366004612797565b6105a5565b6040519015158152602001610236565b348015610279575f80fd5b506102826105cf565b60405161023691906127e0565b34801561029a575f80fd5b506102ae6102a936600461276b565b61065e565b6040516001600160a01b039091168152602001610236565b3480156102d1575f80fd5b506102e56102e036600461280d565b610685565b005b3480156102f2575f80fd5b506103066103013660046128da565b610694565b604051908152602001610236565b34801561031f575f80fd5b506102e561032e36600461276b565b610800565b34801561033e575f80fd5b506102e561034d366004612958565b610ace565b34801561035d575f80fd5b50610366610b5c565b604051610236929190612a07565b34801561037f575f80fd5b506102e561038e366004612958565b610ee9565b34801561039e575f80fd5b506103b26103ad36600461276b565b610f08565b60405161023696959493929190612adc565b3480156103cf575f80fd5b506102ae6103de36600461276b565b611060565b3480156103ee575f80fd5b506103066103fd366004612b3a565b61106a565b34801561040d575f80fd5b506102e56110af565b348015610421575f80fd5b506102e5610430366004612b53565b6110c2565b348015610440575f80fd5b506007546001600160a01b03166102ae565b34801561045d575f80fd5b506102826114e8565b348015610471575f80fd5b506102e5610480366004612b98565b6114f7565b348015610490575f80fd5b5061030661049f36600461276b565b611502565b3480156104af575f80fd5b506102e56104be366004612bd1565b611521565b3480156104ce575f80fd5b506102826104dd36600461276b565b611539565b3480156104ed575f80fd5b506103066104fc366004612bfb565b611644565b34801561050c575f80fd5b506009546102ae906001600160a01b031681565b34801561052b575f80fd5b5061030660085481565b6102e5610543366004612c3e565b6117ba565b348015610553575f80fd5b506102e5610562366004612c5e565b611abc565b348015610572575f80fd5b5061025e610581366004612c94565b611c18565b348015610591575f80fd5b506102e56105a0366004612b3a565b611c45565b5f6001600160e01b03198216632483248360e11b14806105c957506105c982611c82565b92915050565b60605f80546105dd90612cc5565b80601f016020809104026020016040519081016040528092919081815260200182805461060990612cc5565b80156106545780601f1061062b57610100808354040283529160200191610654565b820191905f5260205f20905b81548152906001019060200180831161063757829003601f168201915b5050505050905090565b5f61066882611cd1565b505f828152600460205260409020546001600160a01b03166105c9565b610690828233611d09565b5050565b5f61069d611d16565b6008546106aa3382611d43565b6106b48187611d5c565b6040805160c0810182528281523360208083019182528284018a81526001600160a01b038a81166060860152608085018a905260a085018990525f878152600a909352949091208351815591516001830180546001600160a01b0319169190951617909355915190918291600282019061072e9082612d41565b5060608201516003820180546001600160a01b0319166001600160a01b039092169190911790556080820151600482015560a082015160058201906107739082612d41565b50506009546040516333936f3960e21b8152600481018590526001600160a01b03898116602483015260448201899052909116915063ce4dbce4906064015f604051808303815f87803b1580156107c8575f80fd5b505af11580156107da573d5f803e3d5ffd5b50505050600160085f8282546107f09190612e10565b9091555091979650505050505050565b5f818152600a60209081526040808320815160c0810183528154815260018201546001600160a01b031693810193909352600281018054919284019161084590612cc5565b80601f016020809104026020016040519081016040528092919081815260200182805461087190612cc5565b80156108bc5780601f10610893576101008083540402835291602001916108bc565b820191905f5260205f20905b81548152906001019060200180831161089f57829003601f168201915b505050918352505060038201546001600160a01b03166020820152600482015460408201526005820180546060909201916108f690612cc5565b80601f016020809104026020016040519081016040528092919081815260200182805461092290612cc5565b801561096d5780601f106109445761010080835404028352916020019161096d565b820191905f5260205f20905b81548152906001019060200180831161095057829003601f168201915b5050509190925250506009546020830151604051633406129360e01b8152600481018790523360248201526001600160a01b0391821660448201529394501691633406129391506064015f604051808303815f87803b1580156109ce575f80fd5b505af11580156109e0573d5f803e3d5ffd5b505050506109f381602001513384611dab565b3360208281019182525f848152600a9091526040908190208351815591516001830180546001600160a01b0319166001600160a01b039092169190911790558201518291906002820190610a479082612d41565b5060608201516003820180546001600160a01b0319166001600160a01b039092169190911790556080820151600482015560a08201516005820190610a8c9082612d41565b505060408051338152600160208201528492507fad546cba5af920bc2c64678bbd69f3d8965ac26d1b82f7ebf6f098aaa8335282910160405180910390a25050565b6001600160a01b038216610afc57604051633250574960e11b81525f60048201526024015b60405180910390fd5b5f610b08838333611e58565b9050836001600160a01b0316816001600160a01b031614610b56576040516364283d7b60e01b81526001600160a01b0380861660048301526024820184905282166044820152606401610af3565b50505050565b6060805f60085467ffffffffffffffff811115610b7b57610b7b612835565b604051908082528060200260200182016040528015610bf357816020015b610be06040518060c001604052805f81526020015f6001600160a01b03168152602001606081526020015f6001600160a01b031681526020015f8152602001606081525090565b815260200190600190039081610b995790505b5090505f5b600854811015610da1575f818152600a6020908152604091829020825160c0810184528154815260018201546001600160a01b0316928101929092526002810180549293919291840191610c4b90612cc5565b80601f0160208091040260200160405190810160405280929190818152602001828054610c7790612cc5565b8015610cc25780601f10610c9957610100808354040283529160200191610cc2565b820191905f5260205f20905b815481529060010190602001808311610ca557829003601f168201915b505050918352505060038201546001600160a01b0316602082015260048201546040820152600582018054606090920191610cfc90612cc5565b80601f0160208091040260200160405190810160405280929190818152602001828054610d2890612cc5565b8015610d735780601f10610d4a57610100808354040283529160200191610d73565b820191905f5260205f20905b815481529060010190602001808311610d5657829003601f168201915b505050505081525050828281518110610d8e57610d8e612e23565b6020908102919091010152600101610bf8565b50600c545f9067ffffffffffffffff811115610dbf57610dbf612835565b604051908082528060200260200182016040528015610e2f57816020015b610e1c6040518060a001604052805f81526020015f6001600160a01b031681526020015f6001600160a01b031681526020015f81526020015f81525090565b815260200190600190039081610ddd5790505b5090505f5b600c54811015610edf575f600c8281548110610e5257610e52612e23565b5f918252602080832090910154808352600b8252604092839020835160a0810185528154815260018201546001600160a01b0390811694820194909452600282015490931693830193909352600383015460608301526004909201546080820152845191925090849084908110610ecb57610ecb612e23565b602090810291909101015250600101610e34565b5090939092509050565b610f0383838360405180602001604052805f815250611521565b505050565b600a6020525f908152604090208054600182015460028301805492936001600160a01b0390921692610f3990612cc5565b80601f0160208091040260200160405190810160405280929190818152602001828054610f6590612cc5565b8015610fb05780601f10610f8757610100808354040283529160200191610fb0565b820191905f5260205f20905b815481529060010190602001808311610f9357829003601f168201915b505050506003830154600484015460058501805494956001600160a01b039093169491935090610fdf90612cc5565b80601f016020809104026020016040519081016040528092919081815260200182805461100b90612cc5565b80156110565780601f1061102d57610100808354040283529160200191611056565b820191905f5260205f20905b81548152906001019060200180831161103957829003601f168201915b5050505050905086565b5f6105c982611cd1565b5f6001600160a01b038216611094576040516322718ad960e21b81525f6004820152602401610af3565b506001600160a01b03165f9081526003602052604090205490565b6110b7611d16565b6110c05f611f4a565b565b5f848152600a60209081526040808320815160c0810183528154815260018201546001600160a01b031693810193909352600281018054919284019161110790612cc5565b80601f016020809104026020016040519081016040528092919081815260200182805461113390612cc5565b801561117e5780601f106111555761010080835404028352916020019161117e565b820191905f5260205f20905b81548152906001019060200180831161116157829003601f168201915b505050918352505060038201546001600160a01b03166020820152600482015460408201526005820180546060909201916111b890612cc5565b80601f01602080910402602001604051908101604052809291908181526020018280546111e490612cc5565b801561122f5780601f106112065761010080835404028352916020019161122f565b820191905f5260205f20905b81548152906001019060200180831161121257829003601f168201915b505050505081525050905080602001516001600160a01b0316836001600160a01b0316036112ab5760405162461bcd60e51b815260206004820152602360248201527f4f776e65722063616e6e6f74207075726368617365207468656972206f776e2060448201526213919560ea1b6064820152608401610af3565b806080015184146112f05760405162461bcd60e51b815260206004820152600f60248201526e496e636f727265637420707269636560881b6044820152606401610af3565b604080516020808201889052818301879052606086811b6bffffffffffffffffffffffff19169083015282518083036054018152607490920190925280519101207f19457468657265756d205369676e6564204d6573736167653a0a3332000000005f908152601c829052603c812090505f611370828560a00151611f9b565b90505f61137d8387611f9b565b6009546020870151604051633406129360e01b8152600481018d90526001600160a01b038b81166024830152918216604482015292935016906334061293906064015f604051808303815f87803b1580156113d6575f80fd5b505af11580156113e8573d5f803e3d5ffd5b505050506113fb8560200151888b611dab565b6001600160a01b0387811660208781019182525f8c8152600a9091526040908190208851815591516001830180546001600160a01b03191691909416179092559086015186919060028201906114519082612d41565b5060608201516003820180546001600160a01b0319166001600160a01b039092169190911790556080820151600482015560a082015160058201906114969082612d41565b5050604080516001600160a01b038a168152600160208201528b92507fad546cba5af920bc2c64678bbd69f3d8965ac26d1b82f7ebf6f098aaa8335282910160405180910390a2505050505050505050565b6060600180546105dd90612cc5565b610690338383611fc3565b600c8181548110611511575f80fd5b5f91825260209091200154905081565b61152c848484610ace565b610b563385858585612061565b606061154482611cd1565b505f828152600660205260408120805461155d90612cc5565b80601f016020809104026020016040519081016040528092919081815260200182805461158990612cc5565b80156115d45780601f106115ab576101008083540402835291602001916115d4565b820191905f5260205f20905b8154815290600101906020018083116115b757829003601f168201915b505050505090505f6115f060408051602081019091525f815290565b905080515f03611601575092915050565b81511561163357808260405160200161161b929190612e4e565b60405160208183030381529060405292505050919050565b61163c84612189565b949350505050565b5f61164d611d16565b60085461165a3382611d43565b6116648186611d5c565b6040805160c0810182528281523360208083019182528284018981526001600160a01b03898116606086015260808501899052855180840187525f80825260a0870191909152878152600a909352949091208351815591516001830180546001600160a01b031916919095161790935591519091829160028201906116e99082612d41565b5060608201516003820180546001600160a01b0319166001600160a01b039092169190911790556080820151600482015560a0820151600582019061172e9082612d41565b50506009546040516333936f3960e21b8152600481018590526001600160a01b03888116602483015260448201889052909116915063ce4dbce4906064015f604051808303815f87803b158015611783575f80fd5b505af1158015611795573d5f803e3d5ffd5b50505050600160085f8282546117ab9190612e10565b90915550919695505050505050565b5f828152600b6020908152604091829020825160a0810184528154815260018201546001600160a01b03908116938201849052600283015416938101939093526003810154606084015260040154608083015261184f5760405162461bcd60e51b8152602060048201526013602482015272125d195b48191bd95cc81b9bdd08195e1a5cdd606a1b6044820152606401610af3565b5f82118015611862575080606001518211155b61189f5760405162461bcd60e51b815260206004820152600e60248201526d125b9d985b1a5908185b5bdd5b9d60921b6044820152606401610af3565b5f8282608001516118b09190612e62565b9050803410156118fa5760405162461bcd60e51b8152602060048201526015602482015274125b9cdd59999a58da595b9d08115512081cd95b9d605a1b6044820152606401610af3565b60408083015160208401519151637921219560e11b81526001600160a01b039283166004820152336024820152604481018790526064810186905260a060848201525f60a482015291169063f242432a9060c4015f604051808303815f87803b158015611965575f80fd5b505af1158015611977573d5f803e3d5ffd5b50505050803411156119b857336108fc6119918334612e79565b6040518115909202915f818181858888f193505050501580156119b6573d5f803e3d5ffd5b505b82826060018181516119ca9190612e79565b90525060608201515f03611a18575f848152600b602052604081208181556001810180546001600160a01b031990811690915560028201805490911690556003810182905560040155611a7b565b5f848152600b602090815260409182902084518155908401516001820180546001600160a01b03199081166001600160a01b0393841617909155928501516002830180549094169116179091556060830151600382015560808301516004909101555b604080513381526020810185905285917fe803398184505dd9c9e1196566fca5fb48818e4d71e7fbaecfe68b4d2b2256d7910160405180910390a250505050565b611ac4611d16565b6001600160a01b038416611b125760405162461bcd60e51b8152602060048201526015602482015274496e76616c696420746f6b656e206164647265737360581b6044820152606401610af3565b5f8211611b615760405162461bcd60e51b815260206004820181905260248201527f416d6f756e74206d7573742062652067726561746572207468616e207a65726f6044820152606401610af3565b6040805160a0810182528481523360208083019182526001600160a01b0397881683850190815260608401968752608084019586525f888152600b90925293812092518355905160018084018054928a166001600160a01b0319938416179055935160028401805491909916911617909655925160038401559051600490920191909155600c805491820181559092527fdf6966c971051c3d54ec59162606531493a51404a002842f56009d7e5cf4a8c790910155565b6001600160a01b039182165f90815260056020908152604080832093909416825291909152205460ff1690565b611c4d611d16565b6001600160a01b038116611c7657604051631e4fbdf760e01b81525f6004820152602401610af3565b611c7f81611f4a565b50565b5f6001600160e01b031982166380ac58cd60e01b1480611cb257506001600160e01b03198216635b5e139f60e01b145b806105c957506301ffc9a760e01b6001600160e01b03198316146105c9565b5f818152600260205260408120546001600160a01b0316806105c957604051637e27328960e01b815260048101849052602401610af3565b610f0383838360016121fa565b6007546001600160a01b031633146110c05760405163118cdaa760e01b8152336004820152602401610af3565b610690828260405180602001604052805f8152506122fe565b5f828152600660205260409020611d738282612d41565b506040518281527ff8e1a15aba9398e019f0b49df1a4fde98ee17ae345cb5f6b5e2c27f5033e8ce79060200160405180910390a15050565b6001600160a01b038216611dd457604051633250574960e11b81525f6004820152602401610af3565b5f611de083835f611e58565b90506001600160a01b038116611e0c57604051637e27328960e01b815260048101839052602401610af3565b836001600160a01b0316816001600160a01b031614610b56576040516364283d7b60e01b81526001600160a01b0380861660048301526024820184905282166044820152606401610af3565b5f828152600260205260408120546001600160a01b0390811690831615611e8457611e84818486612315565b6001600160a01b03811615611ebe57611e9f5f855f806121fa565b6001600160a01b0381165f90815260036020526040902080545f190190555b6001600160a01b03851615611eec576001600160a01b0385165f908152600360205260409020805460010190555b5f8481526002602052604080822080546001600160a01b0319166001600160a01b0389811691821790925591518793918516917fddf252ad1be2c89b69c2b068fc378daa952ba7f163c4a11628f55a4df523b3ef91a4949350505050565b600780546001600160a01b038381166001600160a01b0319831681179093556040519116919082907f8be0079c531659141344cd1fd0a4f28419497f9722a3daafe3b4186f6b6457e0905f90a35050565b5f805f80611fa98686612379565b925092509250611fb982826123c2565b5090949350505050565b6001600160a01b038216611ff557604051630b61174360e31b81526001600160a01b0383166004820152602401610af3565b6001600160a01b038381165f81815260056020908152604080832094871680845294825291829020805460ff191686151590811790915591519182527f17307eab39ab6107e8899845ad3d59bd9653f200f220920489ca2b5937696c31910160405180910390a3505050565b6001600160a01b0383163b1561218257604051630a85bd0160e11b81526001600160a01b0384169063150b7a02906120a3908890889087908790600401612e8c565b6020604051808303815f875af19250505080156120dd575060408051601f3d908101601f191682019092526120da91810190612ec8565b60015b612144573d80801561210a576040519150601f19603f3d011682016040523d82523d5f602084013e61210f565b606091505b5080515f0361213c57604051633250574960e11b81526001600160a01b0385166004820152602401610af3565b805181602001fd5b6001600160e01b03198116630a85bd0160e11b1461218057604051633250574960e11b81526001600160a01b0385166004820152602401610af3565b505b5050505050565b606061219482611cd1565b505f6121aa60408051602081019091525f815290565b90505f8151116121c85760405180602001604052805f8152506121f3565b806121d28461247a565b6040516020016121e3929190612e4e565b6040516020818303038152906040525b9392505050565b808061220e57506001600160a01b03821615155b156122cf575f61221d84611cd1565b90506001600160a01b038316158015906122495750826001600160a01b0316816001600160a01b031614155b801561225c575061225a8184611c18565b155b156122855760405163a9fbf51f60e01b81526001600160a01b0384166004820152602401610af3565b81156122cd5783856001600160a01b0316826001600160a01b03167f8c5be1e5ebec7d5bd14f71427d1e84f3dd0314c0f7b2291e5b200ac8c7c3b92560405160405180910390a45b505b50505f90815260046020526040902080546001600160a01b0319166001600160a01b0392909216919091179055565b612308838361250a565b610f03335f858585612061565b61232083838361256b565b610f03576001600160a01b03831661234e57604051637e27328960e01b815260048101829052602401610af3565b60405163177e802f60e01b81526001600160a01b038316600482015260248101829052604401610af3565b5f805f83516041036123b0576020840151604085015160608601515f1a6123a2888285856125cc565b9550955095505050506123bb565b505081515f91506002905b9250925092565b5f8260038111156123d5576123d5612ee3565b036123de575050565b60018260038111156123f2576123f2612ee3565b036124105760405163f645eedf60e01b815260040160405180910390fd5b600282600381111561242457612424612ee3565b036124455760405163fce698f760e01b815260048101829052602401610af3565b600382600381111561245957612459612ee3565b03610690576040516335e2f38360e21b815260048101829052602401610af3565b60605f61248683612694565b60010190505f8167ffffffffffffffff8111156124a5576124a5612835565b6040519080825280601f01601f1916602001820160405280156124cf576020820181803683370190505b5090508181016020015b5f19016f181899199a1a9b1b9c1cb0b131b232b360811b600a86061a8153600a85049450846124d957509392505050565b6001600160a01b03821661253357604051633250574960e11b81525f6004820152602401610af3565b5f61253f83835f611e58565b90506001600160a01b03811615610f03576040516339e3563760e11b81525f6004820152602401610af3565b5f6001600160a01b0383161580159061163c5750826001600160a01b0316846001600160a01b031614806125a457506125a48484611c18565b8061163c5750505f908152600460205260409020546001600160a01b03908116911614919050565b5f80807f7fffffffffffffffffffffffffffffff5d576e7357a4501ddfe92f46681b20a084111561260557505f9150600390508261268a565b604080515f808252602082018084528a905260ff891692820192909252606081018790526080810186905260019060a0016020604051602081039080840390855afa158015612656573d5f803e3d5ffd5b5050604051601f1901519150506001600160a01b03811661268157505f92506001915082905061268a565b92505f91508190505b9450945094915050565b5f8072184f03e93ff9f4daa797ed6e38ed64bf6a1f0160401b83106126d25772184f03e93ff9f4daa797ed6e38ed64bf6a1f0160401b830492506040015b6d04ee2d6d415b85acef810000000083106126fe576d04ee2d6d415b85acef8100000000830492506020015b662386f26fc10000831061271c57662386f26fc10000830492506010015b6305f5e1008310612734576305f5e100830492506008015b612710831061274857612710830492506004015b6064831061275a576064830492506002015b600a83106105c95760010192915050565b5f6020828403121561277b575f80fd5b5035919050565b6001600160e01b031981168114611c7f575f80fd5b5f602082840312156127a7575f80fd5b81356121f381612782565b5f81518084528060208401602086015e5f602082860101526020601f19601f83011685010191505092915050565b602081525f6121f360208301846127b2565b80356001600160a01b0381168114612808575f80fd5b919050565b5f806040838503121561281e575f80fd5b612827836127f2565b946020939093013593505050565b634e487b7160e01b5f52604160045260245ffd5b5f82601f830112612858575f80fd5b8135602083015f8067ffffffffffffffff84111561287857612878612835565b50604051601f19601f85018116603f0116810181811067ffffffffffffffff821117156128a7576128a7612835565b6040528381529050808284018710156128be575f80fd5b838360208301375f602085830101528094505050505092915050565b5f805f80608085870312156128ed575f80fd5b843567ffffffffffffffff811115612903575f80fd5b61290f87828801612849565b94505061291e602086016127f2565b925060408501359150606085013567ffffffffffffffff811115612940575f80fd5b61294c87828801612849565b91505092959194509250565b5f805f6060848603121561296a575f80fd5b612973846127f2565b9250612981602085016127f2565b929592945050506040919091013590565b5f8151808452602084019350602083015f5b828110156129fd578151805187526020808201516001600160a01b03908116828a015260408084015190911690890152606080830151908901526080918201519188019190915260a090960195909101906001016129a4565b5093949350505050565b5f604082016040835280855180835260608501915060608160051b8601019250602087015f5b82811015612abd57605f1987860301845281518051865260018060a01b036020820151166020870152604081015160c06040880152612a6f60c08801826127b2565b905060018060a01b0360608301511660608801526080820151608088015260a0820151915086810360a0880152612aa681836127b2565b965050506020938401939190910190600101612a2d565b505050508281036020840152612ad38185612992565b95945050505050565b8681526001600160a01b038616602082015260c0604082018190525f90612b05908301876127b2565b6001600160a01b03861660608401526080830185905282810360a0840152612b2d81856127b2565b9998505050505050505050565b5f60208284031215612b4a575f80fd5b6121f3826127f2565b5f805f8060808587031215612b66575f80fd5b8435935060208501359250612b7d604086016127f2565b9150606085013567ffffffffffffffff811115612940575f80fd5b5f8060408385031215612ba9575f80fd5b612bb2836127f2565b915060208301358015158114612bc6575f80fd5b809150509250929050565b5f805f8060808587031215612be4575f80fd5b612bed856127f2565b935061291e602086016127f2565b5f805f60608486031215612c0d575f80fd5b833567ffffffffffffffff811115612c23575f80fd5b612c2f86828701612849565b935050612981602085016127f2565b5f8060408385031215612c4f575f80fd5b50508035926020909101359150565b5f805f8060808587031215612c71575f80fd5b612c7a856127f2565b966020860135965060408601359560600135945092505050565b5f8060408385031215612ca5575f80fd5b612cae836127f2565b9150612cbc602084016127f2565b90509250929050565b600181811c90821680612cd957607f821691505b602082108103612cf757634e487b7160e01b5f52602260045260245ffd5b50919050565b601f821115610f0357805f5260205f20601f840160051c81016020851015612d225750805b601f840160051c820191505b81811015612182575f8155600101612d2e565b815167ffffffffffffffff811115612d5b57612d5b612835565b612d6f81612d698454612cc5565b84612cfd565b6020601f821160018114612da1575f8315612d8a5750848201515b5f19600385901b1c1916600184901b178455612182565b5f84815260208120601f198516915b82811015612dd05787850151825560209485019460019092019101612db0565b5084821015612ded57868401515f19600387901b60f8161c191681555b50505050600190811b01905550565b634e487b7160e01b5f52601160045260245ffd5b808201808211156105c9576105c9612dfc565b634e487b7160e01b5f52603260045260245ffd5b5f81518060208401855e5f93019283525090919050565b5f61163c612e5c8386612e37565b84612e37565b80820281158282048414176105c9576105c9612dfc565b818103818111156105c9576105c9612dfc565b6001600160a01b03858116825284166020820152604081018390526080606082018190525f90612ebe908301846127b2565b9695505050505050565b5f60208284031215612ed8575f80fd5b81516121f381612782565b634e487b7160e01b5f52602160045260245ffdfea2646970667358221220c1732768e383ae3a18f0a16b2106d1cc6865552f0e6392560250912a07c3f9f164736f6c634300081a0033","linkReferences":{}},"methodIdentifiers":{"approve(address,uint256)":"095ea7b3","balanceOf(address)":"70a08231","createNFT(string,address,uint256)":"c92081bb","erc1155Items(uint256)":"0016fdb6","erc1155TokenIds(uint256)":"b6f70e76","fetchAllNFTs()":"3f0e317b","getApproved(uint256)":"081812fc","isApprovedForAll(address,address)":"e985e9c5","listERC1155(address,uint256,uint256,uint256)":"e8d9b52f","listNFTSignature(string,address,uint256,bytes)":"09b8e5a1","name()":"06fdde03","nftItems(uint256)":"62821396","owner()":"8da5cb5b","ownerOf(uint256)":"6352211e","paymentHandler()":"cdd5bd21","purchaseERC1155(uint256,uint256)":"df470379","purchaseNFT(uint256)":"150bde03","purchaseNFTWithSignature(uint256,uint256,address,bytes)":"8d56f3d1","renounceOwnership()":"715018a6","safeTransferFrom(address,address,uint256)":"42842e0e","safeTransferFrom(address,address,uint256,bytes)":"b88d4fde","setApprovalForAll(address,bool)":"a22cb465","supportsInterface(bytes4)":"01ffc9a7","symbol()":"95d89b41","tokenCounter()":"d082e381","tokenURI(uint256)":"c87b56dd","transferFrom(address,address,uint256)":"23b872dd","transferOwnership(address)":"f2fde38b"},"id":61}