{"abi":[{"type":"constructor","inputs":[{"name":"name","type":"string","internalType":"string"},{"name":"symbol","type":"string","internalType":"string"},{"name":"owner","type":"address","internalType":"address"},{"name":"paymentHandlerAddress","type":"address","internalType":"address"}],"stateMutability":"nonpayable"},{"type":"function","name":"approve","inputs":[{"name":"to","type":"address","internalType":"address"},{"name":"tokenId","type":"uint256","internalType":"uint256"}],"outputs":[],"stateMutability":"nonpayable"},{"type":"function","name":"balanceOf","inputs":[{"name":"owner","type":"address","internalType":"address"}],"outputs":[{"name":"","type":"uint256","internalType":"uint256"}],"stateMutability":"view"},{"type":"function","name":"createNFT","inputs":[{"name":"tokenURI","type":"string","internalType":"string"},{"name":"paymentToken","type":"address","internalType":"address"},{"name":"price","type":"uint256","internalType":"uint256"}],"outputs":[{"name":"","type":"uint256","internalType":"uint256"}],"stateMutability":"nonpayable"},{"type":"function","name":"erc1155Items","inputs":[{"name":"","type":"uint256","internalType":"uint256"}],"outputs":[{"name":"tokenId","type":"uint256","internalType":"uint256"},{"name":"owner","type":"address","internalType":"address"},{"name":"tokenAddress","type":"address","internalType":"address"},{"name":"amount","type":"uint256","internalType":"uint256"},{"name":"price","type":"uint256","internalType":"uint256"}],"stateMutability":"view"},{"type":"function","name":"erc1155TokenIds","inputs":[{"name":"","type":"uint256","internalType":"uint256"}],"outputs":[{"name":"","type":"uint256","internalType":"uint256"}],"stateMutability":"view"},{"type":"function","name":"fetchAllNFTs","inputs":[],"outputs":[{"name":"","type":"tuple[]","internalType":"struct NFTMarketplace.NFTItem[]","components":[{"name":"tokenId","type":"uint256","internalType":"uint256"},{"name":"owner","type":"address","internalType":"address"},{"name":"tokenURI","type":"string","internalType":"string"},{"name":"paymentToken","type":"address","internalType":"address"},{"name":"price","type":"uint256","internalType":"uint256"}]},{"name":"","type":"tuple[]","internalType":"struct NFTMarketplace.ERC1155Item[]","components":[{"name":"tokenId","type":"uint256","internalType":"uint256"},{"name":"owner","type":"address","internalType":"address"},{"name":"tokenAddress","type":"address","internalType":"address"},{"name":"amount","type":"uint256","internalType":"uint256"},{"name":"price","type":"uint256","internalType":"uint256"}]}],"stateMutability":"view"},{"type":"function","name":"getApproved","inputs":[{"name":"tokenId","type":"uint256","internalType":"uint256"}],"outputs":[{"name":"","type":"address","internalType":"address"}],"stateMutability":"view"},{"type":"function","name":"isApprovedForAll","inputs":[{"name":"owner","type":"address","internalType":"address"},{"name":"operator","type":"address","internalType":"address"}],"outputs":[{"name":"","type":"bool","internalType":"bool"}],"stateMutability":"view"},{"type":"function","name":"listERC1155","inputs":[{"name":"tokenAddress","type":"address","internalType":"address"},{"name":"tokenId","type":"uint256","internalType":"uint256"},{"name":"amount","type":"uint256","internalType":"uint256"},{"name":"price","type":"uint256","internalType":"uint256"}],"outputs":[],"stateMutability":"nonpayable"},{"type":"function","name":"name","inputs":[],"outputs":[{"name":"","type":"string","internalType":"string"}],"stateMutability":"view"},{"type":"function","name":"nftItems","inputs":[{"name":"","type":"uint256","internalType":"uint256"}],"outputs":[{"name":"tokenId","type":"uint256","internalType":"uint256"},{"name":"owner","type":"address","internalType":"address"},{"name":"tokenURI","type":"string","internalType":"string"},{"name":"paymentToken","type":"address","internalType":"address"},{"name":"price","type":"uint256","internalType":"uint256"}],"stateMutability":"view"},{"type":"function","name":"owner","inputs":[],"outputs":[{"name":"","type":"address","internalType":"address"}],"stateMutability":"view"},{"type":"function","name":"ownerOf","inputs":[{"name":"tokenId","type":"uint256","internalType":"uint256"}],"outputs":[{"name":"","type":"address","internalType":"address"}],"stateMutability":"view"},{"type":"function","name":"paymentHandler","inputs":[],"outputs":[{"name":"","type":"address","internalType":"contract PaymentHandler"}],"stateMutability":"view"},{"type":"function","name":"purchaseERC1155","inputs":[{"name":"tokenId","type":"uint256","internalType":"uint256"},{"name":"amount","type":"uint256","internalType":"uint256"}],"outputs":[],"stateMutability":"payable"},{"type":"function","name":"purchaseNFT","inputs":[{"name":"tokenId","type":"uint256","internalType":"uint256"}],"outputs":[],"stateMutability":"nonpayable"},{"type":"function","name":"renounceOwnership","inputs":[],"outputs":[],"stateMutability":"nonpayable"},{"type":"function","name":"safeTransferFrom","inputs":[{"name":"from","type":"address","internalType":"address"},{"name":"to","type":"address","internalType":"address"},{"name":"tokenId","type":"uint256","internalType":"uint256"}],"outputs":[],"stateMutability":"nonpayable"},{"type":"function","name":"safeTransferFrom","inputs":[{"name":"from","type":"address","internalType":"address"},{"name":"to","type":"address","internalType":"address"},{"name":"tokenId","type":"uint256","internalType":"uint256"},{"name":"data","type":"bytes","internalType":"bytes"}],"outputs":[],"stateMutability":"nonpayable"},{"type":"function","name":"setApprovalForAll","inputs":[{"name":"operator","type":"address","internalType":"address"},{"name":"approved","type":"bool","internalType":"bool"}],"outputs":[],"stateMutability":"nonpayable"},{"type":"function","name":"supportsInterface","inputs":[{"name":"interfaceId","type":"bytes4","internalType":"bytes4"}],"outputs":[{"name":"","type":"bool","internalType":"bool"}],"stateMutability":"view"},{"type":"function","name":"symbol","inputs":[],"outputs":[{"name":"","type":"string","internalType":"string"}],"stateMutability":"view"},{"type":"function","name":"tokenCounter","inputs":[],"outputs":[{"name":"","type":"uint256","internalType":"uint256"}],"stateMutability":"view"},{"type":"function","name":"tokenURI","inputs":[{"name":"tokenId","type":"uint256","internalType":"uint256"}],"outputs":[{"name":"","type":"string","internalType":"string"}],"stateMutability":"view"},{"type":"function","name":"transferFrom","inputs":[{"name":"from","type":"address","internalType":"address"},{"name":"to","type":"address","internalType":"address"},{"name":"tokenId","type":"uint256","internalType":"uint256"}],"outputs":[],"stateMutability":"nonpayable"},{"type":"function","name":"transferOwnership","inputs":[{"name":"newOwner","type":"address","internalType":"address"}],"outputs":[],"stateMutability":"nonpayable"},{"type":"event","name":"Approval","inputs":[{"name":"owner","type":"address","indexed":true,"internalType":"address"},{"name":"approved","type":"address","indexed":true,"internalType":"address"},{"name":"tokenId","type":"uint256","indexed":true,"internalType":"uint256"}],"anonymous":false},{"type":"event","name":"ApprovalForAll","inputs":[{"name":"owner","type":"address","indexed":true,"internalType":"address"},{"name":"operator","type":"address","indexed":true,"internalType":"address"},{"name":"approved","type":"bool","indexed":false,"internalType":"bool"}],"anonymous":false},{"type":"event","name":"BatchMetadataUpdate","inputs":[{"name":"_fromTokenId","type":"uint256","indexed":false,"internalType":"uint256"},{"name":"_toTokenId","type":"uint256","indexed":false,"internalType":"uint256"}],"anonymous":false},{"type":"event","name":"ERC1155Purchased","inputs":[{"name":"tokenId","type":"uint256","indexed":true,"internalType":"uint256"},{"name":"buyer","type":"address","indexed":false,"internalType":"address"},{"name":"amount","type":"uint256","indexed":false,"internalType":"uint256"}],"anonymous":false},{"type":"event","name":"MetadataUpdate","inputs":[{"name":"_tokenId","type":"uint256","indexed":false,"internalType":"uint256"}],"anonymous":false},{"type":"event","name":"NFTPurchased","inputs":[{"name":"tokenId","type":"uint256","indexed":true,"internalType":"uint256"},{"name":"buyer","type":"address","indexed":false,"internalType":"address"},{"name":"amount","type":"uint256","indexed":false,"internalType":"uint256"}],"anonymous":false},{"type":"event","name":"OwnershipTransferred","inputs":[{"name":"previousOwner","type":"address","indexed":true,"internalType":"address"},{"name":"newOwner","type":"address","indexed":true,"internalType":"address"}],"anonymous":false},{"type":"event","name":"Transfer","inputs":[{"name":"from","type":"address","indexed":true,"internalType":"address"},{"name":"to","type":"address","indexed":true,"internalType":"address"},{"name":"tokenId","type":"uint256","indexed":true,"internalType":"uint256"}],"anonymous":false},{"type":"error","name":"ERC721IncorrectOwner","inputs":[{"name":"sender","type":"address","internalType":"address"},{"name":"tokenId","type":"uint256","internalType":"uint256"},{"name":"owner","type":"address","internalType":"address"}]},{"type":"error","name":"ERC721InsufficientApproval","inputs":[{"name":"operator","type":"address","internalType":"address"},{"name":"tokenId","type":"uint256","internalType":"uint256"}]},{"type":"error","name":"ERC721InvalidApprover","inputs":[{"name":"approver","type":"address","internalType":"address"}]},{"type":"error","name":"ERC721InvalidOperator","inputs":[{"name":"operator","type":"address","internalType":"address"}]},{"type":"error","name":"ERC721InvalidOwner","inputs":[{"name":"owner","type":"address","internalType":"address"}]},{"type":"error","name":"ERC721InvalidReceiver","inputs":[{"name":"receiver","type":"address","internalType":"address"}]},{"type":"error","name":"ERC721InvalidSender","inputs":[{"name":"sender","type":"address","internalType":"address"}]},{"type":"error","name":"ERC721NonexistentToken","inputs":[{"name":"tokenId","type":"uint256","internalType":"uint256"}]},{"type":"error","name":"OwnableInvalidOwner","inputs":[{"name":"owner","type":"address","internalType":"address"}]},{"type":"error","name":"OwnableUnauthorizedAccount","inputs":[{"name":"account","type":"address","internalType":"address"}]}],"bytecode":{"object":"0x608060405234801561000f575f80fd5b506040516127f73803806127f783398101604081905261002e916101b9565b8184845f61003c83826102c2565b50600161004982826102c2565b5050506001600160a01b03811661007957604051631e4fbdf760e01b81525f600482015260240160405180910390fd5b610082816100b0565b505f600855600980546001600160a01b0319166001600160a01b03929092169190911790555061037c915050565b600780546001600160a01b038381166001600160a01b0319831681179093556040519116919082907f8be0079c531659141344cd1fd0a4f28419497f9722a3daafe3b4186f6b6457e0905f90a35050565b634e487b7160e01b5f52604160045260245ffd5b5f82601f830112610124575f80fd5b81516001600160401b0381111561013d5761013d610101565b604051601f8201601f19908116603f011681016001600160401b038111828210171561016b5761016b610101565b604052818152838201602001851015610182575f80fd5b8160208501602083015e5f918101602001919091529392505050565b80516001600160a01b03811681146101b4575f80fd5b919050565b5f805f80608085870312156101cc575f80fd5b84516001600160401b038111156101e1575f80fd5b6101ed87828801610115565b602087015190955090506001600160401b0381111561020a575f80fd5b61021687828801610115565b9350506102256040860161019e565b91506102336060860161019e565b905092959194509250565b600181811c9082168061025257607f821691505b60208210810361027057634e487b7160e01b5f52602260045260245ffd5b50919050565b601f8211156102bd57805f5260205f20601f840160051c8101602085101561029b5750805b601f840160051c820191505b818110156102ba575f81556001016102a7565b50505b505050565b81516001600160401b038111156102db576102db610101565b6102ef816102e9845461023e565b84610276565b6020601f821160018114610321575f831561030a5750848201515b5f19600385901b1c1916600184901b1784556102ba565b5f84815260208120601f198516915b828110156103505787850151825560209485019460019092019101610330565b508482101561036d57868401515f19600387901b60f8161c191681555b50505050600190811b01905550565b61246e806103895f395ff3fe60806040526004361061017a575f3560e01c80638da5cb5b116100cd578063c92081bb11610087578063df47037911610062578063df470379146104c2578063e8d9b52f146104d5578063e985e9c5146104f4578063f2fde38b14610513575f80fd5b8063c92081bb1461046f578063cdd5bd211461048e578063d082e381146104ad575f80fd5b80638da5cb5b146103c257806395d89b41146103df578063a22cb465146103f3578063b6f70e7614610412578063b88d4fde14610431578063c87b56dd14610450575f80fd5b806323b872dd11610138578063628213961161011357806362821396146103325780636352211e1461036257806370a0823114610381578063715018a6146103ae575f80fd5b806323b872dd146102d25780633f0e317b146102f157806342842e0e14610313575f80fd5b806216fdb61461017e57806301ffc9a71461020b57806306fdde031461023a578063081812fc1461025b578063095ea7b314610292578063150bde03146102b3575b5f80fd5b348015610189575f80fd5b506101d2610198366004611d6e565b600b6020525f90815260409020805460018201546002830154600384015460049094015492936001600160a01b0392831693929091169185565b604080519586526001600160a01b03948516602087015292909316918401919091526060830152608082015260a0015b60405180910390f35b348015610216575f80fd5b5061022a610225366004611d9a565b610532565b6040519015158152602001610202565b348015610245575f80fd5b5061024e61055c565b6040516102029190611de3565b348015610266575f80fd5b5061027a610275366004611d6e565b6105eb565b6040516001600160a01b039091168152602001610202565b34801561029d575f80fd5b506102b16102ac366004611e10565b610612565b005b3480156102be575f80fd5b506102b16102cd366004611d6e565b610621565b3480156102dd575f80fd5b506102b16102ec366004611e38565b610843565b3480156102fc575f80fd5b506103056108d1565b604051610202929190611ee7565b34801561031e575f80fd5b506102b161032d366004611e38565b610bc6565b34801561033d575f80fd5b5061035161034c366004611d6e565b610be5565b604051610202959493929190611fa3565b34801561036d575f80fd5b5061027a61037c366004611d6e565b610cad565b34801561038c575f80fd5b506103a061039b366004611fe9565b610cb7565b604051908152602001610202565b3480156103b9575f80fd5b506102b1610cfc565b3480156103cd575f80fd5b506007546001600160a01b031661027a565b3480156103ea575f80fd5b5061024e610d0f565b3480156103fe575f80fd5b506102b161040d366004612002565b610d1e565b34801561041d575f80fd5b506103a061042c366004611d6e565b610d29565b34801561043c575f80fd5b506102b161044b3660046120c6565b610d48565b34801561045b575f80fd5b5061024e61046a366004611d6e565b610d60565b34801561047a575f80fd5b506103a061048936600461213d565b610e6b565b348015610499575f80fd5b5060095461027a906001600160a01b031681565b3480156104b8575f80fd5b506103a060085481565b6102b16104d0366004612193565b610fae565b3480156104e0575f80fd5b506102b16104ef3660046121b3565b6112b0565b3480156104ff575f80fd5b5061022a61050e3660046121e9565b61140c565b34801561051e575f80fd5b506102b161052d366004611fe9565b611439565b5f6001600160e01b03198216632483248360e11b1480610556575061055682611476565b92915050565b60605f805461056a9061221a565b80601f01602080910402602001604051908101604052809291908181526020018280546105969061221a565b80156105e15780601f106105b8576101008083540402835291602001916105e1565b820191905f5260205f20905b8154815290600101906020018083116105c457829003601f168201915b5050505050905090565b5f6105f5826114c5565b505f828152600460205260409020546001600160a01b0316610556565b61061d8282336114fd565b5050565b5f818152600a60209081526040808320815160a0810183528154815260018201546001600160a01b03169381019390935260028101805491928401916106669061221a565b80601f01602080910402602001604051908101604052809291908181526020018280546106929061221a565b80156106dd5780601f106106b4576101008083540402835291602001916106dd565b820191905f5260205f20905b8154815290600101906020018083116106c057829003601f168201915b505050918352505060038201546001600160a01b03908116602080840191909152600493840154604093840152600954908501519251633406129360e01b81529384018790523360248501529181166044840152929350909116906334061293906064015f604051808303815f87803b158015610758575f80fd5b505af115801561076a573d5f803e3d5ffd5b5050505061077d8160200151338461150a565b3360208281019182525f848152600a9091526040908190208351815591516001830180546001600160a01b0319166001600160a01b0390921691909117905582015182919060028201906107d19082612296565b5060608201516003820180546001600160a01b0319166001600160a01b03909216919091179055608090910151600490910155604080513381526001602082015283917fad546cba5af920bc2c64678bbd69f3d8965ac26d1b82f7ebf6f098aaa8335282910160405180910390a25050565b6001600160a01b03821661087157604051633250574960e11b81525f60048201526024015b60405180910390fd5b5f61087d8383336115b7565b9050836001600160a01b0316816001600160a01b0316146108cb576040516364283d7b60e01b81526001600160a01b0380861660048301526024820184905282166044820152606401610868565b50505050565b6060805f60085467ffffffffffffffff8111156108f0576108f061203b565b60405190808252806020026020018201604052801561096157816020015b61094e6040518060a001604052805f81526020015f6001600160a01b03168152602001606081526020015f6001600160a01b031681526020015f81525090565b81526020019060019003908161090e5790505b5090505f5b600854811015610a7e575f818152600a6020908152604091829020825160a0810184528154815260018201546001600160a01b03169281019290925260028101805492939192918401916109b99061221a565b80601f01602080910402602001604051908101604052809291908181526020018280546109e59061221a565b8015610a305780601f10610a0757610100808354040283529160200191610a30565b820191905f5260205f20905b815481529060010190602001808311610a1357829003601f168201915b505050918352505060038201546001600160a01b031660208201526004909101546040909101528251839083908110610a6b57610a6b612351565b6020908102919091010152600101610966565b50600c545f9067ffffffffffffffff811115610a9c57610a9c61203b565b604051908082528060200260200182016040528015610b0c57816020015b610af96040518060a001604052805f81526020015f6001600160a01b031681526020015f6001600160a01b031681526020015f81526020015f81525090565b815260200190600190039081610aba5790505b5090505f5b600c54811015610bbc575f600c8281548110610b2f57610b2f612351565b5f918252602080832090910154808352600b8252604092839020835160a0810185528154815260018201546001600160a01b0390811694820194909452600282015490931693830193909352600383015460608301526004909201546080820152845191925090849084908110610ba857610ba8612351565b602090810291909101015250600101610b11565b5090939092509050565b610be083838360405180602001604052805f815250610d48565b505050565b600a6020525f908152604090208054600182015460028301805492936001600160a01b0390921692610c169061221a565b80601f0160208091040260200160405190810160405280929190818152602001828054610c429061221a565b8015610c8d5780601f10610c6457610100808354040283529160200191610c8d565b820191905f5260205f20905b815481529060010190602001808311610c7057829003601f168201915b50505050600383015460049093015491926001600160a01b031691905085565b5f610556826114c5565b5f6001600160a01b038216610ce1576040516322718ad960e21b81525f6004820152602401610868565b506001600160a01b03165f9081526003602052604090205490565b610d046116a9565b610d0d5f6116d6565b565b60606001805461056a9061221a565b61061d338383611727565b600c8181548110610d38575f80fd5b5f91825260209091200154905081565b610d53848484610843565b6108cb33858585856117c5565b6060610d6b826114c5565b505f8281526006602052604081208054610d849061221a565b80601f0160208091040260200160405190810160405280929190818152602001828054610db09061221a565b8015610dfb5780601f10610dd257610100808354040283529160200191610dfb565b820191905f5260205f20905b815481529060010190602001808311610dde57829003601f168201915b505050505090505f610e1760408051602081019091525f815290565b905080515f03610e28575092915050565b815115610e5a578082604051602001610e4292919061237c565b60405160208183030381529060405292505050919050565b610e63846118ed565b949350505050565b5f610e746116a9565b600854610e81338261195e565b610e8b8186611977565b6040805160a0810182528281523360208083019182528284018981526001600160a01b038981166060860152608085018990525f878152600a909352949091208351815591516001830180546001600160a01b03191691909516179093559151909182916002820190610efe9082612296565b5060608201516003820180546001600160a01b0319166001600160a01b039283161790556080909201516004918201556009546040516333936f3960e21b81529182018590528783166024830152604482018790529091169063ce4dbce4906064015f604051808303815f87803b158015610f77575f80fd5b505af1158015610f89573d5f803e3d5ffd5b50505050600160085f828254610f9f91906123a4565b90915550919695505050505050565b5f828152600b6020908152604091829020825160a0810184528154815260018201546001600160a01b0390811693820184905260028301541693810193909352600381015460608401526004015460808301526110435760405162461bcd60e51b8152602060048201526013602482015272125d195b48191bd95cc81b9bdd08195e1a5cdd606a1b6044820152606401610868565b5f82118015611056575080606001518211155b6110935760405162461bcd60e51b815260206004820152600e60248201526d125b9d985b1a5908185b5bdd5b9d60921b6044820152606401610868565b5f8282608001516110a491906123b7565b9050803410156110ee5760405162461bcd60e51b8152602060048201526015602482015274125b9cdd59999a58da595b9d08115512081cd95b9d605a1b6044820152606401610868565b60408083015160208401519151637921219560e11b81526001600160a01b039283166004820152336024820152604481018790526064810186905260a060848201525f60a482015291169063f242432a9060c4015f604051808303815f87803b158015611159575f80fd5b505af115801561116b573d5f803e3d5ffd5b50505050803411156111ac57336108fc61118583346123ce565b6040518115909202915f818181858888f193505050501580156111aa573d5f803e3d5ffd5b505b82826060018181516111be91906123ce565b90525060608201515f0361120c575f848152600b602052604081208181556001810180546001600160a01b03199081169091556002820180549091169055600381018290556004015561126f565b5f848152600b602090815260409182902084518155908401516001820180546001600160a01b03199081166001600160a01b0393841617909155928501516002830180549094169116179091556060830151600382015560808301516004909101555b604080513381526020810185905285917fe803398184505dd9c9e1196566fca5fb48818e4d71e7fbaecfe68b4d2b2256d7910160405180910390a250505050565b6112b86116a9565b6001600160a01b0384166113065760405162461bcd60e51b8152602060048201526015602482015274496e76616c696420746f6b656e206164647265737360581b6044820152606401610868565b5f82116113555760405162461bcd60e51b815260206004820181905260248201527f416d6f756e74206d7573742062652067726561746572207468616e207a65726f6044820152606401610868565b6040805160a0810182528481523360208083019182526001600160a01b0397881683850190815260608401968752608084019586525f888152600b90925293812092518355905160018084018054928a166001600160a01b0319938416179055935160028401805491909916911617909655925160038401559051600490920191909155600c805491820181559092527fdf6966c971051c3d54ec59162606531493a51404a002842f56009d7e5cf4a8c790910155565b6001600160a01b039182165f90815260056020908152604080832093909416825291909152205460ff1690565b6114416116a9565b6001600160a01b03811661146a57604051631e4fbdf760e01b81525f6004820152602401610868565b611473816116d6565b50565b5f6001600160e01b031982166380ac58cd60e01b14806114a657506001600160e01b03198216635b5e139f60e01b145b8061055657506301ffc9a760e01b6001600160e01b0319831614610556565b5f818152600260205260408120546001600160a01b03168061055657604051637e27328960e01b815260048101849052602401610868565b610be083838360016119c6565b6001600160a01b03821661153357604051633250574960e11b81525f6004820152602401610868565b5f61153f83835f6115b7565b90506001600160a01b03811661156b57604051637e27328960e01b815260048101839052602401610868565b836001600160a01b0316816001600160a01b0316146108cb576040516364283d7b60e01b81526001600160a01b0380861660048301526024820184905282166044820152606401610868565b5f828152600260205260408120546001600160a01b03908116908316156115e3576115e3818486611aca565b6001600160a01b0381161561161d576115fe5f855f806119c6565b6001600160a01b0381165f90815260036020526040902080545f190190555b6001600160a01b0385161561164b576001600160a01b0385165f908152600360205260409020805460010190555b5f8481526002602052604080822080546001600160a01b0319166001600160a01b0389811691821790925591518793918516917fddf252ad1be2c89b69c2b068fc378daa952ba7f163c4a11628f55a4df523b3ef91a4949350505050565b6007546001600160a01b03163314610d0d5760405163118cdaa760e01b8152336004820152602401610868565b600780546001600160a01b038381166001600160a01b0319831681179093556040519116919082907f8be0079c531659141344cd1fd0a4f28419497f9722a3daafe3b4186f6b6457e0905f90a35050565b6001600160a01b03821661175957604051630b61174360e31b81526001600160a01b0383166004820152602401610868565b6001600160a01b038381165f81815260056020908152604080832094871680845294825291829020805460ff191686151590811790915591519182527f17307eab39ab6107e8899845ad3d59bd9653f200f220920489ca2b5937696c31910160405180910390a3505050565b6001600160a01b0383163b156118e657604051630a85bd0160e11b81526001600160a01b0384169063150b7a02906118079088908890879087906004016123e1565b6020604051808303815f875af1925050508015611841575060408051601f3d908101601f1916820190925261183e9181019061241d565b60015b6118a8573d80801561186e576040519150601f19603f3d011682016040523d82523d5f602084013e611873565b606091505b5080515f036118a057604051633250574960e11b81526001600160a01b0385166004820152602401610868565b805181602001fd5b6001600160e01b03198116630a85bd0160e11b146118e457604051633250574960e11b81526001600160a01b0385166004820152602401610868565b505b5050505050565b60606118f8826114c5565b505f61190e60408051602081019091525f815290565b90505f81511161192c5760405180602001604052805f815250611957565b8061193684611b2e565b60405160200161194792919061237c565b6040516020818303038152906040525b9392505050565b61061d828260405180602001604052805f815250611bbe565b5f82815260066020526040902061198e8282612296565b506040518281527ff8e1a15aba9398e019f0b49df1a4fde98ee17ae345cb5f6b5e2c27f5033e8ce79060200160405180910390a15050565b80806119da57506001600160a01b03821615155b15611a9b575f6119e9846114c5565b90506001600160a01b03831615801590611a155750826001600160a01b0316816001600160a01b031614155b8015611a285750611a26818461140c565b155b15611a515760405163a9fbf51f60e01b81526001600160a01b0384166004820152602401610868565b8115611a995783856001600160a01b0316826001600160a01b03167f8c5be1e5ebec7d5bd14f71427d1e84f3dd0314c0f7b2291e5b200ac8c7c3b92560405160405180910390a45b505b50505f90815260046020526040902080546001600160a01b0319166001600160a01b0392909216919091179055565b611ad5838383611bd5565b610be0576001600160a01b038316611b0357604051637e27328960e01b815260048101829052602401610868565b60405163177e802f60e01b81526001600160a01b038316600482015260248101829052604401610868565b60605f611b3a83611c36565b60010190505f8167ffffffffffffffff811115611b5957611b5961203b565b6040519080825280601f01601f191660200182016040528015611b83576020820181803683370190505b5090508181016020015b5f19016f181899199a1a9b1b9c1cb0b131b232b360811b600a86061a8153600a8504945084611b8d57509392505050565b611bc88383611d0d565b610be0335f8585856117c5565b5f6001600160a01b03831615801590610e635750826001600160a01b0316846001600160a01b03161480611c0e5750611c0e848461140c565b80610e635750505f908152600460205260409020546001600160a01b03908116911614919050565b5f8072184f03e93ff9f4daa797ed6e38ed64bf6a1f0160401b8310611c745772184f03e93ff9f4daa797ed6e38ed64bf6a1f0160401b830492506040015b6d04ee2d6d415b85acef81000000008310611ca0576d04ee2d6d415b85acef8100000000830492506020015b662386f26fc100008310611cbe57662386f26fc10000830492506010015b6305f5e1008310611cd6576305f5e100830492506008015b6127108310611cea57612710830492506004015b60648310611cfc576064830492506002015b600a83106105565760010192915050565b6001600160a01b038216611d3657604051633250574960e11b81525f6004820152602401610868565b5f611d4283835f6115b7565b90506001600160a01b03811615610be0576040516339e3563760e11b81525f6004820152602401610868565b5f60208284031215611d7e575f80fd5b5035919050565b6001600160e01b031981168114611473575f80fd5b5f60208284031215611daa575f80fd5b813561195781611d85565b5f81518084528060208401602086015e5f602082860101526020601f19601f83011685010191505092915050565b602081525f6119576020830184611db5565b80356001600160a01b0381168114611e0b575f80fd5b919050565b5f8060408385031215611e21575f80fd5b611e2a83611df5565b946020939093013593505050565b5f805f60608486031215611e4a575f80fd5b611e5384611df5565b9250611e6160208501611df5565b929592945050506040919091013590565b5f8151808452602084019350602083015f5b82811015611edd578151805187526020808201516001600160a01b03908116828a015260408084015190911690890152606080830151908901526080918201519188019190915260a09096019590910190600101611e84565b5093949350505050565b5f604082016040835280855180835260608501915060608160051b8601019250602087015f5b82811015611f8457605f1987860301845281518051865260018060a01b036020820151166020870152604081015160a06040880152611f4f60a0880182611db5565b6060838101516001600160a01b0316908901526080928301519290970191909152506020938401939190910190600101611f0d565b505050508281036020840152611f9a8185611e72565b95945050505050565b8581526001600160a01b038516602082015260a0604082018190525f90611fcc90830186611db5565b6001600160a01b0394909416606083015250608001529392505050565b5f60208284031215611ff9575f80fd5b61195782611df5565b5f8060408385031215612013575f80fd5b61201c83611df5565b915060208301358015158114612030575f80fd5b809150509250929050565b634e487b7160e01b5f52604160045260245ffd5b5f8067ffffffffffffffff8411156120695761206961203b565b50604051601f19601f85018116603f0116810181811067ffffffffffffffff821117156120985761209861203b565b6040528381529050808284018510156120af575f80fd5b838360208301375f60208583010152509392505050565b5f805f80608085870312156120d9575f80fd5b6120e285611df5565b93506120f060208601611df5565b925060408501359150606085013567ffffffffffffffff811115612112575f80fd5b8501601f81018713612122575f80fd5b6121318782356020840161204f565b91505092959194509250565b5f805f6060848603121561214f575f80fd5b833567ffffffffffffffff811115612165575f80fd5b8401601f81018613612175575f80fd5b6121848682356020840161204f565b935050611e6160208501611df5565b5f80604083850312156121a4575f80fd5b50508035926020909101359150565b5f805f80608085870312156121c6575f80fd5b6121cf85611df5565b966020860135965060408601359560600135945092505050565b5f80604083850312156121fa575f80fd5b61220383611df5565b915061221160208401611df5565b90509250929050565b600181811c9082168061222e57607f821691505b60208210810361224c57634e487b7160e01b5f52602260045260245ffd5b50919050565b601f821115610be057805f5260205f20601f840160051c810160208510156122775750805b601f840160051c820191505b818110156118e6575f8155600101612283565b815167ffffffffffffffff8111156122b0576122b061203b565b6122c4816122be845461221a565b84612252565b6020601f8211600181146122f6575f83156122df5750848201515b5f19600385901b1c1916600184901b1784556118e6565b5f84815260208120601f198516915b828110156123255787850151825560209485019460019092019101612305565b508482101561234257868401515f19600387901b60f8161c191681555b50505050600190811b01905550565b634e487b7160e01b5f52603260045260245ffd5b5f81518060208401855e5f93019283525090919050565b5f610e6361238a8386612365565b84612365565b634e487b7160e01b5f52601160045260245ffd5b8082018082111561055657610556612390565b808202811582820484141761055657610556612390565b8181038181111561055657610556612390565b6001600160a01b03858116825284166020820152604081018390526080606082018190525f9061241390830184611db5565b9695505050505050565b5f6020828403121561242d575f80fd5b815161195781611d8556fea264697066735822122065987dd9884d63d300b0de8229c7654c10c5dc0cc0f5c77ee0bfbf0ec99da2ea64736f6c634300081a0033","linkReferences":{}},"methodIdentifiers":{"approve(address,uint256)":"095ea7b3","balanceOf(address)":"70a08231","createNFT(string,address,uint256)":"c92081bb","erc1155Items(uint256)":"0016fdb6","erc1155TokenIds(uint256)":"b6f70e76","fetchAllNFTs()":"3f0e317b","getApproved(uint256)":"081812fc","isApprovedForAll(address,address)":"e985e9c5","listERC1155(address,uint256,uint256,uint256)":"e8d9b52f","name()":"06fdde03","nftItems(uint256)":"62821396","owner()":"8da5cb5b","ownerOf(uint256)":"6352211e","paymentHandler()":"cdd5bd21","purchaseERC1155(uint256,uint256)":"df470379","purchaseNFT(uint256)":"150bde03","renounceOwnership()":"715018a6","safeTransferFrom(address,address,uint256)":"42842e0e","safeTransferFrom(address,address,uint256,bytes)":"b88d4fde","setApprovalForAll(address,bool)":"a22cb465","supportsInterface(bytes4)":"01ffc9a7","symbol()":"95d89b41","tokenCounter()":"d082e381","tokenURI(uint256)":"c87b56dd","transferFrom(address,address,uint256)":"23b872dd","transferOwnership(address)":"f2fde38b"},"id":52}