{"abi":[{"type":"constructor","inputs":[{"name":"name","type":"string","internalType":"string"},{"name":"symbol","type":"string","internalType":"string"},{"name":"owner","type":"address","internalType":"address"},{"name":"paymentHandlerAddress","type":"address","internalType":"address"}],"stateMutability":"nonpayable"},{"type":"function","name":"approve","inputs":[{"name":"to","type":"address","internalType":"address"},{"name":"tokenId","type":"uint256","internalType":"uint256"}],"outputs":[],"stateMutability":"nonpayable"},{"type":"function","name":"balanceOf","inputs":[{"name":"owner","type":"address","internalType":"address"}],"outputs":[{"name":"","type":"uint256","internalType":"uint256"}],"stateMutability":"view"},{"type":"function","name":"createNFT","inputs":[{"name":"tokenURI","type":"string","internalType":"string"},{"name":"paymentToken","type":"address","internalType":"address"},{"name":"price","type":"uint256","internalType":"uint256"}],"outputs":[{"name":"","type":"uint256","internalType":"uint256"}],"stateMutability":"nonpayable"},{"type":"function","name":"fetchAllNFTs","inputs":[],"outputs":[{"name":"","type":"tuple[]","internalType":"struct NFTMarketplace.NFTItem[]","components":[{"name":"tokenId","type":"uint256","internalType":"uint256"},{"name":"owner","type":"address","internalType":"address"},{"name":"tokenURI","type":"string","internalType":"string"},{"name":"paymentToken","type":"address","internalType":"address"},{"name":"price","type":"uint256","internalType":"uint256"}]}],"stateMutability":"view"},{"type":"function","name":"getApproved","inputs":[{"name":"tokenId","type":"uint256","internalType":"uint256"}],"outputs":[{"name":"","type":"address","internalType":"address"}],"stateMutability":"view"},{"type":"function","name":"isApprovedForAll","inputs":[{"name":"owner","type":"address","internalType":"address"},{"name":"operator","type":"address","internalType":"address"}],"outputs":[{"name":"","type":"bool","internalType":"bool"}],"stateMutability":"view"},{"type":"function","name":"name","inputs":[],"outputs":[{"name":"","type":"string","internalType":"string"}],"stateMutability":"view"},{"type":"function","name":"nftItems","inputs":[{"name":"","type":"uint256","internalType":"uint256"}],"outputs":[{"name":"tokenId","type":"uint256","internalType":"uint256"},{"name":"owner","type":"address","internalType":"address"},{"name":"tokenURI","type":"string","internalType":"string"},{"name":"paymentToken","type":"address","internalType":"address"},{"name":"price","type":"uint256","internalType":"uint256"}],"stateMutability":"view"},{"type":"function","name":"owner","inputs":[],"outputs":[{"name":"","type":"address","internalType":"address"}],"stateMutability":"view"},{"type":"function","name":"ownerOf","inputs":[{"name":"tokenId","type":"uint256","internalType":"uint256"}],"outputs":[{"name":"","type":"address","internalType":"address"}],"stateMutability":"view"},{"type":"function","name":"paymentHandler","inputs":[],"outputs":[{"name":"","type":"address","internalType":"contract PaymentHandler"}],"stateMutability":"view"},{"type":"function","name":"purchaseNFT","inputs":[{"name":"tokenId","type":"uint256","internalType":"uint256"}],"outputs":[],"stateMutability":"nonpayable"},{"type":"function","name":"renounceOwnership","inputs":[],"outputs":[],"stateMutability":"nonpayable"},{"type":"function","name":"safeTransferFrom","inputs":[{"name":"from","type":"address","internalType":"address"},{"name":"to","type":"address","internalType":"address"},{"name":"tokenId","type":"uint256","internalType":"uint256"}],"outputs":[],"stateMutability":"nonpayable"},{"type":"function","name":"safeTransferFrom","inputs":[{"name":"from","type":"address","internalType":"address"},{"name":"to","type":"address","internalType":"address"},{"name":"tokenId","type":"uint256","internalType":"uint256"},{"name":"data","type":"bytes","internalType":"bytes"}],"outputs":[],"stateMutability":"nonpayable"},{"type":"function","name":"setApprovalForAll","inputs":[{"name":"operator","type":"address","internalType":"address"},{"name":"approved","type":"bool","internalType":"bool"}],"outputs":[],"stateMutability":"nonpayable"},{"type":"function","name":"supportsInterface","inputs":[{"name":"interfaceId","type":"bytes4","internalType":"bytes4"}],"outputs":[{"name":"","type":"bool","internalType":"bool"}],"stateMutability":"view"},{"type":"function","name":"symbol","inputs":[],"outputs":[{"name":"","type":"string","internalType":"string"}],"stateMutability":"view"},{"type":"function","name":"tokenCounter","inputs":[],"outputs":[{"name":"","type":"uint256","internalType":"uint256"}],"stateMutability":"view"},{"type":"function","name":"tokenURI","inputs":[{"name":"tokenId","type":"uint256","internalType":"uint256"}],"outputs":[{"name":"","type":"string","internalType":"string"}],"stateMutability":"view"},{"type":"function","name":"transferFrom","inputs":[{"name":"from","type":"address","internalType":"address"},{"name":"to","type":"address","internalType":"address"},{"name":"tokenId","type":"uint256","internalType":"uint256"}],"outputs":[],"stateMutability":"nonpayable"},{"type":"function","name":"transferOwnership","inputs":[{"name":"newOwner","type":"address","internalType":"address"}],"outputs":[],"stateMutability":"nonpayable"},{"type":"event","name":"Approval","inputs":[{"name":"owner","type":"address","indexed":true,"internalType":"address"},{"name":"approved","type":"address","indexed":true,"internalType":"address"},{"name":"tokenId","type":"uint256","indexed":true,"internalType":"uint256"}],"anonymous":false},{"type":"event","name":"ApprovalForAll","inputs":[{"name":"owner","type":"address","indexed":true,"internalType":"address"},{"name":"operator","type":"address","indexed":true,"internalType":"address"},{"name":"approved","type":"bool","indexed":false,"internalType":"bool"}],"anonymous":false},{"type":"event","name":"BatchMetadataUpdate","inputs":[{"name":"_fromTokenId","type":"uint256","indexed":false,"internalType":"uint256"},{"name":"_toTokenId","type":"uint256","indexed":false,"internalType":"uint256"}],"anonymous":false},{"type":"event","name":"MetadataUpdate","inputs":[{"name":"_tokenId","type":"uint256","indexed":false,"internalType":"uint256"}],"anonymous":false},{"type":"event","name":"OwnershipTransferred","inputs":[{"name":"previousOwner","type":"address","indexed":true,"internalType":"address"},{"name":"newOwner","type":"address","indexed":true,"internalType":"address"}],"anonymous":false},{"type":"event","name":"Transfer","inputs":[{"name":"from","type":"address","indexed":true,"internalType":"address"},{"name":"to","type":"address","indexed":true,"internalType":"address"},{"name":"tokenId","type":"uint256","indexed":true,"internalType":"uint256"}],"anonymous":false},{"type":"error","name":"ERC721IncorrectOwner","inputs":[{"name":"sender","type":"address","internalType":"address"},{"name":"tokenId","type":"uint256","internalType":"uint256"},{"name":"owner","type":"address","internalType":"address"}]},{"type":"error","name":"ERC721InsufficientApproval","inputs":[{"name":"operator","type":"address","internalType":"address"},{"name":"tokenId","type":"uint256","internalType":"uint256"}]},{"type":"error","name":"ERC721InvalidApprover","inputs":[{"name":"approver","type":"address","internalType":"address"}]},{"type":"error","name":"ERC721InvalidOperator","inputs":[{"name":"operator","type":"address","internalType":"address"}]},{"type":"error","name":"ERC721InvalidOwner","inputs":[{"name":"owner","type":"address","internalType":"address"}]},{"type":"error","name":"ERC721InvalidReceiver","inputs":[{"name":"receiver","type":"address","internalType":"address"}]},{"type":"error","name":"ERC721InvalidSender","inputs":[{"name":"sender","type":"address","internalType":"address"}]},{"type":"error","name":"ERC721NonexistentToken","inputs":[{"name":"tokenId","type":"uint256","internalType":"uint256"}]},{"type":"error","name":"OwnableInvalidOwner","inputs":[{"name":"owner","type":"address","internalType":"address"}]},{"type":"error","name":"OwnableUnauthorizedAccount","inputs":[{"name":"account","type":"address","internalType":"address"}]}],"bytecode":{"object":"0x608060405234801561001057600080fd5b50604051611fb1380380611fb183398101604081905261002f916101db565b818484600061003e83826102ee565b50600161004b82826102ee565b5050506001600160a01b03811661007c57604051631e4fbdf760e01b81526000600482015260240160405180910390fd5b610085816100b4565b506000600855600980546001600160a01b0319166001600160a01b0392909216919091179055506103ac915050565b600780546001600160a01b038381166001600160a01b0319831681179093556040519116919082907f8be0079c531659141344cd1fd0a4f28419497f9722a3daafe3b4186f6b6457e090600090a35050565b634e487b7160e01b600052604160045260246000fd5b600082601f83011261012d57600080fd5b81516001600160401b0381111561014657610146610106565b604051601f8201601f19908116603f011681016001600160401b038111828210171561017457610174610106565b60405281815283820160200185101561018c57600080fd5b60005b828110156101ab5760208186018101518383018201520161018f565b506000918101602001919091529392505050565b80516001600160a01b03811681146101d657600080fd5b919050565b600080600080608085870312156101f157600080fd5b84516001600160401b0381111561020757600080fd5b6102138782880161011c565b602087015190955090506001600160401b0381111561023157600080fd5b61023d8782880161011c565b93505061024c604086016101bf565b915061025a606086016101bf565b905092959194509250565b600181811c9082168061027957607f821691505b60208210810361029957634e487b7160e01b600052602260045260246000fd5b50919050565b601f8211156102e957806000526020600020601f840160051c810160208510156102c65750805b601f840160051c820191505b818110156102e657600081556001016102d2565b50505b505050565b81516001600160401b0381111561030757610307610106565b61031b816103158454610265565b8461029f565b6020601f82116001811461034f57600083156103375750848201515b600019600385901b1c1916600184901b1784556102e6565b600084815260208120601f198516915b8281101561037f578785015182556020948501946001909201910161035f565b508482101561039d5786840151600019600387901b60f8161c191681555b50505050600190811b01905550565b611bf6806103bb6000396000f3fe608060405234801561001057600080fd5b50600436106101425760003560e01c8063715018a6116100b8578063c87b56dd1161007c578063c87b56dd146102b1578063c92081bb146102c4578063cdd5bd21146102d7578063d082e381146102ea578063e985e9c5146102f3578063f2fde38b1461030657600080fd5b8063715018a61461026a5780638da5cb5b1461027257806395d89b4114610283578063a22cb4651461028b578063b88d4fde1461029e57600080fd5b806323b872dd1161010a57806323b872dd146101d75780633f0e317b146101ea57806342842e0e146101ff57806362821396146102125780636352211e1461023657806370a082311461024957600080fd5b806301ffc9a71461014757806306fdde031461016f578063081812fc14610184578063095ea7b3146101af578063150bde03146101c4575b600080fd5b61015a6101553660046115c7565b610319565b60405190151581526020015b60405180910390f35b610177610344565b6040516101669190611634565b610197610192366004611647565b6103d6565b6040516001600160a01b039091168152602001610166565b6101c26101bd36600461167c565b6103ff565b005b6101c26101d2366004611647565b61040e565b6101c26101e53660046116a6565b6105fe565b6101f261068e565b60405161016691906116e3565b6101c261020d3660046116a6565b610849565b610225610220366004611647565b610869565b60405161016695949392919061178e565b610197610244366004611647565b610934565b61025c6102573660046117d5565b61093f565b604051908152602001610166565b6101c2610987565b6007546001600160a01b0316610197565b61017761099b565b6101c26102993660046117f0565b6109aa565b6101c26102ac3660046118bc565b6109b5565b6101776102bf366004611647565b6109cd565b61025c6102d2366004611938565b610ade565b600954610197906001600160a01b031681565b61025c60085481565b61015a610301366004611993565b610c29565b6101c26103143660046117d5565b610c57565b60006001600160e01b03198216632483248360e11b148061033e575061033e82610c95565b92915050565b606060008054610353906119c6565b80601f016020809104026020016040519081016040528092919081815260200182805461037f906119c6565b80156103cc5780601f106103a1576101008083540402835291602001916103cc565b820191906000526020600020905b8154815290600101906020018083116103af57829003601f168201915b5050505050905090565b60006103e182610ce5565b506000828152600460205260409020546001600160a01b031661033e565b61040a828233610d1e565b5050565b6000818152600a60209081526040808320815160a0810183528154815260018201546001600160a01b0316938101939093526002810180549192840191610454906119c6565b80601f0160208091040260200160405190810160405280929190818152602001828054610480906119c6565b80156104cd5780601f106104a2576101008083540402835291602001916104cd565b820191906000526020600020905b8154815290600101906020018083116104b057829003601f168201915b505050918352505060038201546001600160a01b03908116602080840191909152600493840154604093840152600954908501519251633406129360e01b8152938401879052336024850152918116604484015292935090911690633406129390606401600060405180830381600087803b15801561054b57600080fd5b505af115801561055f573d6000803e3d6000fd5b5050505061057281602001513384610d2b565b3360208281019182526000848152600a9091526040908190208351815591516001830180546001600160a01b0319166001600160a01b0390921691909117905582015182919060028201906105c79082611a41565b5060608201516003820180546001600160a01b0319166001600160a01b039092169190911790556080909101516004909101555050565b6001600160a01b03821661062d57604051633250574960e11b8152600060048201526024015b60405180910390fd5b600061063a838333610ddb565b9050836001600160a01b0316816001600160a01b031614610688576040516364283d7b60e01b81526001600160a01b0380861660048301526024820184905282166044820152606401610624565b50505050565b6060600060085467ffffffffffffffff8111156106ad576106ad61182c565b60405190808252806020026020018201604052801561072257816020015b61070f6040518060a001604052806000815260200160006001600160a01b031681526020016060815260200160006001600160a01b03168152602001600081525090565b8152602001906001900390816106cb5790505b50905060005b600854811015610843576000818152600a6020908152604091829020825160a0810184528154815260018201546001600160a01b031692810192909252600281018054929391929184019161077c906119c6565b80601f01602080910402602001604051908101604052809291908181526020018280546107a8906119c6565b80156107f55780601f106107ca576101008083540402835291602001916107f5565b820191906000526020600020905b8154815290600101906020018083116107d857829003601f168201915b505050918352505060038201546001600160a01b03166020820152600490910154604090910152825183908390811061083057610830611b00565b6020908102919091010152600101610728565b50919050565b610864838383604051806020016040528060008152506109b5565b505050565b600a6020526000908152604090208054600182015460028301805492936001600160a01b039092169261089b906119c6565b80601f01602080910402602001604051908101604052809291908181526020018280546108c7906119c6565b80156109145780601f106108e957610100808354040283529160200191610914565b820191906000526020600020905b8154815290600101906020018083116108f757829003601f168201915b50505050600383015460049093015491926001600160a01b031691905085565b600061033e82610ce5565b60006001600160a01b03821661096b576040516322718ad960e21b815260006004820152602401610624565b506001600160a01b031660009081526003602052604090205490565b61098f610ed4565b6109996000610f01565b565b606060018054610353906119c6565b61040a338383610f53565b6109c08484846105fe565b6106883385858585610ff2565b60606109d882610ce5565b50600082815260066020526040812080546109f2906119c6565b80601f0160208091040260200160405190810160405280929190818152602001828054610a1e906119c6565b8015610a6b5780601f10610a4057610100808354040283529160200191610a6b565b820191906000526020600020905b815481529060010190602001808311610a4e57829003601f168201915b505050505090506000610a8960408051602081019091526000815290565b90508051600003610a9b575092915050565b815115610acd578082604051602001610ab5929190611b16565b60405160208183030381529060405292505050919050565b610ad68461111d565b949350505050565b6000610ae8610ed4565b600854610af53382611192565b610aff81866111ac565b6040805160a0810182528281523360208083019182528284018981526001600160a01b038981166060860152608085018990526000878152600a909352949091208351815591516001830180546001600160a01b03191691909516179093559151909182916002820190610b739082611a41565b5060608201516003820180546001600160a01b0319166001600160a01b039283161790556080909201516004918201556009546040516333936f3960e21b81529182018590528783166024830152604482018790529091169063ce4dbce490606401600060405180830381600087803b158015610bef57600080fd5b505af1158015610c03573d6000803e3d6000fd5b50505050600160086000828254610c1a9190611b45565b90915550919695505050505050565b6001600160a01b03918216600090815260056020908152604080832093909416825291909152205460ff1690565b610c5f610ed4565b6001600160a01b038116610c8957604051631e4fbdf760e01b815260006004820152602401610624565b610c9281610f01565b50565b60006001600160e01b031982166380ac58cd60e01b1480610cc657506001600160e01b03198216635b5e139f60e01b145b8061033e57506301ffc9a760e01b6001600160e01b031983161461033e565b6000818152600260205260408120546001600160a01b03168061033e57604051637e27328960e01b815260048101849052602401610624565b61086483838360016111fc565b6001600160a01b038216610d5557604051633250574960e11b815260006004820152602401610624565b6000610d6383836000610ddb565b90506001600160a01b038116610d8f57604051637e27328960e01b815260048101839052602401610624565b836001600160a01b0316816001600160a01b031614610688576040516364283d7b60e01b81526001600160a01b0380861660048301526024820184905282166044820152606401610624565b6000828152600260205260408120546001600160a01b0390811690831615610e0857610e08818486611302565b6001600160a01b03811615610e4657610e256000856000806111fc565b6001600160a01b038116600090815260036020526040902080546000190190555b6001600160a01b03851615610e75576001600160a01b0385166000908152600360205260409020805460010190555b60008481526002602052604080822080546001600160a01b0319166001600160a01b0389811691821790925591518793918516917fddf252ad1be2c89b69c2b068fc378daa952ba7f163c4a11628f55a4df523b3ef91a4949350505050565b6007546001600160a01b031633146109995760405163118cdaa760e01b8152336004820152602401610624565b600780546001600160a01b038381166001600160a01b0319831681179093556040519116919082907f8be0079c531659141344cd1fd0a4f28419497f9722a3daafe3b4186f6b6457e090600090a35050565b6001600160a01b038216610f8557604051630b61174360e31b81526001600160a01b0383166004820152602401610624565b6001600160a01b03838116600081815260056020908152604080832094871680845294825291829020805460ff191686151590811790915591519182527f17307eab39ab6107e8899845ad3d59bd9653f200f220920489ca2b5937696c31910160405180910390a3505050565b6001600160a01b0383163b1561111657604051630a85bd0160e11b81526001600160a01b0384169063150b7a0290611034908890889087908790600401611b66565b6020604051808303816000875af192505050801561106f575060408051601f3d908101601f1916820190925261106c91810190611ba3565b60015b6110d8573d80801561109d576040519150601f19603f3d011682016040523d82523d6000602084013e6110a2565b606091505b5080516000036110d057604051633250574960e11b81526001600160a01b0385166004820152602401610624565b805181602001fd5b6001600160e01b03198116630a85bd0160e11b1461111457604051633250574960e11b81526001600160a01b0385166004820152602401610624565b505b5050505050565b606061112882610ce5565b50600061114060408051602081019091526000815290565b90506000815111611160576040518060200160405280600081525061118b565b8061116a84611366565b60405160200161117b929190611b16565b6040516020818303038152906040525b9392505050565b61040a8282604051806020016040528060008152506113f9565b60008281526006602052604090206111c48282611a41565b506040518281527ff8e1a15aba9398e019f0b49df1a4fde98ee17ae345cb5f6b5e2c27f5033e8ce79060200160405180910390a15050565b808061121057506001600160a01b03821615155b156112d257600061122084610ce5565b90506001600160a01b0383161580159061124c5750826001600160a01b0316816001600160a01b031614155b801561125f575061125d8184610c29565b155b156112885760405163a9fbf51f60e01b81526001600160a01b0384166004820152602401610624565b81156112d05783856001600160a01b0316826001600160a01b03167f8c5be1e5ebec7d5bd14f71427d1e84f3dd0314c0f7b2291e5b200ac8c7c3b92560405160405180910390a45b505b5050600090815260046020526040902080546001600160a01b0319166001600160a01b0392909216919091179055565b61130d838383611411565b610864576001600160a01b03831661133b57604051637e27328960e01b815260048101829052602401610624565b60405163177e802f60e01b81526001600160a01b038316600482015260248101829052604401610624565b6060600061137383611474565b600101905060008167ffffffffffffffff8111156113935761139361182c565b6040519080825280601f01601f1916602001820160405280156113bd576020820181803683370190505b5090508181016020015b600019016f181899199a1a9b1b9c1cb0b131b232b360811b600a86061a8153600a85049450846113c757509392505050565b611403838361154c565b610864336000858585610ff2565b60006001600160a01b03831615801590610ad65750826001600160a01b0316846001600160a01b0316148061144b575061144b8484610c29565b80610ad65750506000908152600460205260409020546001600160a01b03908116911614919050565b60008072184f03e93ff9f4daa797ed6e38ed64bf6a1f0160401b83106114b35772184f03e93ff9f4daa797ed6e38ed64bf6a1f0160401b830492506040015b6d04ee2d6d415b85acef810000000083106114df576d04ee2d6d415b85acef8100000000830492506020015b662386f26fc1000083106114fd57662386f26fc10000830492506010015b6305f5e1008310611515576305f5e100830492506008015b612710831061152957612710830492506004015b6064831061153b576064830492506002015b600a831061033e5760010192915050565b6001600160a01b03821661157657604051633250574960e11b815260006004820152602401610624565b600061158483836000610ddb565b90506001600160a01b03811615610864576040516339e3563760e11b815260006004820152602401610624565b6001600160e01b031981168114610c9257600080fd5b6000602082840312156115d957600080fd5b813561118b816115b1565b60005b838110156115ff5781810151838201526020016115e7565b50506000910152565b600081518084526116208160208601602086016115e4565b601f01601f19169290920160200192915050565b60208152600061118b6020830184611608565b60006020828403121561165957600080fd5b5035919050565b80356001600160a01b038116811461167757600080fd5b919050565b6000806040838503121561168f57600080fd5b61169883611660565b946020939093013593505050565b6000806000606084860312156116bb57600080fd5b6116c484611660565b92506116d260208501611660565b929592945050506040919091013590565b6000602082016020835280845180835260408501915060408160051b86010192506020860160005b8281101561178257603f1987860301845281518051865260018060a01b036020820151166020870152604081015160a0604088015261174d60a0880182611608565b6060838101516001600160a01b031690890152608092830151929097019190915250602093840193919091019060010161170b565b50929695505050505050565b8581526001600160a01b038516602082015260a0604082018190526000906117b890830186611608565b6001600160a01b0394909416606083015250608001529392505050565b6000602082840312156117e757600080fd5b61118b82611660565b6000806040838503121561180357600080fd5b61180c83611660565b91506020830135801515811461182157600080fd5b809150509250929050565b634e487b7160e01b600052604160045260246000fd5b60008067ffffffffffffffff84111561185d5761185d61182c565b50604051601f19601f85018116603f0116810181811067ffffffffffffffff8211171561188c5761188c61182c565b6040528381529050808284018510156118a457600080fd5b83836020830137600060208583010152509392505050565b600080600080608085870312156118d257600080fd5b6118db85611660565b93506118e960208601611660565b925060408501359150606085013567ffffffffffffffff81111561190c57600080fd5b8501601f8101871361191d57600080fd5b61192c87823560208401611842565b91505092959194509250565b60008060006060848603121561194d57600080fd5b833567ffffffffffffffff81111561196457600080fd5b8401601f8101861361197557600080fd5b61198486823560208401611842565b9350506116d260208501611660565b600080604083850312156119a657600080fd5b6119af83611660565b91506119bd60208401611660565b90509250929050565b600181811c908216806119da57607f821691505b60208210810361084357634e487b7160e01b600052602260045260246000fd5b601f82111561086457806000526020600020601f840160051c81016020851015611a215750805b601f840160051c820191505b818110156111165760008155600101611a2d565b815167ffffffffffffffff811115611a5b57611a5b61182c565b611a6f81611a6984546119c6565b846119fa565b6020601f821160018114611aa35760008315611a8b5750848201515b600019600385901b1c1916600184901b178455611116565b600084815260208120601f198516915b82811015611ad35787850151825560209485019460019092019101611ab3565b5084821015611af15786840151600019600387901b60f8161c191681555b50505050600190811b01905550565b634e487b7160e01b600052603260045260246000fd5b60008351611b288184602088016115e4565b835190830190611b3c8183602088016115e4565b01949350505050565b8082018082111561033e57634e487b7160e01b600052601160045260246000fd5b6001600160a01b0385811682528416602082015260408101839052608060608201819052600090611b9990830184611608565b9695505050505050565b600060208284031215611bb557600080fd5b815161118b816115b156fea2646970667358221220961713120bcd52be4479685ac968ed7e1ae0db52108c37c6d718a383fad7667864736f6c634300081a0033","linkReferences":{}},"methodIdentifiers":{"approve(address,uint256)":"095ea7b3","balanceOf(address)":"70a08231","createNFT(string,address,uint256)":"c92081bb","fetchAllNFTs()":"3f0e317b","getApproved(uint256)":"081812fc","isApprovedForAll(address,address)":"e985e9c5","name()":"06fdde03","nftItems(uint256)":"62821396","owner()":"8da5cb5b","ownerOf(uint256)":"6352211e","paymentHandler()":"cdd5bd21","purchaseNFT(uint256)":"150bde03","renounceOwnership()":"715018a6","safeTransferFrom(address,address,uint256)":"42842e0e","safeTransferFrom(address,address,uint256,bytes)":"b88d4fde","setApprovalForAll(address,bool)":"a22cb465","supportsInterface(bytes4)":"01ffc9a7","symbol()":"95d89b41","tokenCounter()":"d082e381","tokenURI(uint256)":"c87b56dd","transferFrom(address,address,uint256)":"23b872dd","transferOwnership(address)":"f2fde38b"},"id":41}