{"abi":[{"type":"constructor","inputs":[{"name":"name","type":"string","internalType":"string"},{"name":"symbol","type":"string","internalType":"string"},{"name":"owner","type":"address","internalType":"address"},{"name":"paymentHandlerAddress","type":"address","internalType":"address"}],"stateMutability":"nonpayable"},{"type":"function","name":"approve","inputs":[{"name":"to","type":"address","internalType":"address"},{"name":"tokenId","type":"uint256","internalType":"uint256"}],"outputs":[],"stateMutability":"nonpayable"},{"type":"function","name":"balanceOf","inputs":[{"name":"owner","type":"address","internalType":"address"}],"outputs":[{"name":"","type":"uint256","internalType":"uint256"}],"stateMutability":"view"},{"type":"function","name":"createNFT","inputs":[{"name":"tokenURI","type":"string","internalType":"string"},{"name":"paymentToken","type":"address","internalType":"address"},{"name":"price","type":"uint256","internalType":"uint256"}],"outputs":[{"name":"","type":"uint256","internalType":"uint256"}],"stateMutability":"nonpayable"},{"type":"function","name":"createProposal","inputs":[{"name":"tokenURI","type":"string","internalType":"string"},{"name":"paymentToken","type":"address","internalType":"address"},{"name":"price","type":"uint256","internalType":"uint256"}],"outputs":[],"stateMutability":"nonpayable"},{"type":"function","name":"erc1155Items","inputs":[{"name":"","type":"uint256","internalType":"uint256"}],"outputs":[{"name":"tokenId","type":"uint256","internalType":"uint256"},{"name":"owner","type":"address","internalType":"address"},{"name":"tokenAddress","type":"address","internalType":"address"},{"name":"amount","type":"uint256","internalType":"uint256"},{"name":"price","type":"uint256","internalType":"uint256"}],"stateMutability":"view"},{"type":"function","name":"erc1155TokenIds","inputs":[{"name":"","type":"uint256","internalType":"uint256"}],"outputs":[{"name":"","type":"uint256","internalType":"uint256"}],"stateMutability":"view"},{"type":"function","name":"executeProposal","inputs":[{"name":"proposalId","type":"uint256","internalType":"uint256"}],"outputs":[],"stateMutability":"nonpayable"},{"type":"function","name":"fetchAllNFTs","inputs":[],"outputs":[{"name":"","type":"tuple[]","internalType":"struct NFTMarketplace.NFTItem[]","components":[{"name":"tokenId","type":"uint256","internalType":"uint256"},{"name":"owner","type":"address","internalType":"address"},{"name":"tokenURI","type":"string","internalType":"string"},{"name":"paymentToken","type":"address","internalType":"address"},{"name":"price","type":"uint256","internalType":"uint256"},{"name":"signature","type":"bytes","internalType":"bytes"}]},{"name":"","type":"tuple[]","internalType":"struct NFTMarketplace.ERC1155Item[]","components":[{"name":"tokenId","type":"uint256","internalType":"uint256"},{"name":"owner","type":"address","internalType":"address"},{"name":"tokenAddress","type":"address","internalType":"address"},{"name":"amount","type":"uint256","internalType":"uint256"},{"name":"price","type":"uint256","internalType":"uint256"}]}],"stateMutability":"view"},{"type":"function","name":"getApproved","inputs":[{"name":"tokenId","type":"uint256","internalType":"uint256"}],"outputs":[{"name":"","type":"address","internalType":"address"}],"stateMutability":"view"},{"type":"function","name":"isApprovedForAll","inputs":[{"name":"owner","type":"address","internalType":"address"},{"name":"operator","type":"address","internalType":"address"}],"outputs":[{"name":"","type":"bool","internalType":"bool"}],"stateMutability":"view"},{"type":"function","name":"listERC1155","inputs":[{"name":"tokenAddress","type":"address","internalType":"address"},{"name":"tokenId","type":"uint256","internalType":"uint256"},{"name":"amount","type":"uint256","internalType":"uint256"},{"name":"price","type":"uint256","internalType":"uint256"}],"outputs":[],"stateMutability":"nonpayable"},{"type":"function","name":"listNFTSignature","inputs":[{"name":"tokenURI","type":"string","internalType":"string"},{"name":"paymentToken","type":"address","internalType":"address"},{"name":"price","type":"uint256","internalType":"uint256"},{"name":"signature","type":"bytes","internalType":"bytes"}],"outputs":[{"name":"","type":"uint256","internalType":"uint256"}],"stateMutability":"nonpayable"},{"type":"function","name":"name","inputs":[],"outputs":[{"name":"","type":"string","internalType":"string"}],"stateMutability":"view"},{"type":"function","name":"nftItems","inputs":[{"name":"","type":"uint256","internalType":"uint256"}],"outputs":[{"name":"tokenId","type":"uint256","internalType":"uint256"},{"name":"owner","type":"address","internalType":"address"},{"name":"tokenURI","type":"string","internalType":"string"},{"name":"paymentToken","type":"address","internalType":"address"},{"name":"price","type":"uint256","internalType":"uint256"},{"name":"signature","type":"bytes","internalType":"bytes"}],"stateMutability":"view"},{"type":"function","name":"owner","inputs":[],"outputs":[{"name":"","type":"address","internalType":"address"}],"stateMutability":"view"},{"type":"function","name":"ownerOf","inputs":[{"name":"tokenId","type":"uint256","internalType":"uint256"}],"outputs":[{"name":"","type":"address","internalType":"address"}],"stateMutability":"view"},{"type":"function","name":"paymentHandler","inputs":[],"outputs":[{"name":"","type":"address","internalType":"contract PaymentHandler"}],"stateMutability":"view"},{"type":"function","name":"proposalCounter","inputs":[],"outputs":[{"name":"","type":"uint256","internalType":"uint256"}],"stateMutability":"view"},{"type":"function","name":"proposals","inputs":[{"name":"","type":"uint256","internalType":"uint256"}],"outputs":[{"name":"id","type":"uint256","internalType":"uint256"},{"name":"tokenURI","type":"string","internalType":"string"},{"name":"paymentToken","type":"address","internalType":"address"},{"name":"price","type":"uint256","internalType":"uint256"},{"name":"votes","type":"uint256","internalType":"uint256"},{"name":"executed","type":"bool","internalType":"bool"}],"stateMutability":"view"},{"type":"function","name":"purchaseERC1155","inputs":[{"name":"tokenId","type":"uint256","internalType":"uint256"},{"name":"amount","type":"uint256","internalType":"uint256"}],"outputs":[],"stateMutability":"payable"},{"type":"function","name":"purchaseNFT","inputs":[{"name":"tokenId","type":"uint256","internalType":"uint256"}],"outputs":[],"stateMutability":"nonpayable"},{"type":"function","name":"purchaseNFTWithSignature","inputs":[{"name":"tokenId","type":"uint256","internalType":"uint256"},{"name":"price","type":"uint256","internalType":"uint256"},{"name":"buyer","type":"address","internalType":"address"},{"name":"signature","type":"bytes","internalType":"bytes"}],"outputs":[],"stateMutability":"nonpayable"},{"type":"function","name":"renounceOwnership","inputs":[],"outputs":[],"stateMutability":"nonpayable"},{"type":"function","name":"safeTransferFrom","inputs":[{"name":"from","type":"address","internalType":"address"},{"name":"to","type":"address","internalType":"address"},{"name":"tokenId","type":"uint256","internalType":"uint256"}],"outputs":[],"stateMutability":"nonpayable"},{"type":"function","name":"safeTransferFrom","inputs":[{"name":"from","type":"address","internalType":"address"},{"name":"to","type":"address","internalType":"address"},{"name":"tokenId","type":"uint256","internalType":"uint256"},{"name":"data","type":"bytes","internalType":"bytes"}],"outputs":[],"stateMutability":"nonpayable"},{"type":"function","name":"setApprovalForAll","inputs":[{"name":"operator","type":"address","internalType":"address"},{"name":"approved","type":"bool","internalType":"bool"}],"outputs":[],"stateMutability":"nonpayable"},{"type":"function","name":"supportsInterface","inputs":[{"name":"interfaceId","type":"bytes4","internalType":"bytes4"}],"outputs":[{"name":"","type":"bool","internalType":"bool"}],"stateMutability":"view"},{"type":"function","name":"symbol","inputs":[],"outputs":[{"name":"","type":"string","internalType":"string"}],"stateMutability":"view"},{"type":"function","name":"tokenCounter","inputs":[],"outputs":[{"name":"","type":"uint256","internalType":"uint256"}],"stateMutability":"view"},{"type":"function","name":"tokenURI","inputs":[{"name":"tokenId","type":"uint256","internalType":"uint256"}],"outputs":[{"name":"","type":"string","internalType":"string"}],"stateMutability":"view"},{"type":"function","name":"transferFrom","inputs":[{"name":"from","type":"address","internalType":"address"},{"name":"to","type":"address","internalType":"address"},{"name":"tokenId","type":"uint256","internalType":"uint256"}],"outputs":[],"stateMutability":"nonpayable"},{"type":"function","name":"transferOwnership","inputs":[{"name":"newOwner","type":"address","internalType":"address"}],"outputs":[],"stateMutability":"nonpayable"},{"type":"function","name":"voteOnProposal","inputs":[{"name":"proposalId","type":"uint256","internalType":"uint256"}],"outputs":[],"stateMutability":"nonpayable"},{"type":"event","name":"Approval","inputs":[{"name":"owner","type":"address","indexed":true,"internalType":"address"},{"name":"approved","type":"address","indexed":true,"internalType":"address"},{"name":"tokenId","type":"uint256","indexed":true,"internalType":"uint256"}],"anonymous":false},{"type":"event","name":"ApprovalForAll","inputs":[{"name":"owner","type":"address","indexed":true,"internalType":"address"},{"name":"operator","type":"address","indexed":true,"internalType":"address"},{"name":"approved","type":"bool","indexed":false,"internalType":"bool"}],"anonymous":false},{"type":"event","name":"BatchMetadataUpdate","inputs":[{"name":"_fromTokenId","type":"uint256","indexed":false,"internalType":"uint256"},{"name":"_toTokenId","type":"uint256","indexed":false,"internalType":"uint256"}],"anonymous":false},{"type":"event","name":"ERC1155Purchased","inputs":[{"name":"tokenId","type":"uint256","indexed":true,"internalType":"uint256"},{"name":"buyer","type":"address","indexed":false,"internalType":"address"},{"name":"amount","type":"uint256","indexed":false,"internalType":"uint256"}],"anonymous":false},{"type":"event","name":"MetadataUpdate","inputs":[{"name":"_tokenId","type":"uint256","indexed":false,"internalType":"uint256"}],"anonymous":false},{"type":"event","name":"NFTPurchased","inputs":[{"name":"tokenId","type":"uint256","indexed":true,"internalType":"uint256"},{"name":"buyer","type":"address","indexed":false,"internalType":"address"},{"name":"amount","type":"uint256","indexed":false,"internalType":"uint256"}],"anonymous":false},{"type":"event","name":"OwnershipTransferred","inputs":[{"name":"previousOwner","type":"address","indexed":true,"internalType":"address"},{"name":"newOwner","type":"address","indexed":true,"internalType":"address"}],"anonymous":false},{"type":"event","name":"ProposalCreated","inputs":[{"name":"proposalId","type":"uint256","indexed":true,"internalType":"uint256"},{"name":"tokenURI","type":"string","indexed":false,"internalType":"string"},{"name":"paymentToken","type":"address","indexed":false,"internalType":"address"},{"name":"price","type":"uint256","indexed":false,"internalType":"uint256"}],"anonymous":false},{"type":"event","name":"ProposalExecuted","inputs":[{"name":"proposalId","type":"uint256","indexed":true,"internalType":"uint256"},{"name":"newItemId","type":"uint256","indexed":false,"internalType":"uint256"}],"anonymous":false},{"type":"event","name":"Transfer","inputs":[{"name":"from","type":"address","indexed":true,"internalType":"address"},{"name":"to","type":"address","indexed":true,"internalType":"address"},{"name":"tokenId","type":"uint256","indexed":true,"internalType":"uint256"}],"anonymous":false},{"type":"event","name":"Voted","inputs":[{"name":"proposalId","type":"uint256","indexed":true,"internalType":"uint256"},{"name":"voter","type":"address","indexed":false,"internalType":"address"}],"anonymous":false},{"type":"error","name":"ECDSAInvalidSignature","inputs":[]},{"type":"error","name":"ECDSAInvalidSignatureLength","inputs":[{"name":"length","type":"uint256","internalType":"uint256"}]},{"type":"error","name":"ECDSAInvalidSignatureS","inputs":[{"name":"s","type":"bytes32","internalType":"bytes32"}]},{"type":"error","name":"ERC721IncorrectOwner","inputs":[{"name":"sender","type":"address","internalType":"address"},{"name":"tokenId","type":"uint256","internalType":"uint256"},{"name":"owner","type":"address","internalType":"address"}]},{"type":"error","name":"ERC721InsufficientApproval","inputs":[{"name":"operator","type":"address","internalType":"address"},{"name":"tokenId","type":"uint256","internalType":"uint256"}]},{"type":"error","name":"ERC721InvalidApprover","inputs":[{"name":"approver","type":"address","internalType":"address"}]},{"type":"error","name":"ERC721InvalidOperator","inputs":[{"name":"operator","type":"address","internalType":"address"}]},{"type":"error","name":"ERC721InvalidOwner","inputs":[{"name":"owner","type":"address","internalType":"address"}]},{"type":"error","name":"ERC721InvalidReceiver","inputs":[{"name":"receiver","type":"address","internalType":"address"}]},{"type":"error","name":"ERC721InvalidSender","inputs":[{"name":"sender","type":"address","internalType":"address"}]},{"type":"error","name":"ERC721NonexistentToken","inputs":[{"name":"tokenId","type":"uint256","internalType":"uint256"}]},{"type":"error","name":"OwnableInvalidOwner","inputs":[{"name":"owner","type":"address","internalType":"address"}]},{"type":"error","name":"OwnableUnauthorizedAccount","inputs":[{"name":"account","type":"address","internalType":"address"}]}],"bytecode":{"object":"0x608060405234801561000f575f80fd5b506040516139e63803806139e683398101604081905261002e916101b9565b8184845f61003c83826102c2565b50600161004982826102c2565b5050506001600160a01b03811661007957604051631e4fbdf760e01b81525f600482015260240160405180910390fd5b610082816100b0565b505f600855600980546001600160a01b0319166001600160a01b03929092169190911790555061037c915050565b600780546001600160a01b038381166001600160a01b0319831681179093556040519116919082907f8be0079c531659141344cd1fd0a4f28419497f9722a3daafe3b4186f6b6457e0905f90a35050565b634e487b7160e01b5f52604160045260245ffd5b5f82601f830112610124575f80fd5b81516001600160401b0381111561013d5761013d610101565b604051601f8201601f19908116603f011681016001600160401b038111828210171561016b5761016b610101565b604052818152838201602001851015610182575f80fd5b8160208501602083015e5f918101602001919091529392505050565b80516001600160a01b03811681146101b4575f80fd5b919050565b5f805f80608085870312156101cc575f80fd5b84516001600160401b038111156101e1575f80fd5b6101ed87828801610115565b602087015190955090506001600160401b0381111561020a575f80fd5b61021687828801610115565b9350506102256040860161019e565b91506102336060860161019e565b905092959194509250565b600181811c9082168061025257607f821691505b60208210810361027057634e487b7160e01b5f52602260045260245ffd5b50919050565b601f8211156102bd57805f5260205f20601f840160051c8101602085101561029b5750805b601f840160051c820191505b818110156102ba575f81556001016102a7565b50505b505050565b81516001600160401b038111156102db576102db610101565b6102ef816102e9845461023e565b84610276565b6020601f821160018114610321575f831561030a5750848201515b5f19600385901b1c1916600184901b1784556102ba565b5f84815260208120601f198516915b828110156103505787850151825560209485019460019092019101610330565b508482101561036d57868401515f19600387901b60f8161c191681555b50505050600190811b01905550565b61365d806103895f395ff3fe6080604052600436106101e5575f3560e01c8063715018a611610108578063b88d4fde1161009d578063d082e3811161006d578063d082e381146105fa578063df4703791461060f578063e8d9b52f14610622578063e985e9c514610641578063f2fde38b14610660575f80fd5b8063b88d4fde1461057e578063c87b56dd1461059d578063c92081bb146105bc578063cdd5bd21146105db575f80fd5b806395d89b41116100d857806395d89b411461050d578063a22cb46514610521578063add68edc14610540578063b6f70e761461055f575f80fd5b8063715018a61461049e578063831c43ac146104b25780638d56f3d1146104d15780638da5cb5b146104f0575f80fd5b80630d61b5191161017e57806342842e0e1161014e57806342842e0e14610410578063628213961461042f5780636352211e1461046057806370a082311461047f575f80fd5b80630d61b51914610391578063150bde03146103b057806323b872dd146103cf5780633f0e317b146103ee575f80fd5b8063081812fc116101b9578063081812fc146102f7578063095ea7b31461032e57806309b8e5a11461034f5780630c0512e91461037c575f80fd5b806216fdb6146101e9578063013cf08b1461027657806301ffc9a7146102a757806306fdde03146102d6575b5f80fd5b3480156101f4575f80fd5b5061023d610203366004612e0e565b600b6020525f90815260409020805460018201546002830154600384015460049094015492936001600160a01b0392831693929091169185565b604080519586526001600160a01b03948516602087015292909316918401919091526060830152608082015260a0015b60405180910390f35b348015610281575f80fd5b50610295610290366004612e0e565b61067f565b60405161026d96959493929190612e53565b3480156102b2575f80fd5b506102c66102c1366004612eb0565b610747565b604051901515815260200161026d565b3480156102e1575f80fd5b506102ea610771565b60405161026d9190612ecb565b348015610302575f80fd5b50610316610311366004612e0e565b610800565b6040516001600160a01b03909116815260200161026d565b348015610339575f80fd5b5061034d610348366004612ef8565b610827565b005b34801561035a575f80fd5b5061036e610369366004612fc5565b610836565b60405190815260200161026d565b348015610387575f80fd5b5061036e600e5481565b34801561039c575f80fd5b5061034d6103ab366004612e0e565b6109a2565b3480156103bb575f80fd5b5061034d6103ca366004612e0e565b610d36565b3480156103da575f80fd5b5061034d6103e9366004613043565b611005565b3480156103f9575f80fd5b5061040261108e565b60405161026d9291906130f2565b34801561041b575f80fd5b5061034d61042a366004613043565b61141b565b34801561043a575f80fd5b5061044e610449366004612e0e565b61143a565b60405161026d969594939291906131c7565b34801561046b575f80fd5b5061031661047a366004612e0e565b611592565b34801561048a575f80fd5b5061036e610499366004613225565b61159c565b3480156104a9575f80fd5b5061034d6115e1565b3480156104bd575f80fd5b5061034d6104cc36600461323e565b6115f4565b3480156104dc575f80fd5b5061034d6104eb366004613281565b6116ac565b3480156104fb575f80fd5b506007546001600160a01b0316610316565b348015610518575f80fd5b506102ea611ad2565b34801561052c575f80fd5b5061034d61053b3660046132c6565b611ae1565b34801561054b575f80fd5b5061034d61055a366004612e0e565b611aec565b34801561056a575f80fd5b5061036e610579366004612e0e565b611bae565b348015610589575f80fd5b5061034d6105983660046132ff565b611bcd565b3480156105a8575f80fd5b506102ea6105b7366004612e0e565b611be5565b3480156105c7575f80fd5b5061036e6105d636600461323e565b611cf0565b3480156105e6575f80fd5b50600954610316906001600160a01b031681565b348015610605575f80fd5b5061036e60085481565b61034d61061d366004613329565b611e66565b34801561062d575f80fd5b5061034d61063c366004613349565b61215f565b34801561064c575f80fd5b506102c661065b36600461337f565b6122bb565b34801561066b575f80fd5b5061034d61067a366004613225565b6122e8565b600c6020525f9081526040902080546001820180549192916106a0906133b0565b80601f01602080910402602001604051908101604052809291908181526020018280546106cc906133b0565b80156107175780601f106106ee57610100808354040283529160200191610717565b820191905f5260205f20905b8154815290600101906020018083116106fa57829003601f168201915b5050505060028301546003840154600485015460059095015493946001600160a01b039092169390925060ff1686565b5f6001600160e01b03198216632483248360e11b148061076b575061076b82612325565b92915050565b60605f805461077f906133b0565b80601f01602080910402602001604051908101604052809291908181526020018280546107ab906133b0565b80156107f65780601f106107cd576101008083540402835291602001916107f6565b820191905f5260205f20905b8154815290600101906020018083116107d957829003601f168201915b5050505050905090565b5f61080a82612374565b505f828152600460205260409020546001600160a01b031661076b565b6108328282336123ac565b5050565b5f61083f6123b9565b60085461084c33826123e6565b61085681876123ff565b6040805160c0810182528281523360208083019182528284018a81526001600160a01b038a81166060860152608085018a905260a085018990525f878152600a909352949091208351815591516001830180546001600160a01b031916919095161790935591519091829160028201906108d0908261342c565b5060608201516003820180546001600160a01b0319166001600160a01b039092169190911790556080820151600482015560a08201516005820190610915908261342c565b50506009546040516333936f3960e21b8152600481018590526001600160a01b03898116602483015260448201899052909116915063ce4dbce4906064015f604051808303815f87803b15801561096a575f80fd5b505af115801561097c573d5f803e3d5ffd5b50505050600160085f82825461099291906134fb565b9091555091979650505050505050565b6109aa6123b9565b5f818152600c60205260409020600581015460ff1615610a045760405162461bcd60e51b815260206004820152601060248201526f105b1c9958591e48195e1958dd5d195960821b60448201526064015b60405180910390fd5b6001816004015411610a4b5760405162461bcd60e51b815260206004820152601060248201526f4e6f7420656e6f75676820766f74657360801b60448201526064016109fb565b600854610a5833826123e6565b610aec81836001018054610a6b906133b0565b80601f0160208091040260200160405190810160405280929190818152602001828054610a97906133b0565b8015610ae25780601f10610ab957610100808354040283529160200191610ae2565b820191905f5260205f20905b815481529060010190602001808311610ac557829003601f168201915b50505050506123ff565b5f6040518060c00160405280838152602001336001600160a01b03168152602001846001018054610b1c906133b0565b80601f0160208091040260200160405190810160405280929190818152602001828054610b48906133b0565b8015610b935780601f10610b6a57610100808354040283529160200191610b93565b820191905f5260205f20905b815481529060010190602001808311610b7657829003601f168201915b50505091835250506002858101546001600160a01b039081166020808501919091526003880154604080860191909152805180830182525f808252606090960152878552600a82529384902085518155908501516001820180546001600160a01b031916919093161790915591830151929350839290820190610c16908261342c565b5060608201516003820180546001600160a01b0319166001600160a01b039092169190911790556080820151600482015560a08201516005820190610c5b908261342c565b5050600954600285015460038601546040516333936f3960e21b8152600481018790526001600160a01b03928316602482015260448101919091529116915063ce4dbce4906064015f604051808303815f87803b158015610cba575f80fd5b505af1158015610ccc573d5f803e3d5ffd5b505060088054925090505f610ce08361350e565b909155505060058301805460ff1916600117905560405184907ff758fc91e01b00ea6b4a6138756f7f28e021f9bf21db6dbf8c36c88eb737257a90610d289085815260200190565b60405180910390a250505050565b5f818152600a60209081526040808320815160c0810183528154815260018201546001600160a01b0316938101939093526002810180549192840191610d7b906133b0565b80601f0160208091040260200160405190810160405280929190818152602001828054610da7906133b0565b8015610df25780601f10610dc957610100808354040283529160200191610df2565b820191905f5260205f20905b815481529060010190602001808311610dd557829003601f168201915b505050918352505060038201546001600160a01b0316602082015260048201546040820152600582018054606090920191610e2c906133b0565b80601f0160208091040260200160405190810160405280929190818152602001828054610e58906133b0565b8015610ea35780601f10610e7a57610100808354040283529160200191610ea3565b820191905f5260205f20905b815481529060010190602001808311610e8657829003601f168201915b5050509190925250506009546020830151604051633406129360e01b8152600481018790523360248201526001600160a01b0391821660448201529394501691633406129391506064015f604051808303815f87803b158015610f04575f80fd5b505af1158015610f16573d5f803e3d5ffd5b50505050610f298160200151338461244e565b3360208281019182525f848152600a9091526040908190208351815591516001830180546001600160a01b0319166001600160a01b039092169190911790558201518291906002820190610f7d908261342c565b5060608201516003820180546001600160a01b0319166001600160a01b039092169190911790556080820151600482015560a08201516005820190610fc2908261342c565b505060408051338152600160208201528492507fad546cba5af920bc2c64678bbd69f3d8965ac26d1b82f7ebf6f098aaa833528291015b60405180910390a25050565b6001600160a01b03821661102e57604051633250574960e11b81525f60048201526024016109fb565b5f61103a8383336124fb565b9050836001600160a01b0316816001600160a01b031614611088576040516364283d7b60e01b81526001600160a01b03808616600483015260248201849052821660448201526064016109fb565b50505050565b6060805f60085467ffffffffffffffff8111156110ad576110ad612f20565b60405190808252806020026020018201604052801561112557816020015b6111126040518060c001604052805f81526020015f6001600160a01b03168152602001606081526020015f6001600160a01b031681526020015f8152602001606081525090565b8152602001906001900390816110cb5790505b5090505f5b6008548110156112d3575f818152600a6020908152604091829020825160c0810184528154815260018201546001600160a01b031692810192909252600281018054929391929184019161117d906133b0565b80601f01602080910402602001604051908101604052809291908181526020018280546111a9906133b0565b80156111f45780601f106111cb576101008083540402835291602001916111f4565b820191905f5260205f20905b8154815290600101906020018083116111d757829003601f168201915b505050918352505060038201546001600160a01b031660208201526004820154604082015260058201805460609092019161122e906133b0565b80601f016020809104026020016040519081016040528092919081815260200182805461125a906133b0565b80156112a55780601f1061127c576101008083540402835291602001916112a5565b820191905f5260205f20905b81548152906001019060200180831161128857829003601f168201915b5050505050815250508282815181106112c0576112c0613526565b602090810291909101015260010161112a565b50600d545f9067ffffffffffffffff8111156112f1576112f1612f20565b60405190808252806020026020018201604052801561136157816020015b61134e6040518060a001604052805f81526020015f6001600160a01b031681526020015f6001600160a01b031681526020015f81526020015f81525090565b81526020019060019003908161130f5790505b5090505f5b600d54811015611411575f600d828154811061138457611384613526565b5f918252602080832090910154808352600b8252604092839020835160a0810185528154815260018201546001600160a01b03908116948201949094526002820154909316938301939093526003830154606083015260049092015460808201528451919250908490849081106113fd576113fd613526565b602090810291909101015250600101611366565b5090939092509050565b61143583838360405180602001604052805f815250611bcd565b505050565b600a6020525f908152604090208054600182015460028301805492936001600160a01b039092169261146b906133b0565b80601f0160208091040260200160405190810160405280929190818152602001828054611497906133b0565b80156114e25780601f106114b9576101008083540402835291602001916114e2565b820191905f5260205f20905b8154815290600101906020018083116114c557829003601f168201915b505050506003830154600484015460058501805494956001600160a01b039093169491935090611511906133b0565b80601f016020809104026020016040519081016040528092919081815260200182805461153d906133b0565b80156115885780601f1061155f57610100808354040283529160200191611588565b820191905f5260205f20905b81548152906001019060200180831161156b57829003601f168201915b5050505050905086565b5f61076b82612374565b5f6001600160a01b0382166115c6576040516322718ad960e21b81525f60048201526024016109fb565b506001600160a01b03165f9081526003602052604090205490565b6115e96123b9565b6115f25f6125ed565b565b6115fc6123b9565b600e545f818152600c602052604090208181556001810161161d868261342c565b506002810180546001600160a01b0319166001600160a01b038616179055600381018390555f6004820181905560058201805460ff19169055600e8054916116648361350e565b9190505550817f9cc3d9dd626042cdefb76484b91708c3207b637214b44f20111c893548d9c85f86868660405161169d9392919061353a565b60405180910390a25050505050565b5f848152600a60209081526040808320815160c0810183528154815260018201546001600160a01b03169381019390935260028101805491928401916116f1906133b0565b80601f016020809104026020016040519081016040528092919081815260200182805461171d906133b0565b80156117685780601f1061173f57610100808354040283529160200191611768565b820191905f5260205f20905b81548152906001019060200180831161174b57829003601f168201915b505050918352505060038201546001600160a01b03166020820152600482015460408201526005820180546060909201916117a2906133b0565b80601f01602080910402602001604051908101604052809291908181526020018280546117ce906133b0565b80156118195780601f106117f057610100808354040283529160200191611819565b820191905f5260205f20905b8154815290600101906020018083116117fc57829003601f168201915b505050505081525050905080602001516001600160a01b0316836001600160a01b0316036118955760405162461bcd60e51b815260206004820152602360248201527f4f776e65722063616e6e6f74207075726368617365207468656972206f776e2060448201526213919560ea1b60648201526084016109fb565b806080015184146118da5760405162461bcd60e51b815260206004820152600f60248201526e496e636f727265637420707269636560881b60448201526064016109fb565b604080516020808201889052818301879052606086811b6bffffffffffffffffffffffff19169083015282518083036054018152607490920190925280519101207f19457468657265756d205369676e6564204d6573736167653a0a3332000000005f908152601c829052603c812090505f61195a828560a0015161263e565b90505f611967838761263e565b6009546020870151604051633406129360e01b8152600481018d90526001600160a01b038b81166024830152918216604482015292935016906334061293906064015f604051808303815f87803b1580156119c0575f80fd5b505af11580156119d2573d5f803e3d5ffd5b505050506119e58560200151888b61244e565b6001600160a01b0387811660208781019182525f8c8152600a9091526040908190208851815591516001830180546001600160a01b0319169190941617909255908601518691906002820190611a3b908261342c565b5060608201516003820180546001600160a01b0319166001600160a01b039092169190911790556080820151600482015560a08201516005820190611a80908261342c565b5050604080516001600160a01b038a168152600160208201528b92507fad546cba5af920bc2c64678bbd69f3d8965ac26d1b82f7ebf6f098aaa8335282910160405180910390a2505050505050505050565b60606001805461077f906133b0565b610832338383612666565b5f818152600c60209081526040808320338452600681019092529091205460ff1615611b4a5760405162461bcd60e51b815260206004820152600d60248201526c105b1c9958591e481d9bdd1959609a1b60448201526064016109fb565b600481018054905f611b5b8361350e565b9091555050335f818152600683016020908152604091829020805460ff19166001179055905191825283917f030b0f8dcd86a031eddb071f91882edeac8173663ba775713b677b42b51be44b9101610ff9565b600d8181548110611bbd575f80fd5b5f91825260209091200154905081565b611bd8848484611005565b6110883385858585612704565b6060611bf082612374565b505f8281526006602052604081208054611c09906133b0565b80601f0160208091040260200160405190810160405280929190818152602001828054611c35906133b0565b8015611c805780601f10611c5757610100808354040283529160200191611c80565b820191905f5260205f20905b815481529060010190602001808311611c6357829003601f168201915b505050505090505f611c9c60408051602081019091525f815290565b905080515f03611cad575092915050565b815115611cdf578082604051602001611cc792919061357e565b60405160208183030381529060405292505050919050565b611ce88461282c565b949350505050565b5f611cf96123b9565b600854611d0633826123e6565b611d1081866123ff565b6040805160c0810182528281523360208083019182528284018981526001600160a01b03898116606086015260808501899052855180840187525f80825260a0870191909152878152600a909352949091208351815591516001830180546001600160a01b03191691909516179093559151909182916002820190611d95908261342c565b5060608201516003820180546001600160a01b0319166001600160a01b039092169190911790556080820151600482015560a08201516005820190611dda908261342c565b50506009546040516333936f3960e21b8152600481018590526001600160a01b03888116602483015260448201889052909116915063ce4dbce4906064015f604051808303815f87803b158015611e2f575f80fd5b505af1158015611e41573d5f803e3d5ffd5b50505050600160085f828254611e5791906134fb565b90915550919695505050505050565b5f828152600b6020908152604091829020825160a0810184528154815260018201546001600160a01b039081169382018490526002830154169381019390935260038101546060840152600401546080830152611efb5760405162461bcd60e51b8152602060048201526013602482015272125d195b48191bd95cc81b9bdd08195e1a5cdd606a1b60448201526064016109fb565b5f82118015611f0e575080606001518211155b611f4b5760405162461bcd60e51b815260206004820152600e60248201526d125b9d985b1a5908185b5bdd5b9d60921b60448201526064016109fb565b5f828260800151611f5c9190613592565b905080341015611fa65760405162461bcd60e51b8152602060048201526015602482015274125b9cdd59999a58da595b9d08115512081cd95b9d605a1b60448201526064016109fb565b60408083015160208401519151637921219560e11b81526001600160a01b039283166004820152336024820152604481018790526064810186905260a060848201525f60a482015291169063f242432a9060c4015f604051808303815f87803b158015612011575f80fd5b505af1158015612023573d5f803e3d5ffd5b505050508034111561206457336108fc61203d83346135a9565b6040518115909202915f818181858888f19350505050158015612062573d5f803e3d5ffd5b505b828260600181815161207691906135a9565b90525060608201515f036120c4575f848152600b602052604081208181556001810180546001600160a01b031990811690915560028201805490911690556003810182905560040155612127565b5f848152600b602090815260409182902084518155908401516001820180546001600160a01b03199081166001600160a01b0393841617909155928501516002830180549094169116179091556060830151600382015560808301516004909101555b604080513381526020810185905285917fe803398184505dd9c9e1196566fca5fb48818e4d71e7fbaecfe68b4d2b2256d79101610d28565b6121676123b9565b6001600160a01b0384166121b55760405162461bcd60e51b8152602060048201526015602482015274496e76616c696420746f6b656e206164647265737360581b60448201526064016109fb565b5f82116122045760405162461bcd60e51b815260206004820181905260248201527f416d6f756e74206d7573742062652067726561746572207468616e207a65726f60448201526064016109fb565b6040805160a0810182528481523360208083019182526001600160a01b0397881683850190815260608401968752608084019586525f888152600b90925293812092518355905160018084018054928a166001600160a01b0319938416179055935160028401805491909916911617909655925160038401559051600490920191909155600d805491820181559092527fd7b6990105719101dabeb77144f2a3385c8033acd3af97e9423a695e81ad1eb590910155565b6001600160a01b039182165f90815260056020908152604080832093909416825291909152205460ff1690565b6122f06123b9565b6001600160a01b03811661231957604051631e4fbdf760e01b81525f60048201526024016109fb565b612322816125ed565b50565b5f6001600160e01b031982166380ac58cd60e01b148061235557506001600160e01b03198216635b5e139f60e01b145b8061076b57506301ffc9a760e01b6001600160e01b031983161461076b565b5f818152600260205260408120546001600160a01b03168061076b57604051637e27328960e01b8152600481018490526024016109fb565b611435838383600161289d565b6007546001600160a01b031633146115f25760405163118cdaa760e01b81523360048201526024016109fb565b610832828260405180602001604052805f8152506129a1565b5f828152600660205260409020612416828261342c565b506040518281527ff8e1a15aba9398e019f0b49df1a4fde98ee17ae345cb5f6b5e2c27f5033e8ce79060200160405180910390a15050565b6001600160a01b03821661247757604051633250574960e11b81525f60048201526024016109fb565b5f61248383835f6124fb565b90506001600160a01b0381166124af57604051637e27328960e01b8152600481018390526024016109fb565b836001600160a01b0316816001600160a01b031614611088576040516364283d7b60e01b81526001600160a01b03808616600483015260248201849052821660448201526064016109fb565b5f828152600260205260408120546001600160a01b0390811690831615612527576125278184866129b8565b6001600160a01b03811615612561576125425f855f8061289d565b6001600160a01b0381165f90815260036020526040902080545f190190555b6001600160a01b0385161561258f576001600160a01b0385165f908152600360205260409020805460010190555b5f8481526002602052604080822080546001600160a01b0319166001600160a01b0389811691821790925591518793918516917fddf252ad1be2c89b69c2b068fc378daa952ba7f163c4a11628f55a4df523b3ef91a4949350505050565b600780546001600160a01b038381166001600160a01b0319831681179093556040519116919082907f8be0079c531659141344cd1fd0a4f28419497f9722a3daafe3b4186f6b6457e0905f90a35050565b5f805f8061264c8686612a1c565b92509250925061265c8282612a65565b5090949350505050565b6001600160a01b03821661269857604051630b61174360e31b81526001600160a01b03831660048201526024016109fb565b6001600160a01b038381165f81815260056020908152604080832094871680845294825291829020805460ff191686151590811790915591519182527f17307eab39ab6107e8899845ad3d59bd9653f200f220920489ca2b5937696c31910160405180910390a3505050565b6001600160a01b0383163b1561282557604051630a85bd0160e11b81526001600160a01b0384169063150b7a02906127469088908890879087906004016135bc565b6020604051808303815f875af1925050508015612780575060408051601f3d908101601f1916820190925261277d918101906135f8565b60015b6127e7573d8080156127ad576040519150601f19603f3d011682016040523d82523d5f602084013e6127b2565b606091505b5080515f036127df57604051633250574960e11b81526001600160a01b03851660048201526024016109fb565b805181602001fd5b6001600160e01b03198116630a85bd0160e11b1461282357604051633250574960e11b81526001600160a01b03851660048201526024016109fb565b505b5050505050565b606061283782612374565b505f61284d60408051602081019091525f815290565b90505f81511161286b5760405180602001604052805f815250612896565b8061287584612b1d565b60405160200161288692919061357e565b6040516020818303038152906040525b9392505050565b80806128b157506001600160a01b03821615155b15612972575f6128c084612374565b90506001600160a01b038316158015906128ec5750826001600160a01b0316816001600160a01b031614155b80156128ff57506128fd81846122bb565b155b156129285760405163a9fbf51f60e01b81526001600160a01b03841660048201526024016109fb565b81156129705783856001600160a01b0316826001600160a01b03167f8c5be1e5ebec7d5bd14f71427d1e84f3dd0314c0f7b2291e5b200ac8c7c3b92560405160405180910390a45b505b50505f90815260046020526040902080546001600160a01b0319166001600160a01b0392909216919091179055565b6129ab8383612bad565b611435335f858585612704565b6129c3838383612c0e565b611435576001600160a01b0383166129f157604051637e27328960e01b8152600481018290526024016109fb565b60405163177e802f60e01b81526001600160a01b0383166004820152602481018290526044016109fb565b5f805f8351604103612a53576020840151604085015160608601515f1a612a4588828585612c6f565b955095509550505050612a5e565b505081515f91506002905b9250925092565b5f826003811115612a7857612a78613613565b03612a81575050565b6001826003811115612a9557612a95613613565b03612ab35760405163f645eedf60e01b815260040160405180910390fd5b6002826003811115612ac757612ac7613613565b03612ae85760405163fce698f760e01b8152600481018290526024016109fb565b6003826003811115612afc57612afc613613565b03610832576040516335e2f38360e21b8152600481018290526024016109fb565b60605f612b2983612d37565b60010190505f8167ffffffffffffffff811115612b4857612b48612f20565b6040519080825280601f01601f191660200182016040528015612b72576020820181803683370190505b5090508181016020015b5f19016f181899199a1a9b1b9c1cb0b131b232b360811b600a86061a8153600a8504945084612b7c57509392505050565b6001600160a01b038216612bd657604051633250574960e11b81525f60048201526024016109fb565b5f612be283835f6124fb565b90506001600160a01b03811615611435576040516339e3563760e11b81525f60048201526024016109fb565b5f6001600160a01b03831615801590611ce85750826001600160a01b0316846001600160a01b03161480612c475750612c4784846122bb565b80611ce85750505f908152600460205260409020546001600160a01b03908116911614919050565b5f80807f7fffffffffffffffffffffffffffffff5d576e7357a4501ddfe92f46681b20a0841115612ca857505f91506003905082612d2d565b604080515f808252602082018084528a905260ff891692820192909252606081018790526080810186905260019060a0016020604051602081039080840390855afa158015612cf9573d5f803e3d5ffd5b5050604051601f1901519150506001600160a01b038116612d2457505f925060019150829050612d2d565b92505f91508190505b9450945094915050565b5f8072184f03e93ff9f4daa797ed6e38ed64bf6a1f0160401b8310612d755772184f03e93ff9f4daa797ed6e38ed64bf6a1f0160401b830492506040015b6d04ee2d6d415b85acef81000000008310612da1576d04ee2d6d415b85acef8100000000830492506020015b662386f26fc100008310612dbf57662386f26fc10000830492506010015b6305f5e1008310612dd7576305f5e100830492506008015b6127108310612deb57612710830492506004015b60648310612dfd576064830492506002015b600a831061076b5760010192915050565b5f60208284031215612e1e575f80fd5b5035919050565b5f81518084528060208401602086015e5f602082860101526020601f19601f83011685010191505092915050565b86815260c060208201525f612e6b60c0830188612e25565b6001600160a01b039690961660408301525060608101939093526080830191909152151560a09091015292915050565b6001600160e01b031981168114612322575f80fd5b5f60208284031215612ec0575f80fd5b813561289681612e9b565b602081525f6128966020830184612e25565b80356001600160a01b0381168114612ef3575f80fd5b919050565b5f8060408385031215612f09575f80fd5b612f1283612edd565b946020939093013593505050565b634e487b7160e01b5f52604160045260245ffd5b5f82601f830112612f43575f80fd5b8135602083015f8067ffffffffffffffff841115612f6357612f63612f20565b50604051601f19601f85018116603f0116810181811067ffffffffffffffff82111715612f9257612f92612f20565b604052838152905080828401871015612fa9575f80fd5b838360208301375f602085830101528094505050505092915050565b5f805f8060808587031215612fd8575f80fd5b843567ffffffffffffffff811115612fee575f80fd5b612ffa87828801612f34565b94505061300960208601612edd565b925060408501359150606085013567ffffffffffffffff81111561302b575f80fd5b61303787828801612f34565b91505092959194509250565b5f805f60608486031215613055575f80fd5b61305e84612edd565b925061306c60208501612edd565b929592945050506040919091013590565b5f8151808452602084019350602083015f5b828110156130e8578151805187526020808201516001600160a01b03908116828a015260408084015190911690890152606080830151908901526080918201519188019190915260a0909601959091019060010161308f565b5093949350505050565b5f604082016040835280855180835260608501915060608160051b8601019250602087015f5b828110156131a857605f1987860301845281518051865260018060a01b036020820151166020870152604081015160c0604088015261315a60c0880182612e25565b905060018060a01b0360608301511660608801526080820151608088015260a0820151915086810360a08801526131918183612e25565b965050506020938401939190910190600101613118565b5050505082810360208401526131be818561307d565b95945050505050565b8681526001600160a01b038616602082015260c0604082018190525f906131f090830187612e25565b6001600160a01b03861660608401526080830185905282810360a08401526132188185612e25565b9998505050505050505050565b5f60208284031215613235575f80fd5b61289682612edd565b5f805f60608486031215613250575f80fd5b833567ffffffffffffffff811115613266575f80fd5b61327286828701612f34565b93505061306c60208501612edd565b5f805f8060808587031215613294575f80fd5b84359350602085013592506132ab60408601612edd565b9150606085013567ffffffffffffffff81111561302b575f80fd5b5f80604083850312156132d7575f80fd5b6132e083612edd565b9150602083013580151581146132f4575f80fd5b809150509250929050565b5f805f8060808587031215613312575f80fd5b61331b85612edd565b935061300960208601612edd565b5f806040838503121561333a575f80fd5b50508035926020909101359150565b5f805f806080858703121561335c575f80fd5b61336585612edd565b966020860135965060408601359560600135945092505050565b5f8060408385031215613390575f80fd5b61339983612edd565b91506133a760208401612edd565b90509250929050565b600181811c908216806133c457607f821691505b6020821081036133e257634e487b7160e01b5f52602260045260245ffd5b50919050565b601f82111561143557805f5260205f20601f840160051c8101602085101561340d5750805b601f840160051c820191505b81811015612825575f8155600101613419565b815167ffffffffffffffff81111561344657613446612f20565b61345a8161345484546133b0565b846133e8565b6020601f82116001811461348c575f83156134755750848201515b5f19600385901b1c1916600184901b178455612825565b5f84815260208120601f198516915b828110156134bb578785015182556020948501946001909201910161349b565b50848210156134d857868401515f19600387901b60f8161c191681555b50505050600190811b01905550565b634e487b7160e01b5f52601160045260245ffd5b8082018082111561076b5761076b6134e7565b5f6001820161351f5761351f6134e7565b5060010190565b634e487b7160e01b5f52603260045260245ffd5b606081525f61354c6060830186612e25565b6001600160a01b039490941660208301525060400152919050565b5f81518060208401855e5f93019283525090919050565b5f611ce861358c8386613567565b84613567565b808202811582820484141761076b5761076b6134e7565b8181038181111561076b5761076b6134e7565b6001600160a01b03858116825284166020820152604081018390526080606082018190525f906135ee90830184612e25565b9695505050505050565b5f60208284031215613608575f80fd5b815161289681612e9b565b634e487b7160e01b5f52602160045260245ffdfea2646970667358221220fc9a9053037ac5365724f8efdb45fa9b59f1177211052c1a3e455a99a54f90e864736f6c634300081a0033","linkReferences":{}},"methodIdentifiers":{"approve(address,uint256)":"095ea7b3","balanceOf(address)":"70a08231","createNFT(string,address,uint256)":"c92081bb","createProposal(string,address,uint256)":"831c43ac","erc1155Items(uint256)":"0016fdb6","erc1155TokenIds(uint256)":"b6f70e76","executeProposal(uint256)":"0d61b519","fetchAllNFTs()":"3f0e317b","getApproved(uint256)":"081812fc","isApprovedForAll(address,address)":"e985e9c5","listERC1155(address,uint256,uint256,uint256)":"e8d9b52f","listNFTSignature(string,address,uint256,bytes)":"09b8e5a1","name()":"06fdde03","nftItems(uint256)":"62821396","owner()":"8da5cb5b","ownerOf(uint256)":"6352211e","paymentHandler()":"cdd5bd21","proposalCounter()":"0c0512e9","proposals(uint256)":"013cf08b","purchaseERC1155(uint256,uint256)":"df470379","purchaseNFT(uint256)":"150bde03","purchaseNFTWithSignature(uint256,uint256,address,bytes)":"8d56f3d1","renounceOwnership()":"715018a6","safeTransferFrom(address,address,uint256)":"42842e0e","safeTransferFrom(address,address,uint256,bytes)":"b88d4fde","setApprovalForAll(address,bool)":"a22cb465","supportsInterface(bytes4)":"01ffc9a7","symbol()":"95d89b41","tokenCounter()":"d082e381","tokenURI(uint256)":"c87b56dd","transferFrom(address,address,uint256)":"23b872dd","transferOwnership(address)":"f2fde38b","voteOnProposal(uint256)":"add68edc"},"id":61}